{
  "_format": "hh-sol-artifact-1",
  "contractName": "MyEpicGame",
  "sourceName": "contracts/MyEpicGame.sol",
  "abi": [
    {
      "inputs": [
        {
          "internalType": "string[]",
          "name": "characterNames",
          "type": "string[]"
        },
        {
          "internalType": "string[]",
          "name": "characterImageURIs",
          "type": "string[]"
        },
        {
          "internalType": "uint256[]",
          "name": "characterHp",
          "type": "uint256[]"
        },
        {
          "internalType": "uint256[]",
          "name": "characterAttackDmg",
          "type": "uint256[]"
        },
        {
          "internalType": "string",
          "name": "bossName",
          "type": "string"
        },
        {
          "internalType": "string",
          "name": "bossImageURI",
          "type": "string"
        },
        {
          "internalType": "uint256",
          "name": "bossHp",
          "type": "uint256"
        },
        {
          "internalType": "uint256",
          "name": "bossAttackDamage",
          "type": "uint256"
        }
      ],
      "stateMutability": "nonpayable",
      "type": "constructor"
    },
    {
      "anonymous": false,
      "inputs": [
        {
          "indexed": true,
          "internalType": "address",
          "name": "owner",
          "type": "address"
        },
        {
          "indexed": true,
          "internalType": "address",
          "name": "approved",
          "type": "address"
        },
        {
          "indexed": true,
          "internalType": "uint256",
          "name": "tokenId",
          "type": "uint256"
        }
      ],
      "name": "Approval",
      "type": "event"
    },
    {
      "anonymous": false,
      "inputs": [
        {
          "indexed": true,
          "internalType": "address",
          "name": "owner",
          "type": "address"
        },
        {
          "indexed": true,
          "internalType": "address",
          "name": "operator",
          "type": "address"
        },
        {
          "indexed": false,
          "internalType": "bool",
          "name": "approved",
          "type": "bool"
        }
      ],
      "name": "ApprovalForAll",
      "type": "event"
    },
    {
      "anonymous": false,
      "inputs": [
        {
          "indexed": false,
          "internalType": "address",
          "name": "sender",
          "type": "address"
        },
        {
          "indexed": false,
          "internalType": "uint256",
          "name": "newBossHp",
          "type": "uint256"
        },
        {
          "indexed": false,
          "internalType": "uint256",
          "name": "newPlayerHp",
          "type": "uint256"
        }
      ],
      "name": "AttackComplete",
      "type": "event"
    },
    {
      "anonymous": false,
      "inputs": [
        {
          "indexed": false,
          "internalType": "address",
          "name": "sender",
          "type": "address"
        },
        {
          "indexed": false,
          "internalType": "uint256",
          "name": "tokenId",
          "type": "uint256"
        },
        {
          "indexed": false,
          "internalType": "uint256",
          "name": "characterIndex",
          "type": "uint256"
        }
      ],
      "name": "CharacterNFTMinted",
      "type": "event"
    },
    {
      "anonymous": false,
      "inputs": [
        {
          "indexed": true,
          "internalType": "address",
          "name": "from",
          "type": "address"
        },
        {
          "indexed": true,
          "internalType": "address",
          "name": "to",
          "type": "address"
        },
        {
          "indexed": true,
          "internalType": "uint256",
          "name": "tokenId",
          "type": "uint256"
        }
      ],
      "name": "Transfer",
      "type": "event"
    },
    {
      "inputs": [
        {
          "internalType": "address",
          "name": "to",
          "type": "address"
        },
        {
          "internalType": "uint256",
          "name": "tokenId",
          "type": "uint256"
        }
      ],
      "name": "approve",
      "outputs": [],
      "stateMutability": "nonpayable",
      "type": "function"
    },
    {
      "inputs": [],
      "name": "attackBoss",
      "outputs": [
        {
          "internalType": "address",
          "name": "",
          "type": "address"
        },
        {
          "internalType": "uint256",
          "name": "",
          "type": "uint256"
        },
        {
          "internalType": "uint256",
          "name": "",
          "type": "uint256"
        }
      ],
      "stateMutability": "payable",
      "type": "function"
    },
    {
      "inputs": [
        {
          "internalType": "address",
          "name": "owner",
          "type": "address"
        }
      ],
      "name": "balanceOf",
      "outputs": [
        {
          "internalType": "uint256",
          "name": "",
          "type": "uint256"
        }
      ],
      "stateMutability": "view",
      "type": "function"
    },
    {
      "inputs": [],
      "name": "bigBoss",
      "outputs": [
        {
          "internalType": "string",
          "name": "name",
          "type": "string"
        },
        {
          "internalType": "string",
          "name": "imageURI",
          "type": "string"
        },
        {
          "internalType": "uint256",
          "name": "hp",
          "type": "uint256"
        },
        {
          "internalType": "uint256",
          "name": "maxHp",
          "type": "uint256"
        },
        {
          "internalType": "uint256",
          "name": "attackDamage",
          "type": "uint256"
        }
      ],
      "stateMutability": "view",
      "type": "function"
    },
    {
      "inputs": [],
      "name": "checkIfUserHasNFT",
      "outputs": [
        {
          "components": [
            {
              "internalType": "uint256",
              "name": "characterIndex",
              "type": "uint256"
            },
            {
              "internalType": "string",
              "name": "name",
              "type": "string"
            },
            {
              "internalType": "string",
              "name": "imageURI",
              "type": "string"
            },
            {
              "internalType": "uint256",
              "name": "hp",
              "type": "uint256"
            },
            {
              "internalType": "uint256",
              "name": "maxHp",
              "type": "uint256"
            },
            {
              "internalType": "uint256",
              "name": "attackDamage",
              "type": "uint256"
            }
          ],
          "internalType": "struct MyEpicGame.CharacterAttributes",
          "name": "",
          "type": "tuple"
        }
      ],
      "stateMutability": "view",
      "type": "function"
    },
    {
      "inputs": [],
      "name": "getAllDefaultCharacters",
      "outputs": [
        {
          "components": [
            {
              "internalType": "uint256",
              "name": "characterIndex",
              "type": "uint256"
            },
            {
              "internalType": "string",
              "name": "name",
              "type": "string"
            },
            {
              "internalType": "string",
              "name": "imageURI",
              "type": "string"
            },
            {
              "internalType": "uint256",
              "name": "hp",
              "type": "uint256"
            },
            {
              "internalType": "uint256",
              "name": "maxHp",
              "type": "uint256"
            },
            {
              "internalType": "uint256",
              "name": "attackDamage",
              "type": "uint256"
            }
          ],
          "internalType": "struct MyEpicGame.CharacterAttributes[]",
          "name": "",
          "type": "tuple[]"
        }
      ],
      "stateMutability": "view",
      "type": "function"
    },
    {
      "inputs": [
        {
          "internalType": "uint256",
          "name": "tokenId",
          "type": "uint256"
        }
      ],
      "name": "getApproved",
      "outputs": [
        {
          "internalType": "address",
          "name": "",
          "type": "address"
        }
      ],
      "stateMutability": "view",
      "type": "function"
    },
    {
      "inputs": [],
      "name": "getBigBoss",
      "outputs": [
        {
          "components": [
            {
              "internalType": "string",
              "name": "name",
              "type": "string"
            },
            {
              "internalType": "string",
              "name": "imageURI",
              "type": "string"
            },
            {
              "internalType": "uint256",
              "name": "hp",
              "type": "uint256"
            },
            {
              "internalType": "uint256",
              "name": "maxHp",
              "type": "uint256"
            },
            {
              "internalType": "uint256",
              "name": "attackDamage",
              "type": "uint256"
            }
          ],
          "internalType": "struct MyEpicGame.BigBoss",
          "name": "",
          "type": "tuple"
        }
      ],
      "stateMutability": "view",
      "type": "function"
    },
    {
      "inputs": [
        {
          "internalType": "address",
          "name": "owner",
          "type": "address"
        },
        {
          "internalType": "address",
          "name": "operator",
          "type": "address"
        }
      ],
      "name": "isApprovedForAll",
      "outputs": [
        {
          "internalType": "bool",
          "name": "",
          "type": "bool"
        }
      ],
      "stateMutability": "view",
      "type": "function"
    },
    {
      "inputs": [
        {
          "internalType": "uint256",
          "name": "_characterIndex",
          "type": "uint256"
        },
        {
          "internalType": "string",
          "name": "name",
          "type": "string"
        },
        {
          "internalType": "string",
          "name": "imageURI",
          "type": "string"
        },
        {
          "internalType": "uint256",
          "name": "hp",
          "type": "uint256"
        },
        {
          "internalType": "uint256",
          "name": "maxHp",
          "type": "uint256"
        },
        {
          "internalType": "uint256",
          "name": "attackDamage",
          "type": "uint256"
        }
      ],
      "name": "mintCharacterNFT",
      "outputs": [
        {
          "internalType": "uint256",
          "name": "",
          "type": "uint256"
        }
      ],
      "stateMutability": "payable",
      "type": "function"
    },
    {
      "inputs": [],
      "name": "name",
      "outputs": [
        {
          "internalType": "string",
          "name": "",
          "type": "string"
        }
      ],
      "stateMutability": "view",
      "type": "function"
    },
    {
      "inputs": [
        {
          "internalType": "uint256",
          "name": "",
          "type": "uint256"
        }
      ],
      "name": "nftHolderAttributes",
      "outputs": [
        {
          "internalType": "uint256",
          "name": "characterIndex",
          "type": "uint256"
        },
        {
          "internalType": "string",
          "name": "name",
          "type": "string"
        },
        {
          "internalType": "string",
          "name": "imageURI",
          "type": "string"
        },
        {
          "internalType": "uint256",
          "name": "hp",
          "type": "uint256"
        },
        {
          "internalType": "uint256",
          "name": "maxHp",
          "type": "uint256"
        },
        {
          "internalType": "uint256",
          "name": "attackDamage",
          "type": "uint256"
        }
      ],
      "stateMutability": "view",
      "type": "function"
    },
    {
      "inputs": [
        {
          "internalType": "address",
          "name": "",
          "type": "address"
        }
      ],
      "name": "nftHolders",
      "outputs": [
        {
          "internalType": "uint256",
          "name": "",
          "type": "uint256"
        }
      ],
      "stateMutability": "view",
      "type": "function"
    },
    {
      "inputs": [
        {
          "internalType": "uint256",
          "name": "tokenId",
          "type": "uint256"
        }
      ],
      "name": "ownerOf",
      "outputs": [
        {
          "internalType": "address",
          "name": "",
          "type": "address"
        }
      ],
      "stateMutability": "view",
      "type": "function"
    },
    {
      "inputs": [
        {
          "internalType": "address",
          "name": "from",
          "type": "address"
        },
        {
          "internalType": "address",
          "name": "to",
          "type": "address"
        },
        {
          "internalType": "uint256",
          "name": "tokenId",
          "type": "uint256"
        }
      ],
      "name": "safeTransferFrom",
      "outputs": [],
      "stateMutability": "nonpayable",
      "type": "function"
    },
    {
      "inputs": [
        {
          "internalType": "address",
          "name": "from",
          "type": "address"
        },
        {
          "internalType": "address",
          "name": "to",
          "type": "address"
        },
        {
          "internalType": "uint256",
          "name": "tokenId",
          "type": "uint256"
        },
        {
          "internalType": "bytes",
          "name": "_data",
          "type": "bytes"
        }
      ],
      "name": "safeTransferFrom",
      "outputs": [],
      "stateMutability": "nonpayable",
      "type": "function"
    },
    {
      "inputs": [
        {
          "internalType": "address",
          "name": "operator",
          "type": "address"
        },
        {
          "internalType": "bool",
          "name": "approved",
          "type": "bool"
        }
      ],
      "name": "setApprovalForAll",
      "outputs": [],
      "stateMutability": "nonpayable",
      "type": "function"
    },
    {
      "inputs": [
        {
          "internalType": "bytes4",
          "name": "interfaceId",
          "type": "bytes4"
        }
      ],
      "name": "supportsInterface",
      "outputs": [
        {
          "internalType": "bool",
          "name": "",
          "type": "bool"
        }
      ],
      "stateMutability": "view",
      "type": "function"
    },
    {
      "inputs": [],
      "name": "symbol",
      "outputs": [
        {
          "internalType": "string",
          "name": "",
          "type": "string"
        }
      ],
      "stateMutability": "view",
      "type": "function"
    },
    {
      "inputs": [
        {
          "internalType": "uint256",
          "name": "_tokenId",
          "type": "uint256"
        }
      ],
      "name": "tokenURI",
      "outputs": [
        {
          "internalType": "string",
          "name": "",
          "type": "string"
        }
      ],
      "stateMutability": "view",
      "type": "function"
    },
    {
      "inputs": [
        {
          "internalType": "address",
          "name": "from",
          "type": "address"
        },
        {
          "internalType": "address",
          "name": "to",
          "type": "address"
        },
        {
          "internalType": "uint256",
          "name": "tokenId",
          "type": "uint256"
        }
      ],
      "name": "transferFrom",
      "outputs": [],
      "stateMutability": "nonpayable",
      "type": "function"
    }
  ],
  "bytecode": "0x60806040523480156200001157600080fd5b50604051620057f6380380620057f6833981810160405281019062000037919062000b6f565b6040518060400160405280600681526020017f4865726f657300000000000000000000000000000000000000000000000000008152506040518060400160405280600481526020017f4845524f000000000000000000000000000000000000000000000000000000008152508160009080519060200190620000bb92919062000715565b508060019080519060200190620000d492919062000715565b5050506040518060a0016040528085815260200184815260200183815260200183815260200182815250600a60008201518160000190805190602001906200011e92919062000715565b5060208201518160010190805190602001906200013d92919062000715565b50604082015181600201556060820151816003015560808201518160040155905050620002c06040518060600160405280602a8152602001620057cc602a9139600a60000180546200018f9062000d21565b80601f0160208091040260200160405190810160405280929190818152602001828054620001bd9062000d21565b80156200020e5780601f10620001e2576101008083540402835291602001916200020e565b820191906000526020600020905b815481529060010190602001808311620001f057829003601f168201915b5050505050600a60020154600a60010180546200022b9062000d21565b80601f0160208091040260200160405190810160405280929190818152602001828054620002599062000d21565b8015620002aa5780601f106200027e57610100808354040283529160200191620002aa565b820191906000526020600020905b8154815290600101906020018083116200028c57829003601f168201915b50505050506200062a60201b62001a881760201c565b60005b8851811015620006045760076040518060c001604052808381526020018b8481518110620002f657620002f562000d57565b5b602002602001015181526020018a848151811062000319576200031862000d57565b5b602002602001015181526020018984815181106200033c576200033b62000d57565b5b602002602001015181526020018984815181106200035f576200035e62000d57565b5b6020026020010151815260200188848151811062000382576200038162000d57565b5b60200260200101518152509080600181540180825580915050600190039060005260206000209060060201600090919091909150600082015181600001556020820151816001019080519060200190620003de92919062000715565b506040820151816002019080519060200190620003fd92919062000715565b50606082015181600301556080820151816004015560a08201518160050155505060006007828154811062000437576200043662000d57565b5b90600052602060002090600602016040518060c0016040529081600082015481526020016001820180546200046c9062000d21565b80601f01602080910402602001604051908101604052809291908181526020018280546200049a9062000d21565b8015620004eb5780601f10620004bf57610100808354040283529160200191620004eb565b820191906000526020600020905b815481529060010190602001808311620004cd57829003601f168201915b50505050508152602001600282018054620005069062000d21565b80601f0160208091040260200160405190810160405280929190818152602001828054620005349062000d21565b8015620005855780601f10620005595761010080835404028352916020019162000585565b820191906000526020600020905b8154815290600101906020018083116200056757829003601f168201915b5050505050815260200160038201548152602001600482015481526020016005820154815250509050620005ec604051806060016040528060258152602001620057a7602591398260200151836060015184604001516200062a60201b62001a881760201c565b50600181620005fc919062000db5565b9050620002c3565b506200061c6006620006d660201b62001b2a1760201c565b505050505050505062000ee2565b620006d08484848460405160240162000647949392919062000e80565b6040516020818303038152906040527f8d142cdd000000000000000000000000000000000000000000000000000000007bffffffffffffffffffffffffffffffffffffffffffffffffffffffff19166020820180517bffffffffffffffffffffffffffffffffffffffffffffffffffffffff8381831617835250505050620006ec60201b60201c565b50505050565b6001816000016000828254019250508190555050565b60008151905060006a636f6e736f6c652e6c6f679050602083016000808483855afa5050505050565b828054620007239062000d21565b90600052602060002090601f01602090048101928262000747576000855562000793565b82601f106200076257805160ff191683800117855562000793565b8280016001018555821562000793579182015b828111156200079257825182559160200191906001019062000775565b5b509050620007a29190620007a6565b5090565b5b80821115620007c1576000816000905550600101620007a7565b5090565b6000604051905090565b600080fd5b600080fd5b600080fd5b6000601f19601f8301169050919050565b7f4e487b7100000000000000000000000000000000000000000000000000000000600052604160045260246000fd5b6200082982620007de565b810181811067ffffffffffffffff821117156200084b576200084a620007ef565b5b80604052505050565b600062000860620007c5565b90506200086e82826200081e565b919050565b600067ffffffffffffffff821115620008915762000890620007ef565b5b602082029050602081019050919050565b600080fd5b600080fd5b600067ffffffffffffffff821115620008ca57620008c9620007ef565b5b620008d582620007de565b9050602081019050919050565b60005b8381101562000902578082015181840152602081019050620008e5565b8381111562000912576000848401525b50505050565b60006200092f6200092984620008ac565b62000854565b9050828152602081018484840111156200094e576200094d620008a7565b5b6200095b848285620008e2565b509392505050565b600082601f8301126200097b576200097a620007d9565b5b81516200098d84826020860162000918565b91505092915050565b6000620009ad620009a78462000873565b62000854565b90508083825260208201905060208402830185811115620009d357620009d2620008a2565b5b835b8181101562000a2157805167ffffffffffffffff811115620009fc57620009fb620007d9565b5b80860162000a0b898262000963565b85526020850194505050602081019050620009d5565b5050509392505050565b600082601f83011262000a435762000a42620007d9565b5b815162000a5584826020860162000996565b91505092915050565b600067ffffffffffffffff82111562000a7c5762000a7b620007ef565b5b602082029050602081019050919050565b6000819050919050565b62000aa28162000a8d565b811462000aae57600080fd5b50565b60008151905062000ac28162000a97565b92915050565b600062000adf62000ad98462000a5e565b62000854565b9050808382526020820190506020840283018581111562000b055762000b04620008a2565b5b835b8181101562000b32578062000b1d888262000ab1565b84526020840193505060208101905062000b07565b5050509392505050565b600082601f83011262000b545762000b53620007d9565b5b815162000b6684826020860162000ac8565b91505092915050565b600080600080600080600080610100898b03121562000b935762000b92620007cf565b5b600089015167ffffffffffffffff81111562000bb45762000bb3620007d4565b5b62000bc28b828c0162000a2b565b985050602089015167ffffffffffffffff81111562000be65762000be5620007d4565b5b62000bf48b828c0162000a2b565b975050604089015167ffffffffffffffff81111562000c185762000c17620007d4565b5b62000c268b828c0162000b3c565b965050606089015167ffffffffffffffff81111562000c4a5762000c49620007d4565b5b62000c588b828c0162000b3c565b955050608089015167ffffffffffffffff81111562000c7c5762000c7b620007d4565b5b62000c8a8b828c0162000963565b94505060a089015167ffffffffffffffff81111562000cae5762000cad620007d4565b5b62000cbc8b828c0162000963565b93505060c062000ccf8b828c0162000ab1565b92505060e062000ce28b828c0162000ab1565b9150509295985092959890939650565b7f4e487b7100000000000000000000000000000000000000000000000000000000600052602260045260246000fd5b6000600282049050600182168062000d3a57607f821691505b6020821081141562000d515762000d5062000cf2565b5b50919050565b7f4e487b7100000000000000000000000000000000000000000000000000000000600052603260045260246000fd5b7f4e487b7100000000000000000000000000000000000000000000000000000000600052601160045260246000fd5b600062000dc28262000a8d565b915062000dcf8362000a8d565b9250827fffffffffffffffffffffffffffffffffffffffffffffffffffffffffffffffff0382111562000e075762000e0662000d86565b5b828201905092915050565b600081519050919050565b600082825260208201905092915050565b600062000e3b8262000e12565b62000e47818562000e1d565b935062000e59818560208601620008e2565b62000e6481620007de565b840191505092915050565b62000e7a8162000a8d565b82525050565b6000608082019050818103600083015262000e9c818762000e2e565b9050818103602083015262000eb2818662000e2e565b905062000ec3604083018562000e6f565b818103606083015262000ed7818462000e2e565b905095945050505050565b6148b58062000ef26000396000f3fe60806040526004361061012a5760003560e01c80637df124a1116100ab578063b88d4fde1161006f578063b88d4fde14610426578063b953084e1461044f578063c87b56dd1461047a578063c8cf27f4146104b7578063d4f24c5b146104e2578063e985e9c5146105025761012a565b80637df124a11461032457806395d89b411461036157806398da4c951461038c578063a22cb465146103ce578063a9c32679146103f75761012a565b806323b872dd116100f257806323b872dd1461022857806342842e0e146102515780636352211e1461027a5780637083a393146102b757806370a08231146102e75761012a565b806301ffc9a71461012f5780630665f9611461016c57806306fdde0314610197578063081812fc146101c2578063095ea7b3146101ff575b600080fd5b34801561013b57600080fd5b5061015660048036038101906101519190612c3a565b61053f565b6040516101639190612c82565b60405180910390f35b34801561017857600080fd5b50610181610621565b60405161018e9190612dcc565b60405180910390f35b3480156101a357600080fd5b506101ac61077d565b6040516101b99190612e38565b60405180910390f35b3480156101ce57600080fd5b506101e960048036038101906101e49190612e86565b61080f565b6040516101f69190612ef4565b60405180910390f35b34801561020b57600080fd5b5061022660048036038101906102219190612f3b565b610894565b005b34801561023457600080fd5b5061024f600480360381019061024a9190612f7b565b6109ac565b005b34801561025d57600080fd5b5061027860048036038101906102739190612f7b565b610a0c565b005b34801561028657600080fd5b506102a1600480360381019061029c9190612e86565b610a2c565b6040516102ae9190612ef4565b60405180910390f35b6102d160048036038101906102cc9190613103565b610ade565b6040516102de91906131d7565b60405180910390f35b3480156102f357600080fd5b5061030e600480360381019061030991906131f2565b610c56565b60405161031b91906131d7565b60405180910390f35b34801561033057600080fd5b5061034b600480360381019061034691906131f2565b610d0e565b60405161035891906131d7565b60405180910390f35b34801561036d57600080fd5b50610376610d26565b6040516103839190612e38565b60405180910390f35b34801561039857600080fd5b506103b360048036038101906103ae9190612e86565b610db8565b6040516103c59695949392919061321f565b60405180910390f35b3480156103da57600080fd5b506103f560048036038101906103f091906132ba565b610f04565b005b34801561040357600080fd5b5061040c610f1a565b60405161041d9594939291906132fa565b60405180910390f35b34801561043257600080fd5b5061044d600480360381019061044891906133fc565b61104e565b005b34801561045b57600080fd5b506104646110b0565b60405161047191906135d1565b60405180910390f35b34801561048657600080fd5b506104a1600480360381019061049c9190612e86565b61125b565b6040516104ae9190612e38565b60405180910390f35b3480156104c357600080fd5b506104cc611476565b6040516104d99190613683565b60405180910390f35b6104ea61164e565b6040516104f9939291906136a5565b60405180910390f35b34801561050e57600080fd5b50610529600480360381019061052491906136dc565b6119f4565b6040516105369190612c82565b60405180910390f35b60007f80ac58cd000000000000000000000000000000000000000000000000000000007bffffffffffffffffffffffffffffffffffffffffffffffffffffffff1916827bffffffffffffffffffffffffffffffffffffffffffffffffffffffff1916148061060a57507f5b5e139f000000000000000000000000000000000000000000000000000000007bffffffffffffffffffffffffffffffffffffffffffffffffffffffff1916827bffffffffffffffffffffffffffffffffffffffffffffffffffffffff1916145b8061061a575061061982611b40565b5b9050919050565b610629612ac6565b600a6040518060a00160405290816000820180546106469061374b565b80601f01602080910402602001604051908101604052809291908181526020018280546106729061374b565b80156106bf5780601f10610694576101008083540402835291602001916106bf565b820191906000526020600020905b8154815290600101906020018083116106a257829003601f168201915b505050505081526020016001820180546106d89061374b565b80601f01602080910402602001604051908101604052809291908181526020018280546107049061374b565b80156107515780601f1061072657610100808354040283529160200191610751565b820191906000526020600020905b81548152906001019060200180831161073457829003601f168201915b505050505081526020016002820154815260200160038201548152602001600482015481525050905090565b60606000805461078c9061374b565b80601f01602080910402602001604051908101604052809291908181526020018280546107b89061374b565b80156108055780601f106107da57610100808354040283529160200191610805565b820191906000526020600020905b8154815290600101906020018083116107e857829003601f168201915b5050505050905090565b600061081a82611baa565b610859576040517f08c379a0000000000000000000000000000000000000000000000000000000008152600401610850906137ef565b60405180910390fd5b6004600083815260200190815260200160002060009054906101000a900473ffffffffffffffffffffffffffffffffffffffff169050919050565b600061089f82610a2c565b90508073ffffffffffffffffffffffffffffffffffffffff168373ffffffffffffffffffffffffffffffffffffffff161415610910576040517f08c379a000000000000000000000000000000000000000000000000000000000815260040161090790613881565b60405180910390fd5b8073ffffffffffffffffffffffffffffffffffffffff1661092f611c16565b73ffffffffffffffffffffffffffffffffffffffff16148061095e575061095d81610958611c16565b6119f4565b5b61099d576040517f08c379a000000000000000000000000000000000000000000000000000000000815260040161099490613913565b60405180910390fd5b6109a78383611c1e565b505050565b6109bd6109b7611c16565b82611cd7565b6109fc576040517f08c379a00000000000000000000000000000000000000000000000000000000081526004016109f3906139a5565b60405180910390fd5b610a07838383611db5565b505050565b610a278383836040518060200160405280600081525061104e565b505050565b6000806002600084815260200190815260200160002060009054906101000a900473ffffffffffffffffffffffffffffffffffffffff169050600073ffffffffffffffffffffffffffffffffffffffff168173ffffffffffffffffffffffffffffffffffffffff161415610ad5576040517f08c379a0000000000000000000000000000000000000000000000000000000008152600401610acc90613a37565b60405180910390fd5b80915050919050565b600080610aeb600661201c565b9050610af7338261202a565b6040518060c001604052808981526020018881526020018781526020018681526020018581526020018481525060086000838152602001908152602001600020600082015181600001556020820151816001019080519060200190610b5d929190612af5565b506040820151816002019080519060200190610b7a929190612af5565b50606082015181600301556080820151816004015560a08201518160050155905050610bbf6040518060600160405280602e8152602001614816602e9139828a612048565b80600960003373ffffffffffffffffffffffffffffffffffffffff1673ffffffffffffffffffffffffffffffffffffffff16815260200190815260200160002081905550610c0d6006611b2a565b7f4bc303fd457a97b4691b9af582ce71868a3d258638c8d4f8c60988a0f0bfb8cd33828a604051610c40939291906136a5565b60405180910390a1809150509695505050505050565b60008073ffffffffffffffffffffffffffffffffffffffff168273ffffffffffffffffffffffffffffffffffffffff161415610cc7576040517f08c379a0000000000000000000000000000000000000000000000000000000008152600401610cbe90613ac9565b60405180910390fd5b600360008373ffffffffffffffffffffffffffffffffffffffff1673ffffffffffffffffffffffffffffffffffffffff168152602001908152602001600020549050919050565b60096020528060005260406000206000915090505481565b606060018054610d359061374b565b80601f0160208091040260200160405190810160405280929190818152602001828054610d619061374b565b8015610dae5780601f10610d8357610100808354040283529160200191610dae565b820191906000526020600020905b815481529060010190602001808311610d9157829003601f168201915b5050505050905090565b6008602052806000526040600020600091509050806000015490806001018054610de19061374b565b80601f0160208091040260200160405190810160405280929190818152602001828054610e0d9061374b565b8015610e5a5780601f10610e2f57610100808354040283529160200191610e5a565b820191906000526020600020905b815481529060010190602001808311610e3d57829003601f168201915b505050505090806002018054610e6f9061374b565b80601f0160208091040260200160405190810160405280929190818152602001828054610e9b9061374b565b8015610ee85780601f10610ebd57610100808354040283529160200191610ee8565b820191906000526020600020905b815481529060010190602001808311610ecb57829003601f168201915b5050505050908060030154908060040154908060050154905086565b610f16610f0f611c16565b83836120e7565b5050565b600a806000018054610f2b9061374b565b80601f0160208091040260200160405190810160405280929190818152602001828054610f579061374b565b8015610fa45780601f10610f7957610100808354040283529160200191610fa4565b820191906000526020600020905b815481529060010190602001808311610f8757829003601f168201915b505050505090806001018054610fb99061374b565b80601f0160208091040260200160405190810160405280929190818152602001828054610fe59061374b565b80156110325780601f1061100757610100808354040283529160200191611032565b820191906000526020600020905b81548152906001019060200180831161101557829003601f168201915b5050505050908060020154908060030154908060040154905085565b61105f611059611c16565b83611cd7565b61109e576040517f08c379a0000000000000000000000000000000000000000000000000000000008152600401611095906139a5565b60405180910390fd5b6110aa84848484612254565b50505050565b60606007805480602002602001604051908101604052809291908181526020016000905b8282101561125257838290600052602060002090600602016040518060c0016040529081600082015481526020016001820180546111119061374b565b80601f016020809104026020016040519081016040528092919081815260200182805461113d9061374b565b801561118a5780601f1061115f5761010080835404028352916020019161118a565b820191906000526020600020905b81548152906001019060200180831161116d57829003601f168201915b505050505081526020016002820180546111a39061374b565b80601f01602080910402602001604051908101604052809291908181526020018280546111cf9061374b565b801561121c5780601f106111f15761010080835404028352916020019161121c565b820191906000526020600020905b8154815290600101906020018083116111ff57829003601f168201915b505050505081526020016003820154815260200160048201548152602001600582015481525050815260200190600101906110d4565b50505050905090565b60606000600860008481526020019081526020016000206040518060c0016040529081600082015481526020016001820180546112979061374b565b80601f01602080910402602001604051908101604052809291908181526020018280546112c39061374b565b80156113105780601f106112e557610100808354040283529160200191611310565b820191906000526020600020905b8154815290600101906020018083116112f357829003601f168201915b505050505081526020016002820180546113299061374b565b80601f01602080910402602001604051908101604052809291908181526020018280546113559061374b565b80156113a25780601f10611377576101008083540402835291602001916113a2565b820191906000526020600020905b81548152906001019060200180831161138557829003601f168201915b505050505081526020016003820154815260200160048201548152602001600582015481525050905060006113da82606001516122b0565b905060006113eb83608001516122b0565b905060006113fc8460a001516122b0565b905060006114428560200151611411896122b0565b876040015187878760405160200161142e96959493929190613dab565b604051602081830303815290604052612411565b90506000816040516020016114579190613e9c565b6040516020818303038152906040529050809650505050505050919050565b61147e612b7b565b6000600960003373ffffffffffffffffffffffffffffffffffffffff1673ffffffffffffffffffffffffffffffffffffffff168152602001908152602001600020549050600081111561163d57600860008281526020019081526020016000206040518060c0016040529081600082015481526020016001820180546115039061374b565b80601f016020809104026020016040519081016040528092919081815260200182805461152f9061374b565b801561157c5780601f106115515761010080835404028352916020019161157c565b820191906000526020600020905b81548152906001019060200180831161155f57829003601f168201915b505050505081526020016002820180546115959061374b565b80601f01602080910402602001604051908101604052809291908181526020018280546115c19061374b565b801561160e5780601f106115e35761010080835404028352916020019161160e565b820191906000526020600020905b8154815290600101906020018083116115f157829003601f168201915b50505050508152602001600382015481526020016004820154815260200160058201548152505091505061164b565b611645612b7b565b80925050505b90565b600080600080600960003373ffffffffffffffffffffffffffffffffffffffff1673ffffffffffffffffffffffffffffffffffffffff16815260200190815260200160002054905060006008600083815260200190815260200160002090506117656040518060600160405280603c8152602001614844603c91398260010180546116d89061374b565b80601f01602080910402602001604051908101604052809291908181526020018280546117049061374b565b80156117515780601f1061172657610100808354040283529160200191611751565b820191906000526020600020905b81548152906001019060200180831161173457829003601f168201915b505050505083600301548460050154612575565b61183d6040518060400160405280601b81526020017f426f73732025732068617320257320485020616e642025732041440000000000815250600a60000180546117ae9061374b565b80601f01602080910402602001604051908101604052809291908181526020018280546117da9061374b565b80156118275780601f106117fc57610100808354040283529160200191611827565b820191906000526020600020905b81548152906001019060200180831161180a57829003601f168201915b5050505050600a60020154600a60040154612575565b6000816003015411611884576040517f08c379a000000000000000000000000000000000000000000000000000000000815260040161187b90613f30565b60405180910390fd5b6000600a60020154116118cc576040517f08c379a00000000000000000000000000000000000000000000000000000000081526004016118c390613fc2565b60405180910390fd5b8060050154600a6002015410156118ed576000600a6002018190555061190c565b8060050154600a600201546119029190614011565b600a600201819055505b600a600401548160030154101561192c576000816003018190555061194a565b600a6004015481600301546119419190614011565b81600301819055505b61197160405180606001604052806025815260200161478960259139600a60020154612617565b6119976040518060600160405280602881526020016147ee602891398260030154612617565b7f32bd565ee3f2cb5ddd742bbecd6048d3e9abe90b3827a40c2b72d232e71e3c9d33600a6002015483600301546040516119d3939291906136a5565b60405180910390a133600a6002015482600301549450945094505050909192565b6000600560008473ffffffffffffffffffffffffffffffffffffffff1673ffffffffffffffffffffffffffffffffffffffff16815260200190815260200160002060008373ffffffffffffffffffffffffffffffffffffffff1673ffffffffffffffffffffffffffffffffffffffff16815260200190815260200160002060009054906101000a900460ff16905092915050565b611b2484848484604051602401611aa29493929190614045565b6040516020818303038152906040527f8d142cdd000000000000000000000000000000000000000000000000000000007bffffffffffffffffffffffffffffffffffffffffffffffffffffffff19166020820180517bffffffffffffffffffffffffffffffffffffffffffffffffffffffff83818316178352505050506126b3565b50505050565b6001816000016000828254019250508190555050565b60007f01ffc9a7000000000000000000000000000000000000000000000000000000007bffffffffffffffffffffffffffffffffffffffffffffffffffffffff1916827bffffffffffffffffffffffffffffffffffffffffffffffffffffffff1916149050919050565b60008073ffffffffffffffffffffffffffffffffffffffff166002600084815260200190815260200160002060009054906101000a900473ffffffffffffffffffffffffffffffffffffffff1673ffffffffffffffffffffffffffffffffffffffff1614159050919050565b600033905090565b816004600083815260200190815260200160002060006101000a81548173ffffffffffffffffffffffffffffffffffffffff021916908373ffffffffffffffffffffffffffffffffffffffff160217905550808273ffffffffffffffffffffffffffffffffffffffff16611c9183610a2c565b73ffffffffffffffffffffffffffffffffffffffff167f8c5be1e5ebec7d5bd14f71427d1e84f3dd0314c0f7b2291e5b200ac8c7c3b92560405160405180910390a45050565b6000611ce282611baa565b611d21576040517f08c379a0000000000000000000000000000000000000000000000000000000008152600401611d1890614111565b60405180910390fd5b6000611d2c83610a2c565b90508073ffffffffffffffffffffffffffffffffffffffff168473ffffffffffffffffffffffffffffffffffffffff161480611d6e5750611d6d81856119f4565b5b80611dac57508373ffffffffffffffffffffffffffffffffffffffff16611d948461080f565b73ffffffffffffffffffffffffffffffffffffffff16145b91505092915050565b8273ffffffffffffffffffffffffffffffffffffffff16611dd582610a2c565b73ffffffffffffffffffffffffffffffffffffffff1614611e2b576040517f08c379a0000000000000000000000000000000000000000000000000000000008152600401611e22906141a3565b60405180910390fd5b600073ffffffffffffffffffffffffffffffffffffffff168273ffffffffffffffffffffffffffffffffffffffff161415611e9b576040517f08c379a0000000000000000000000000000000000000000000000000000000008152600401611e9290614235565b60405180910390fd5b611ea68383836126dc565b611eb1600082611c1e565b6001600360008573ffffffffffffffffffffffffffffffffffffffff1673ffffffffffffffffffffffffffffffffffffffff1681526020019081526020016000206000828254611f019190614011565b925050819055506001600360008473ffffffffffffffffffffffffffffffffffffffff1673ffffffffffffffffffffffffffffffffffffffff1681526020019081526020016000206000828254611f589190614255565b92505081905550816002600083815260200190815260200160002060006101000a81548173ffffffffffffffffffffffffffffffffffffffff021916908373ffffffffffffffffffffffffffffffffffffffff160217905550808273ffffffffffffffffffffffffffffffffffffffff168473ffffffffffffffffffffffffffffffffffffffff167fddf252ad1be2c89b69c2b068fc378daa952ba7f163c4a11628f55a4df523b3ef60405160405180910390a46120178383836126e1565b505050565b600081600001549050919050565b6120448282604051806020016040528060008152506126e6565b5050565b6120e2838383604051602401612060939291906142ab565b6040516020818303038152906040527f969cdd03000000000000000000000000000000000000000000000000000000007bffffffffffffffffffffffffffffffffffffffffffffffffffffffff19166020820180517bffffffffffffffffffffffffffffffffffffffffffffffffffffffff83818316178352505050506126b3565b505050565b8173ffffffffffffffffffffffffffffffffffffffff168373ffffffffffffffffffffffffffffffffffffffff161415612156576040517f08c379a000000000000000000000000000000000000000000000000000000000815260040161214d90614335565b60405180910390fd5b80600560008573ffffffffffffffffffffffffffffffffffffffff1673ffffffffffffffffffffffffffffffffffffffff16815260200190815260200160002060008473ffffffffffffffffffffffffffffffffffffffff1673ffffffffffffffffffffffffffffffffffffffff16815260200190815260200160002060006101000a81548160ff0219169083151502179055508173ffffffffffffffffffffffffffffffffffffffff168373ffffffffffffffffffffffffffffffffffffffff167f17307eab39ab6107e8899845ad3d59bd9653f200f220920489ca2b5937696c31836040516122479190612c82565b60405180910390a3505050565b61225f848484611db5565b61226b84848484612741565b6122aa576040517f08c379a00000000000000000000000000000000000000000000000000000000081526004016122a1906143c7565b60405180910390fd5b50505050565b606060008214156122f8576040518060400160405280600181526020017f3000000000000000000000000000000000000000000000000000000000000000815250905061240c565b600082905060005b6000821461232a578080612313906143e7565b915050600a82612323919061445f565b9150612300565b60008167ffffffffffffffff81111561234657612345612fd8565b5b6040519080825280601f01601f1916602001820160405280156123785781602001600182028036833780820191505090505b5090505b60008514612405576001826123919190614011565b9150600a856123a09190614490565b60306123ac9190614255565b60f81b8183815181106123c2576123c16144c1565b5b60200101907effffffffffffffffffffffffffffffffffffffffffffffffffffffffffffff1916908160001a905350600a856123fe919061445f565b945061237c565b8093505050505b919050565b606060008251141561243457604051806020016040528060008152509050612570565b60006040518060600160405280604081526020016147ae60409139905060006003600285516124639190614255565b61246d919061445f565b600461247991906144f0565b67ffffffffffffffff81111561249257612491612fd8565b5b6040519080825280601f01601f1916602001820160405280156124c45781602001600182028036833780820191505090505b509050600182016020820185865187015b80821015612530576003820191508151603f8160121c168501518453600184019350603f81600c1c168501518453600184019350603f8160061c168501518453600184019350603f81168501518453600184019350506124d5565b505060038651066001811461254c576002811461255f57612567565b603d6001830353603d6002830353612567565b603d60018303535b50505080925050505b919050565b6126118484848460405160240161258f949392919061454a565b6040516020818303038152906040527fd5cf17d0000000000000000000000000000000000000000000000000000000007bffffffffffffffffffffffffffffffffffffffffffffffffffffffff19166020820180517bffffffffffffffffffffffffffffffffffffffffffffffffffffffff83818316178352505050506126b3565b50505050565b6126af828260405160240161262d92919061459d565b6040516020818303038152906040527f9710a9d0000000000000000000000000000000000000000000000000000000007bffffffffffffffffffffffffffffffffffffffffffffffffffffffff19166020820180517bffffffffffffffffffffffffffffffffffffffffffffffffffffffff83818316178352505050506126b3565b5050565b60008151905060006a636f6e736f6c652e6c6f679050602083016000808483855afa5050505050565b505050565b505050565b6126f083836128c9565b6126fd6000848484612741565b61273c576040517f08c379a0000000000000000000000000000000000000000000000000000000008152600401612733906143c7565b60405180910390fd5b505050565b60006127628473ffffffffffffffffffffffffffffffffffffffff16612aa3565b156128bc578373ffffffffffffffffffffffffffffffffffffffff1663150b7a0261278b611c16565b8786866040518563ffffffff1660e01b81526004016127ad9493929190614622565b6020604051808303816000875af19250505080156127e957506040513d601f19601f820116820180604052508101906127e69190614683565b60015b61286c573d8060008114612819576040519150601f19603f3d011682016040523d82523d6000602084013e61281e565b606091505b50600081511415612864576040517f08c379a000000000000000000000000000000000000000000000000000000000815260040161285b906143c7565b60405180910390fd5b805181602001fd5b63150b7a0260e01b7bffffffffffffffffffffffffffffffffffffffffffffffffffffffff1916817bffffffffffffffffffffffffffffffffffffffffffffffffffffffff1916149150506128c1565b600190505b949350505050565b600073ffffffffffffffffffffffffffffffffffffffff168273ffffffffffffffffffffffffffffffffffffffff161415612939576040517f08c379a0000000000000000000000000000000000000000000000000000000008152600401612930906146fc565b60405180910390fd5b61294281611baa565b15612982576040517f08c379a000000000000000000000000000000000000000000000000000000000815260040161297990614768565b60405180910390fd5b61298e600083836126dc565b6001600360008473ffffffffffffffffffffffffffffffffffffffff1673ffffffffffffffffffffffffffffffffffffffff16815260200190815260200160002060008282546129de9190614255565b92505081905550816002600083815260200190815260200160002060006101000a81548173ffffffffffffffffffffffffffffffffffffffff021916908373ffffffffffffffffffffffffffffffffffffffff160217905550808273ffffffffffffffffffffffffffffffffffffffff16600073ffffffffffffffffffffffffffffffffffffffff167fddf252ad1be2c89b69c2b068fc378daa952ba7f163c4a11628f55a4df523b3ef60405160405180910390a4612a9f600083836126e1565b5050565b6000808273ffffffffffffffffffffffffffffffffffffffff163b119050919050565b6040518060a0016040528060608152602001606081526020016000815260200160008152602001600081525090565b828054612b019061374b565b90600052602060002090601f016020900481019282612b235760008555612b6a565b82601f10612b3c57805160ff1916838001178555612b6a565b82800160010185558215612b6a579182015b82811115612b69578251825591602001919060010190612b4e565b5b509050612b779190612bb1565b5090565b6040518060c001604052806000815260200160608152602001606081526020016000815260200160008152602001600081525090565b5b80821115612bca576000816000905550600101612bb2565b5090565b6000604051905090565b600080fd5b600080fd5b60007fffffffff0000000000000000000000000000000000000000000000000000000082169050919050565b612c1781612be2565b8114612c2257600080fd5b50565b600081359050612c3481612c0e565b92915050565b600060208284031215612c5057612c4f612bd8565b5b6000612c5e84828501612c25565b91505092915050565b60008115159050919050565b612c7c81612c67565b82525050565b6000602082019050612c976000830184612c73565b92915050565b600081519050919050565b600082825260208201905092915050565b60005b83811015612cd7578082015181840152602081019050612cbc565b83811115612ce6576000848401525b50505050565b6000601f19601f8301169050919050565b6000612d0882612c9d565b612d128185612ca8565b9350612d22818560208601612cb9565b612d2b81612cec565b840191505092915050565b6000819050919050565b612d4981612d36565b82525050565b600060a0830160008301518482036000860152612d6c8282612cfd565b91505060208301518482036020860152612d868282612cfd565b9150506040830151612d9b6040860182612d40565b506060830151612dae6060860182612d40565b506080830151612dc16080860182612d40565b508091505092915050565b60006020820190508181036000830152612de68184612d4f565b905092915050565b600082825260208201905092915050565b6000612e0a82612c9d565b612e148185612dee565b9350612e24818560208601612cb9565b612e2d81612cec565b840191505092915050565b60006020820190508181036000830152612e528184612dff565b905092915050565b612e6381612d36565b8114612e6e57600080fd5b50565b600081359050612e8081612e5a565b92915050565b600060208284031215612e9c57612e9b612bd8565b5b6000612eaa84828501612e71565b91505092915050565b600073ffffffffffffffffffffffffffffffffffffffff82169050919050565b6000612ede82612eb3565b9050919050565b612eee81612ed3565b82525050565b6000602082019050612f096000830184612ee5565b92915050565b612f1881612ed3565b8114612f2357600080fd5b50565b600081359050612f3581612f0f565b92915050565b60008060408385031215612f5257612f51612bd8565b5b6000612f6085828601612f26565b9250506020612f7185828601612e71565b9150509250929050565b600080600060608486031215612f9457612f93612bd8565b5b6000612fa286828701612f26565b9350506020612fb386828701612f26565b9250506040612fc486828701612e71565b9150509250925092565b600080fd5b600080fd5b7f4e487b7100000000000000000000000000000000000000000000000000000000600052604160045260246000fd5b61301082612cec565b810181811067ffffffffffffffff8211171561302f5761302e612fd8565b5b80604052505050565b6000613042612bce565b905061304e8282613007565b919050565b600067ffffffffffffffff82111561306e5761306d612fd8565b5b61307782612cec565b9050602081019050919050565b82818337600083830152505050565b60006130a66130a184613053565b613038565b9050828152602081018484840111156130c2576130c1612fd3565b5b6130cd848285613084565b509392505050565b600082601f8301126130ea576130e9612fce565b5b81356130fa848260208601613093565b91505092915050565b60008060008060008060c087890312156131205761311f612bd8565b5b600061312e89828a01612e71565b965050602087013567ffffffffffffffff81111561314f5761314e612bdd565b5b61315b89828a016130d5565b955050604087013567ffffffffffffffff81111561317c5761317b612bdd565b5b61318889828a016130d5565b945050606061319989828a01612e71565b93505060806131aa89828a01612e71565b92505060a06131bb89828a01612e71565b9150509295509295509295565b6131d181612d36565b82525050565b60006020820190506131ec60008301846131c8565b92915050565b60006020828403121561320857613207612bd8565b5b600061321684828501612f26565b91505092915050565b600060c08201905061323460008301896131c8565b81810360208301526132468188612dff565b9050818103604083015261325a8187612dff565b905061326960608301866131c8565b61327660808301856131c8565b61328360a08301846131c8565b979650505050505050565b61329781612c67565b81146132a257600080fd5b50565b6000813590506132b48161328e565b92915050565b600080604083850312156132d1576132d0612bd8565b5b60006132df85828601612f26565b92505060206132f0858286016132a5565b9150509250929050565b600060a08201905081810360008301526133148188612dff565b905081810360208301526133288187612dff565b905061333760408301866131c8565b61334460608301856131c8565b61335160808301846131c8565b9695505050505050565b600067ffffffffffffffff82111561337657613375612fd8565b5b61337f82612cec565b9050602081019050919050565b600061339f61339a8461335b565b613038565b9050828152602081018484840111156133bb576133ba612fd3565b5b6133c6848285613084565b509392505050565b600082601f8301126133e3576133e2612fce565b5b81356133f384826020860161338c565b91505092915050565b6000806000806080858703121561341657613415612bd8565b5b600061342487828801612f26565b945050602061343587828801612f26565b935050604061344687828801612e71565b925050606085013567ffffffffffffffff81111561346757613466612bdd565b5b613473878288016133ce565b91505092959194509250565b600081519050919050565b600082825260208201905092915050565b6000819050602082019050919050565b600060c0830160008301516134c36000860182612d40565b50602083015184820360208601526134db8282612cfd565b915050604083015184820360408601526134f58282612cfd565b915050606083015161350a6060860182612d40565b50608083015161351d6080860182612d40565b5060a083015161353060a0860182612d40565b508091505092915050565b600061354783836134ab565b905092915050565b6000602082019050919050565b60006135678261347f565b613571818561348a565b9350836020820285016135838561349b565b8060005b858110156135bf57848403895281516135a0858261353b565b94506135ab8361354f565b925060208a01995050600181019050613587565b50829750879550505050505092915050565b600060208201905081810360008301526135eb818461355c565b905092915050565b600060c08301600083015161360b6000860182612d40565b50602083015184820360208601526136238282612cfd565b9150506040830151848203604086015261363d8282612cfd565b91505060608301516136526060860182612d40565b5060808301516136656080860182612d40565b5060a083015161367860a0860182612d40565b508091505092915050565b6000602082019050818103600083015261369d81846135f3565b905092915050565b60006060820190506136ba6000830186612ee5565b6136c760208301856131c8565b6136d460408301846131c8565b949350505050565b600080604083850312156136f3576136f2612bd8565b5b600061370185828601612f26565b925050602061371285828601612f26565b9150509250929050565b7f4e487b7100000000000000000000000000000000000000000000000000000000600052602260045260246000fd5b6000600282049050600182168061376357607f821691505b602082108114156137775761377661371c565b5b50919050565b7f4552433732313a20617070726f76656420717565727920666f72206e6f6e657860008201527f697374656e7420746f6b656e0000000000000000000000000000000000000000602082015250565b60006137d9602c83612dee565b91506137e48261377d565b604082019050919050565b60006020820190508181036000830152613808816137cc565b9050919050565b7f4552433732313a20617070726f76616c20746f2063757272656e74206f776e6560008201527f7200000000000000000000000000000000000000000000000000000000000000602082015250565b600061386b602183612dee565b91506138768261380f565b604082019050919050565b6000602082019050818103600083015261389a8161385e565b9050919050565b7f4552433732313a20617070726f76652063616c6c6572206973206e6f74206f7760008201527f6e6572206e6f7220617070726f76656420666f7220616c6c0000000000000000602082015250565b60006138fd603883612dee565b9150613908826138a1565b604082019050919050565b6000602082019050818103600083015261392c816138f0565b9050919050565b7f4552433732313a207472616e736665722063616c6c6572206973206e6f74206f60008201527f776e6572206e6f7220617070726f766564000000000000000000000000000000602082015250565b600061398f603183612dee565b915061399a82613933565b604082019050919050565b600060208201905081810360008301526139be81613982565b9050919050565b7f4552433732313a206f776e657220717565727920666f72206e6f6e657869737460008201527f656e7420746f6b656e0000000000000000000000000000000000000000000000602082015250565b6000613a21602983612dee565b9150613a2c826139c5565b604082019050919050565b60006020820190508181036000830152613a5081613a14565b9050919050565b7f4552433732313a2062616c616e636520717565727920666f7220746865207a6560008201527f726f206164647265737300000000000000000000000000000000000000000000602082015250565b6000613ab3602a83612dee565b9150613abe82613a57565b604082019050919050565b60006020820190508181036000830152613ae281613aa6565b9050919050565b600081905092915050565b7f7b226e616d65223a202200000000000000000000000000000000000000000000600082015250565b6000613b2a600a83613ae9565b9150613b3582613af4565b600a82019050919050565b6000613b4b82612c9d565b613b558185613ae9565b9350613b65818560208601612cb9565b80840191505092915050565b7f202d2d204e465420233a20000000000000000000000000000000000000000000600082015250565b6000613ba7600b83613ae9565b9150613bb282613b71565b600b82019050919050565b7f222c20226465736372697074696f6e223a2022416e2065706963204e4654222c60008201527f2022696d616765223a2022697066733a2f2f0000000000000000000000000000602082015250565b6000613c19603283613ae9565b9150613c2482613bbd565b603282019050919050565b7f222c202261747472696275746573223a205b207b202274726169745f7479706560008201527f223a20224865616c746820506f696e7473222c202276616c7565223a20000000602082015250565b6000613c8b603d83613ae9565b9150613c9682613c2f565b603d82019050919050565b7f2c20226d61785f76616c7565223a000000000000000000000000000000000000600082015250565b6000613cd7600e83613ae9565b9150613ce282613ca1565b600e82019050919050565b7f7d2c207b202274726169745f74797065223a202241747461636b2044616d616760008201527f65222c202276616c7565223a2000000000000000000000000000000000000000602082015250565b6000613d49602d83613ae9565b9150613d5482613ced565b602d82019050919050565b7f7d205d7d00000000000000000000000000000000000000000000000000000000600082015250565b6000613d95600483613ae9565b9150613da082613d5f565b600482019050919050565b6000613db682613b1d565b9150613dc28289613b40565b9150613dcd82613b9a565b9150613dd98288613b40565b9150613de482613c0c565b9150613df08287613b40565b9150613dfb82613c7e565b9150613e078286613b40565b9150613e1282613cca565b9150613e1e8285613b40565b9150613e2982613d3c565b9150613e358284613b40565b9150613e4082613d88565b9150819050979650505050505050565b7f646174613a6170706c69636174696f6e2f6a736f6e3b6261736536342c000000600082015250565b6000613e86601d83613ae9565b9150613e9182613e50565b601d82019050919050565b6000613ea782613e79565b9150613eb38284613b40565b915081905092915050565b7f4572726f723a20636861726163746572206d757374206861766520485020746f60008201527f2061747461636b20626f73732e00000000000000000000000000000000000000602082015250565b6000613f1a602d83612dee565b9150613f2582613ebe565b604082019050919050565b60006020820190508181036000830152613f4981613f0d565b9050919050565b7f4572726f723a20626f7373206d757374206861766520485020746f206174746160008201527f636b20626f73732e000000000000000000000000000000000000000000000000602082015250565b6000613fac602883612dee565b9150613fb782613f50565b604082019050919050565b60006020820190508181036000830152613fdb81613f9f565b9050919050565b7f4e487b7100000000000000000000000000000000000000000000000000000000600052601160045260246000fd5b600061401c82612d36565b915061402783612d36565b92508282101561403a57614039613fe2565b5b828203905092915050565b6000608082019050818103600083015261405f8187612dff565b905081810360208301526140738186612dff565b905061408260408301856131c8565b81810360608301526140948184612dff565b905095945050505050565b7f4552433732313a206f70657261746f7220717565727920666f72206e6f6e657860008201527f697374656e7420746f6b656e0000000000000000000000000000000000000000602082015250565b60006140fb602c83612dee565b91506141068261409f565b604082019050919050565b6000602082019050818103600083015261412a816140ee565b9050919050565b7f4552433732313a207472616e736665722066726f6d20696e636f72726563742060008201527f6f776e6572000000000000000000000000000000000000000000000000000000602082015250565b600061418d602583612dee565b915061419882614131565b604082019050919050565b600060208201905081810360008301526141bc81614180565b9050919050565b7f4552433732313a207472616e7366657220746f20746865207a65726f2061646460008201527f7265737300000000000000000000000000000000000000000000000000000000602082015250565b600061421f602483612dee565b915061422a826141c3565b604082019050919050565b6000602082019050818103600083015261424e81614212565b9050919050565b600061426082612d36565b915061426b83612d36565b9250827fffffffffffffffffffffffffffffffffffffffffffffffffffffffffffffffff038211156142a05761429f613fe2565b5b828201905092915050565b600060608201905081810360008301526142c58186612dff565b90506142d460208301856131c8565b6142e160408301846131c8565b949350505050565b7f4552433732313a20617070726f766520746f2063616c6c657200000000000000600082015250565b600061431f601983612dee565b915061432a826142e9565b602082019050919050565b6000602082019050818103600083015261434e81614312565b9050919050565b7f4552433732313a207472616e7366657220746f206e6f6e20455243373231526560008201527f63656976657220696d706c656d656e7465720000000000000000000000000000602082015250565b60006143b1603283612dee565b91506143bc82614355565b604082019050919050565b600060208201905081810360008301526143e0816143a4565b9050919050565b60006143f282612d36565b91507fffffffffffffffffffffffffffffffffffffffffffffffffffffffffffffffff82141561442557614424613fe2565b5b600182019050919050565b7f4e487b7100000000000000000000000000000000000000000000000000000000600052601260045260246000fd5b600061446a82612d36565b915061447583612d36565b92508261448557614484614430565b5b828204905092915050565b600061449b82612d36565b91506144a683612d36565b9250826144b6576144b5614430565b5b828206905092915050565b7f4e487b7100000000000000000000000000000000000000000000000000000000600052603260045260246000fd5b60006144fb82612d36565b915061450683612d36565b9250817fffffffffffffffffffffffffffffffffffffffffffffffffffffffffffffffff048311821515161561453f5761453e613fe2565b5b828202905092915050565b600060808201905081810360008301526145648187612dff565b905081810360208301526145788186612dff565b905061458760408301856131c8565b61459460608301846131c8565b95945050505050565b600060408201905081810360008301526145b78185612dff565b90506145c660208301846131c8565b9392505050565b600081519050919050565b600082825260208201905092915050565b60006145f4826145cd565b6145fe81856145d8565b935061460e818560208601612cb9565b61461781612cec565b840191505092915050565b60006080820190506146376000830187612ee5565b6146446020830186612ee5565b61465160408301856131c8565b818103606083015261466381846145e9565b905095945050505050565b60008151905061467d81612c0e565b92915050565b60006020828403121561469957614698612bd8565b5b60006146a78482850161466e565b91505092915050565b7f4552433732313a206d696e7420746f20746865207a65726f2061646472657373600082015250565b60006146e6602083612dee565b91506146f1826146b0565b602082019050919050565b60006020820190508181036000830152614715816146d9565b9050919050565b7f4552433732313a20746f6b656e20616c7265616479206d696e74656400000000600082015250565b6000614752601c83612dee565b915061475d8261471c565b602082019050919050565b6000602082019050818103600083015261478181614745565b905091905056fe506c617965722061747461636b656420626f73732e204e657720626f73732068703a2025734142434445464748494a4b4c4d4e4f505152535455565758595a6162636465666768696a6b6c6d6e6f707172737475767778797a303132333435363738392b2f426f73732061747461636b656420706c617965722e204e657720706c617965722068703a2025730a4d696e746564204e465420772f20746f6b656e496420257320616e6420636861726163746572496e6465782025730a506c6179657220772f206368617261637465722025732061626f757420746f2061747461636b2e2048617320257320485020616e64202573204144a26469706673582212207f7a964a3103956b041411f4180a0fce83b44390dc62bde8842f71faa62f2e0864736f6c634300080a0033446f6e6520696e697469616c697a696e6720257320772f2048502025732c20696d67202573446f6e6520696e697469616c697a696e6720626f737320257320772f2048502025732c20696d67202573",
  "linkReferences": {},
  "deployedLinkReferences": {}
}