{
  "_format": "hh-sol-artifact-1",
  "contractName": "NexoStudio",
  "sourceName": "contracts/NexoStudio.sol",
  "abi": [
    {
      "inputs": [],
      "stateMutability": "nonpayable",
      "type": "constructor"
    },
    {
      "anonymous": false,
      "inputs": [
        {
          "indexed": true,
          "internalType": "address",
          "name": "owner",
          "type": "address"
        },
        {
          "indexed": true,
          "internalType": "address",
          "name": "approved",
          "type": "address"
        },
        {
          "indexed": true,
          "internalType": "uint256",
          "name": "tokenId",
          "type": "uint256"
        }
      ],
      "name": "Approval",
      "type": "event"
    },
    {
      "anonymous": false,
      "inputs": [
        {
          "indexed": true,
          "internalType": "address",
          "name": "owner",
          "type": "address"
        },
        {
          "indexed": true,
          "internalType": "address",
          "name": "operator",
          "type": "address"
        },
        {
          "indexed": false,
          "internalType": "bool",
          "name": "approved",
          "type": "bool"
        }
      ],
      "name": "ApprovalForAll",
      "type": "event"
    },
    {
      "anonymous": false,
      "inputs": [
        {
          "indexed": true,
          "internalType": "address",
          "name": "previousOwner",
          "type": "address"
        },
        {
          "indexed": true,
          "internalType": "address",
          "name": "newOwner",
          "type": "address"
        }
      ],
      "name": "OwnershipTransferred",
      "type": "event"
    },
    {
      "anonymous": false,
      "inputs": [
        {
          "indexed": true,
          "internalType": "address",
          "name": "from",
          "type": "address"
        },
        {
          "indexed": true,
          "internalType": "address",
          "name": "to",
          "type": "address"
        },
        {
          "indexed": true,
          "internalType": "uint256",
          "name": "tokenId",
          "type": "uint256"
        }
      ],
      "name": "Transfer",
      "type": "event"
    },
    {
      "inputs": [
        {
          "internalType": "address",
          "name": "to",
          "type": "address"
        },
        {
          "internalType": "uint256",
          "name": "tokenId",
          "type": "uint256"
        }
      ],
      "name": "approve",
      "outputs": [],
      "stateMutability": "nonpayable",
      "type": "function"
    },
    {
      "inputs": [
        {
          "internalType": "address",
          "name": "owner",
          "type": "address"
        }
      ],
      "name": "balanceOf",
      "outputs": [
        {
          "internalType": "uint256",
          "name": "",
          "type": "uint256"
        }
      ],
      "stateMutability": "view",
      "type": "function"
    },
    {
      "inputs": [
        {
          "internalType": "string",
          "name": "uri",
          "type": "string"
        },
        {
          "internalType": "uint256",
          "name": "eventIndex",
          "type": "uint256"
        },
        {
          "internalType": "uint256",
          "name": "quantity",
          "type": "uint256"
        }
      ],
      "name": "buyTicket",
      "outputs": [],
      "stateMutability": "payable",
      "type": "function"
    },
    {
      "inputs": [
        {
          "internalType": "string",
          "name": "title",
          "type": "string"
        },
        {
          "internalType": "string",
          "name": "image",
          "type": "string"
        },
        {
          "internalType": "string",
          "name": "description",
          "type": "string"
        },
        {
          "internalType": "uint256",
          "name": "price",
          "type": "uint256"
        },
        {
          "internalType": "uint256",
          "name": "quantity",
          "type": "uint256"
        }
      ],
      "name": "createEvent",
      "outputs": [],
      "stateMutability": "nonpayable",
      "type": "function"
    },
    {
      "inputs": [
        {
          "internalType": "uint256",
          "name": "tokenId",
          "type": "uint256"
        }
      ],
      "name": "getApproved",
      "outputs": [
        {
          "internalType": "address",
          "name": "",
          "type": "address"
        }
      ],
      "stateMutability": "view",
      "type": "function"
    },
    {
      "inputs": [
        {
          "internalType": "uint256",
          "name": "index",
          "type": "uint256"
        }
      ],
      "name": "getEvent",
      "outputs": [
        {
          "components": [
            {
              "internalType": "string",
              "name": "title",
              "type": "string"
            },
            {
              "internalType": "string",
              "name": "image",
              "type": "string"
            },
            {
              "internalType": "string",
              "name": "description",
              "type": "string"
            },
            {
              "internalType": "address payable",
              "name": "owner",
              "type": "address"
            },
            {
              "internalType": "uint256",
              "name": "price",
              "type": "uint256"
            },
            {
              "internalType": "uint256",
              "name": "quantity",
              "type": "uint256"
            }
          ],
          "internalType": "struct NexoStudio.EventStudio",
          "name": "",
          "type": "tuple"
        }
      ],
      "stateMutability": "view",
      "type": "function"
    },
    {
      "inputs": [],
      "name": "getEventLength",
      "outputs": [
        {
          "internalType": "uint256",
          "name": "",
          "type": "uint256"
        }
      ],
      "stateMutability": "view",
      "type": "function"
    },
    {
      "inputs": [],
      "name": "getOwners",
      "outputs": [
        {
          "internalType": "uint256",
          "name": "",
          "type": "uint256"
        }
      ],
      "stateMutability": "view",
      "type": "function"
    },
    {
      "inputs": [
        {
          "internalType": "uint256",
          "name": "tokenId",
          "type": "uint256"
        }
      ],
      "name": "getTicket",
      "outputs": [
        {
          "components": [
            {
              "internalType": "uint256",
              "name": "tokenId",
              "type": "uint256"
            },
            {
              "internalType": "uint256",
              "name": "eventIndex",
              "type": "uint256"
            },
            {
              "internalType": "address payable",
              "name": "owner",
              "type": "address"
            },
            {
              "internalType": "uint256",
              "name": "quantity",
              "type": "uint256"
            }
          ],
          "internalType": "struct NexoStudio.Ticket",
          "name": "",
          "type": "tuple"
        }
      ],
      "stateMutability": "view",
      "type": "function"
    },
    {
      "inputs": [],
      "name": "getTicketLength",
      "outputs": [
        {
          "internalType": "uint256",
          "name": "",
          "type": "uint256"
        }
      ],
      "stateMutability": "view",
      "type": "function"
    },
    {
      "inputs": [
        {
          "internalType": "address",
          "name": "owner",
          "type": "address"
        },
        {
          "internalType": "address",
          "name": "operator",
          "type": "address"
        }
      ],
      "name": "isApprovedForAll",
      "outputs": [
        {
          "internalType": "bool",
          "name": "",
          "type": "bool"
        }
      ],
      "stateMutability": "view",
      "type": "function"
    },
    {
      "inputs": [],
      "name": "name",
      "outputs": [
        {
          "internalType": "string",
          "name": "",
          "type": "string"
        }
      ],
      "stateMutability": "view",
      "type": "function"
    },
    {
      "inputs": [],
      "name": "owner",
      "outputs": [
        {
          "internalType": "address",
          "name": "",
          "type": "address"
        }
      ],
      "stateMutability": "view",
      "type": "function"
    },
    {
      "inputs": [
        {
          "internalType": "uint256",
          "name": "tokenId",
          "type": "uint256"
        }
      ],
      "name": "ownerOf",
      "outputs": [
        {
          "internalType": "address",
          "name": "",
          "type": "address"
        }
      ],
      "stateMutability": "view",
      "type": "function"
    },
    {
      "inputs": [],
      "name": "renounceOwnership",
      "outputs": [],
      "stateMutability": "nonpayable",
      "type": "function"
    },
    {
      "inputs": [
        {
          "internalType": "string",
          "name": "uri",
          "type": "string"
        },
        {
          "internalType": "uint256",
          "name": "eventIndex",
          "type": "uint256"
        },
        {
          "internalType": "uint256",
          "name": "quantity",
          "type": "uint256"
        }
      ],
      "name": "safeMint",
      "outputs": [
        {
          "internalType": "uint256",
          "name": "",
          "type": "uint256"
        }
      ],
      "stateMutability": "payable",
      "type": "function"
    },
    {
      "inputs": [
        {
          "internalType": "address",
          "name": "from",
          "type": "address"
        },
        {
          "internalType": "address",
          "name": "to",
          "type": "address"
        },
        {
          "internalType": "uint256",
          "name": "tokenId",
          "type": "uint256"
        }
      ],
      "name": "safeTransferFrom",
      "outputs": [],
      "stateMutability": "nonpayable",
      "type": "function"
    },
    {
      "inputs": [
        {
          "internalType": "address",
          "name": "from",
          "type": "address"
        },
        {
          "internalType": "address",
          "name": "to",
          "type": "address"
        },
        {
          "internalType": "uint256",
          "name": "tokenId",
          "type": "uint256"
        },
        {
          "internalType": "bytes",
          "name": "_data",
          "type": "bytes"
        }
      ],
      "name": "safeTransferFrom",
      "outputs": [],
      "stateMutability": "nonpayable",
      "type": "function"
    },
    {
      "inputs": [
        {
          "internalType": "address",
          "name": "operator",
          "type": "address"
        },
        {
          "internalType": "bool",
          "name": "approved",
          "type": "bool"
        }
      ],
      "name": "setApprovalForAll",
      "outputs": [],
      "stateMutability": "nonpayable",
      "type": "function"
    },
    {
      "inputs": [
        {
          "internalType": "bytes4",
          "name": "interfaceId",
          "type": "bytes4"
        }
      ],
      "name": "supportsInterface",
      "outputs": [
        {
          "internalType": "bool",
          "name": "",
          "type": "bool"
        }
      ],
      "stateMutability": "view",
      "type": "function"
    },
    {
      "inputs": [],
      "name": "symbol",
      "outputs": [
        {
          "internalType": "string",
          "name": "",
          "type": "string"
        }
      ],
      "stateMutability": "view",
      "type": "function"
    },
    {
      "inputs": [
        {
          "internalType": "uint256",
          "name": "index",
          "type": "uint256"
        }
      ],
      "name": "tokenByIndex",
      "outputs": [
        {
          "internalType": "uint256",
          "name": "",
          "type": "uint256"
        }
      ],
      "stateMutability": "view",
      "type": "function"
    },
    {
      "inputs": [
        {
          "internalType": "address",
          "name": "owner",
          "type": "address"
        },
        {
          "internalType": "uint256",
          "name": "index",
          "type": "uint256"
        }
      ],
      "name": "tokenOfOwnerByIndex",
      "outputs": [
        {
          "internalType": "uint256",
          "name": "",
          "type": "uint256"
        }
      ],
      "stateMutability": "view",
      "type": "function"
    },
    {
      "inputs": [
        {
          "internalType": "uint256",
          "name": "tokenId",
          "type": "uint256"
        }
      ],
      "name": "tokenURI",
      "outputs": [
        {
          "internalType": "string",
          "name": "",
          "type": "string"
        }
      ],
      "stateMutability": "view",
      "type": "function"
    },
    {
      "inputs": [],
      "name": "totalSupply",
      "outputs": [
        {
          "internalType": "uint256",
          "name": "",
          "type": "uint256"
        }
      ],
      "stateMutability": "view",
      "type": "function"
    },
    {
      "inputs": [
        {
          "internalType": "address",
          "name": "from",
          "type": "address"
        },
        {
          "internalType": "address",
          "name": "to",
          "type": "address"
        },
        {
          "internalType": "uint256",
          "name": "tokenId",
          "type": "uint256"
        }
      ],
      "name": "transferFrom",
      "outputs": [],
      "stateMutability": "nonpayable",
      "type": "function"
    },
    {
      "inputs": [
        {
          "internalType": "address",
          "name": "newOwner",
          "type": "address"
        }
      ],
      "name": "transferOwnership",
      "outputs": [],
      "stateMutability": "nonpayable",
      "type": "function"
    }
  ],
  "bytecode": "0x60806040526000600d556000600e553480156200001b57600080fd5b506040518060400160405280600a81526020017f4e65786f53747564696f000000000000000000000000000000000000000000008152506040518060400160405280600481526020017f4e585354000000000000000000000000000000000000000000000000000000008152508160009080519060200190620000a0929190620001b0565b508060019080519060200190620000b9929190620001b0565b505050620000dc620000d0620000e260201b60201c565b620000ea60201b60201c565b620002c5565b600033905090565b6000600b60009054906101000a900473ffffffffffffffffffffffffffffffffffffffff16905081600b60006101000a81548173ffffffffffffffffffffffffffffffffffffffff021916908373ffffffffffffffffffffffffffffffffffffffff1602179055508173ffffffffffffffffffffffffffffffffffffffff168173ffffffffffffffffffffffffffffffffffffffff167f8be0079c531659141344cd1fd0a4f28419497f9722a3daafe3b4186f6b6457e060405160405180910390a35050565b828054620001be906200028f565b90600052602060002090601f016020900481019282620001e257600085556200022e565b82601f10620001fd57805160ff19168380011785556200022e565b828001600101855582156200022e579182015b828111156200022d57825182559160200191906001019062000210565b5b5090506200023d919062000241565b5090565b5b808211156200025c57600081600090555060010162000242565b5090565b7f4e487b7100000000000000000000000000000000000000000000000000000000600052602260045260246000fd5b60006002820490506001821680620002a857607f821691505b60208210811415620002bf57620002be62000260565b5b50919050565b6144d380620002d56000396000f3fe60806040526004361061019c5760003560e01c80636e1f94e1116100ec578063a22cb4651161008a578063e985e9c511610064578063e985e9c5146105f8578063f2fde38b14610635578063f5f00d841461065e578063f918c781146106875761019c565b8063a22cb46514610569578063b88d4fde14610592578063c87b56dd146105bb5761019c565b80637dc379fa116100c65780637dc379fa146104ab5780638da5cb5b146104e857806395d89b4114610513578063a0e67e2b1461053e5761019c565b80636e1f94e11461042757806370a0823114610457578063715018a6146104945761019c565b806323b872dd116101595780634f6ccce7116101335780634f6ccce7146103455780635c98dfa1146103825780636352211e146103ad5780636d1884e0146103ea5761019c565b806323b872dd146102b65780632f745c59146102df57806342842e0e1461031c5761019c565b806301ffc9a7146101a157806306fdde03146101de578063081812fc14610209578063095ea7b3146102465780631443d3ec1461026f57806318160ddd1461028b575b600080fd5b3480156101ad57600080fd5b506101c860048036038101906101c39190612c41565b6106b2565b6040516101d59190612c89565b60405180910390f35b3480156101ea57600080fd5b506101f36106c4565b6040516102009190612d3d565b60405180910390f35b34801561021557600080fd5b50610230600480360381019061022b9190612d95565b610756565b60405161023d9190612e03565b60405180910390f35b34801561025257600080fd5b5061026d60048036038101906102689190612e4a565b6107db565b005b61028960048036038101906102849190612fbf565b6108f3565b005b34801561029757600080fd5b506102a0610a3b565b6040516102ad919061303d565b60405180910390f35b3480156102c257600080fd5b506102dd60048036038101906102d89190613058565b610a48565b005b3480156102eb57600080fd5b5061030660048036038101906103019190612e4a565b610aa8565b604051610313919061303d565b60405180910390f35b34801561032857600080fd5b50610343600480360381019061033e9190613058565b610b4d565b005b34801561035157600080fd5b5061036c60048036038101906103679190612d95565b610b6d565b604051610379919061303d565b60405180910390f35b34801561038e57600080fd5b50610397610bde565b6040516103a4919061303d565b60405180910390f35b3480156103b957600080fd5b506103d460048036038101906103cf9190612d95565b610be8565b6040516103e19190612e03565b60405180910390f35b3480156103f657600080fd5b50610411600480360381019061040c9190612d95565b610c9a565b60405161041e91906131bc565b60405180910390f35b610441600480360381019061043c9190612fbf565b610ee7565b60405161044e919061303d565b60405180910390f35b34801561046357600080fd5b5061047e600480360381019061047991906131de565b610f6e565b60405161048b919061303d565b60405180910390f35b3480156104a057600080fd5b506104a9611026565b005b3480156104b757600080fd5b506104d260048036038101906104cd9190612d95565b6110ae565b6040516104df9190613260565b60405180910390f35b3480156104f457600080fd5b506104fd61114f565b60405161050a9190612e03565b60405180910390f35b34801561051f57600080fd5b50610528611179565b6040516105359190612d3d565b60405180910390f35b34801561054a57600080fd5b5061055361120b565b604051610560919061303d565b60405180910390f35b34801561057557600080fd5b50610590600480360381019061058b91906132a7565b611215565b005b34801561059e57600080fd5b506105b960048036038101906105b49190613388565b61122b565b005b3480156105c757600080fd5b506105e260048036038101906105dd9190612d95565b61128d565b6040516105ef9190612d3d565b60405180910390f35b34801561060457600080fd5b5061061f600480360381019061061a919061340b565b61129f565b60405161062c9190612c89565b60405180910390f35b34801561064157600080fd5b5061065c600480360381019061065791906131de565b611333565b005b34801561066a57600080fd5b506106856004803603810190610680919061344b565b61142b565b005b34801561069357600080fd5b5061069c611557565b6040516106a9919061303d565b60405180910390f35b60006106bd82611568565b9050919050565b6060600080546106d390613549565b80601f01602080910402602001604051908101604052809291908181526020018280546106ff90613549565b801561074c5780601f106107215761010080835404028352916020019161074c565b820191906000526020600020905b81548152906001019060200180831161072f57829003601f168201915b5050505050905090565b6000610761826115e2565b6107a0576040517f08c379a0000000000000000000000000000000000000000000000000000000008152600401610797906135ed565b60405180910390fd5b6004600083815260200190815260200160002060009054906101000a900473ffffffffffffffffffffffffffffffffffffffff169050919050565b60006107e682610be8565b90508073ffffffffffffffffffffffffffffffffffffffff168373ffffffffffffffffffffffffffffffffffffffff161415610857576040517f08c379a000000000000000000000000000000000000000000000000000000000815260040161084e9061367f565b60405180910390fd5b8073ffffffffffffffffffffffffffffffffffffffff1661087661164e565b73ffffffffffffffffffffffffffffffffffffffff1614806108a557506108a48161089f61164e565b61129f565b5b6108e4576040517f08c379a00000000000000000000000000000000000000000000000000000000081526004016108db90613711565b60405180910390fd5b6108ee8383611656565b505050565b6000600f600084815260200190815260200160002060030160009054906101000a900473ffffffffffffffffffffffffffffffffffffffff1690506000600f6000858152602001908152602001600020600501549050600034905060008373ffffffffffffffffffffffffffffffffffffffff168260405161097490613762565b60006040518083038185875af1925050503d80600081146109b1576040519150601f19603f3d011682016040523d82523d6000602084013e6109b6565b606091505b50509050806109fa576040517f08c379a00000000000000000000000000000000000000000000000000000000081526004016109f1906137c3565b60405180910390fd5b60008584610a089190613812565b905080600f600089815260200190815260200160002060050181905550610a30888888610ee7565b505050505050505050565b6000600880549050905090565b610a59610a5361164e565b8261170f565b610a98576040517f08c379a0000000000000000000000000000000000000000000000000000000008152600401610a8f906138b8565b60405180910390fd5b610aa38383836117ed565b505050565b6000610ab383610f6e565b8210610af4576040517f08c379a0000000000000000000000000000000000000000000000000000000008152600401610aeb9061394a565b60405180910390fd5b600660008473ffffffffffffffffffffffffffffffffffffffff1673ffffffffffffffffffffffffffffffffffffffff168152602001908152602001600020600083815260200190815260200160002054905092915050565b610b688383836040518060200160405280600081525061122b565b505050565b6000610b77610a3b565b8210610bb8576040517f08c379a0000000000000000000000000000000000000000000000000000000008152600401610baf906139dc565b60405180910390fd5b60088281548110610bcc57610bcb6139fc565b5b90600052602060002001549050919050565b6000600d54905090565b6000806002600084815260200190815260200160002060009054906101000a900473ffffffffffffffffffffffffffffffffffffffff169050600073ffffffffffffffffffffffffffffffffffffffff168173ffffffffffffffffffffffffffffffffffffffff161415610c91576040517f08c379a0000000000000000000000000000000000000000000000000000000008152600401610c8890613a9d565b60405180910390fd5b80915050919050565b610ca2612aa8565b600f60008381526020019081526020016000206040518060c0016040529081600082018054610cd090613549565b80601f0160208091040260200160405190810160405280929190818152602001828054610cfc90613549565b8015610d495780601f10610d1e57610100808354040283529160200191610d49565b820191906000526020600020905b815481529060010190602001808311610d2c57829003601f168201915b50505050508152602001600182018054610d6290613549565b80601f0160208091040260200160405190810160405280929190818152602001828054610d8e90613549565b8015610ddb5780601f10610db057610100808354040283529160200191610ddb565b820191906000526020600020905b815481529060010190602001808311610dbe57829003601f168201915b50505050508152602001600282018054610df490613549565b80601f0160208091040260200160405190810160405280929190818152602001828054610e2090613549565b8015610e6d5780601f10610e4257610100808354040283529160200191610e6d565b820191906000526020600020905b815481529060010190602001808311610e5057829003601f168201915b505050505081526020016003820160009054906101000a900473ffffffffffffffffffffffffffffffffffffffff1673ffffffffffffffffffffffffffffffffffffffff1673ffffffffffffffffffffffffffffffffffffffff168152602001600482015481526020016005820154815250509050919050565b600080845111610f2c576040517f08c379a0000000000000000000000000000000000000000000000000000000008152600401610f2390613b09565b60405180910390fd5b6000610f38600c611a54565b9050610f44600c611a62565b610f4e3382611a78565b610f588186611c52565b610f63818585611cc6565b809150509392505050565b60008073ffffffffffffffffffffffffffffffffffffffff168273ffffffffffffffffffffffffffffffffffffffff161415610fdf576040517f08c379a0000000000000000000000000000000000000000000000000000000008152600401610fd690613b9b565b60405180910390fd5b600360008373ffffffffffffffffffffffffffffffffffffffff1673ffffffffffffffffffffffffffffffffffffffff168152602001908152602001600020549050919050565b61102e61164e565b73ffffffffffffffffffffffffffffffffffffffff1661104c61114f565b73ffffffffffffffffffffffffffffffffffffffff16146110a2576040517f08c379a000000000000000000000000000000000000000000000000000000000815260040161109990613c07565b60405180910390fd5b6110ac6000611d7d565b565b6110b6612af4565b6010600083815260200190815260200160002060405180608001604052908160008201548152602001600182015481526020016002820160009054906101000a900473ffffffffffffffffffffffffffffffffffffffff1673ffffffffffffffffffffffffffffffffffffffff1673ffffffffffffffffffffffffffffffffffffffff1681526020016003820154815250509050919050565b6000600b60009054906101000a900473ffffffffffffffffffffffffffffffffffffffff16905090565b60606001805461118890613549565b80601f01602080910402602001604051908101604052809291908181526020018280546111b490613549565b80156112015780601f106111d657610100808354040283529160200191611201565b820191906000526020600020905b8154815290600101906020018083116111e457829003601f168201915b5050505050905090565b6000600e54905090565b61122761122061164e565b8383611e43565b5050565b61123c61123661164e565b8361170f565b61127b576040517f08c379a0000000000000000000000000000000000000000000000000000000008152600401611272906138b8565b60405180910390fd5b61128784848484611fb0565b50505050565b60606112988261200c565b9050919050565b6000600560008473ffffffffffffffffffffffffffffffffffffffff1673ffffffffffffffffffffffffffffffffffffffff16815260200190815260200160002060008373ffffffffffffffffffffffffffffffffffffffff1673ffffffffffffffffffffffffffffffffffffffff16815260200190815260200160002060009054906101000a900460ff16905092915050565b61133b61164e565b73ffffffffffffffffffffffffffffffffffffffff1661135961114f565b73ffffffffffffffffffffffffffffffffffffffff16146113af576040517f08c379a00000000000000000000000000000000000000000000000000000000081526004016113a690613c07565b60405180910390fd5b600073ffffffffffffffffffffffffffffffffffffffff168173ffffffffffffffffffffffffffffffffffffffff16141561141f576040517f08c379a000000000000000000000000000000000000000000000000000000000815260040161141690613c99565b60405180910390fd5b61142881611d7d565b50565b6040518060c001604052808681526020018581526020018481526020013373ffffffffffffffffffffffffffffffffffffffff16815260200183815260200182815250600f6000600d548152602001908152602001600020600082015181600001908051906020019061149f929190612b32565b5060208201518160010190805190602001906114bc929190612b32565b5060408201518160020190805190602001906114d9929190612b32565b5060608201518160030160006101000a81548173ffffffffffffffffffffffffffffffffffffffff021916908373ffffffffffffffffffffffffffffffffffffffff1602179055506080820151816004015560a08201518160050155905050600d600081548092919061154b90613cb9565b91905055505050505050565b6000611563600c611a54565b905090565b60007f780e9d63000000000000000000000000000000000000000000000000000000007bffffffffffffffffffffffffffffffffffffffffffffffffffffffff1916827bffffffffffffffffffffffffffffffffffffffffffffffffffffffff191614806115db57506115da8261215e565b5b9050919050565b60008073ffffffffffffffffffffffffffffffffffffffff166002600084815260200190815260200160002060009054906101000a900473ffffffffffffffffffffffffffffffffffffffff1673ffffffffffffffffffffffffffffffffffffffff1614159050919050565b600033905090565b816004600083815260200190815260200160002060006101000a81548173ffffffffffffffffffffffffffffffffffffffff021916908373ffffffffffffffffffffffffffffffffffffffff160217905550808273ffffffffffffffffffffffffffffffffffffffff166116c983610be8565b73ffffffffffffffffffffffffffffffffffffffff167f8c5be1e5ebec7d5bd14f71427d1e84f3dd0314c0f7b2291e5b200ac8c7c3b92560405160405180910390a45050565b600061171a826115e2565b611759576040517f08c379a000000000000000000000000000000000000000000000000000000000815260040161175090613d74565b60405180910390fd5b600061176483610be8565b90508073ffffffffffffffffffffffffffffffffffffffff168473ffffffffffffffffffffffffffffffffffffffff1614806117a657506117a5818561129f565b5b806117e457508373ffffffffffffffffffffffffffffffffffffffff166117cc84610756565b73ffffffffffffffffffffffffffffffffffffffff16145b91505092915050565b8273ffffffffffffffffffffffffffffffffffffffff1661180d82610be8565b73ffffffffffffffffffffffffffffffffffffffff1614611863576040517f08c379a000000000000000000000000000000000000000000000000000000000815260040161185a90613e06565b60405180910390fd5b600073ffffffffffffffffffffffffffffffffffffffff168273ffffffffffffffffffffffffffffffffffffffff1614156118d3576040517f08c379a00000000000000000000000000000000000000000000000000000000081526004016118ca90613e98565b60405180910390fd5b6118de838383612240565b6118e9600082611656565b6001600360008573ffffffffffffffffffffffffffffffffffffffff1673ffffffffffffffffffffffffffffffffffffffff16815260200190815260200160002060008282546119399190613812565b925050819055506001600360008473ffffffffffffffffffffffffffffffffffffffff1673ffffffffffffffffffffffffffffffffffffffff16815260200190815260200160002060008282546119909190613eb8565b92505081905550816002600083815260200190815260200160002060006101000a81548173ffffffffffffffffffffffffffffffffffffffff021916908373ffffffffffffffffffffffffffffffffffffffff160217905550808273ffffffffffffffffffffffffffffffffffffffff168473ffffffffffffffffffffffffffffffffffffffff167fddf252ad1be2c89b69c2b068fc378daa952ba7f163c4a11628f55a4df523b3ef60405160405180910390a4611a4f838383612250565b505050565b600081600001549050919050565b6001816000016000828254019250508190555050565b600073ffffffffffffffffffffffffffffffffffffffff168273ffffffffffffffffffffffffffffffffffffffff161415611ae8576040517f08c379a0000000000000000000000000000000000000000000000000000000008152600401611adf90613f5a565b60405180910390fd5b611af1816115e2565b15611b31576040517f08c379a0000000000000000000000000000000000000000000000000000000008152600401611b2890613fc6565b60405180910390fd5b611b3d60008383612240565b6001600360008473ffffffffffffffffffffffffffffffffffffffff1673ffffffffffffffffffffffffffffffffffffffff1681526020019081526020016000206000828254611b8d9190613eb8565b92505081905550816002600083815260200190815260200160002060006101000a81548173ffffffffffffffffffffffffffffffffffffffff021916908373ffffffffffffffffffffffffffffffffffffffff160217905550808273ffffffffffffffffffffffffffffffffffffffff16600073ffffffffffffffffffffffffffffffffffffffff167fddf252ad1be2c89b69c2b068fc378daa952ba7f163c4a11628f55a4df523b3ef60405160405180910390a4611c4e60008383612250565b5050565b611c5b826115e2565b611c9a576040517f08c379a0000000000000000000000000000000000000000000000000000000008152600401611c9190614058565b60405180910390fd5b80600a60008481526020019081526020016000209080519060200190611cc1929190612b32565b505050565b60405180608001604052808481526020018381526020013373ffffffffffffffffffffffffffffffffffffffff1681526020018281525060106000858152602001908152602001600020600082015181600001556020820151816001015560408201518160020160006101000a81548173ffffffffffffffffffffffffffffffffffffffff021916908373ffffffffffffffffffffffffffffffffffffffff16021790555060608201518160030155905050505050565b6000600b60009054906101000a900473ffffffffffffffffffffffffffffffffffffffff16905081600b60006101000a81548173ffffffffffffffffffffffffffffffffffffffff021916908373ffffffffffffffffffffffffffffffffffffffff1602179055508173ffffffffffffffffffffffffffffffffffffffff168173ffffffffffffffffffffffffffffffffffffffff167f8be0079c531659141344cd1fd0a4f28419497f9722a3daafe3b4186f6b6457e060405160405180910390a35050565b8173ffffffffffffffffffffffffffffffffffffffff168373ffffffffffffffffffffffffffffffffffffffff161415611eb2576040517f08c379a0000000000000000000000000000000000000000000000000000000008152600401611ea9906140c4565b60405180910390fd5b80600560008573ffffffffffffffffffffffffffffffffffffffff1673ffffffffffffffffffffffffffffffffffffffff16815260200190815260200160002060008473ffffffffffffffffffffffffffffffffffffffff1673ffffffffffffffffffffffffffffffffffffffff16815260200190815260200160002060006101000a81548160ff0219169083151502179055508173ffffffffffffffffffffffffffffffffffffffff168373ffffffffffffffffffffffffffffffffffffffff167f17307eab39ab6107e8899845ad3d59bd9653f200f220920489ca2b5937696c3183604051611fa39190612c89565b60405180910390a3505050565b611fbb8484846117ed565b611fc784848484612255565b612006576040517f08c379a0000000000000000000000000000000000000000000000000000000008152600401611ffd90614156565b60405180910390fd5b50505050565b6060612017826115e2565b612056576040517f08c379a000000000000000000000000000000000000000000000000000000000815260040161204d906141e8565b60405180910390fd5b6000600a6000848152602001908152602001600020805461207690613549565b80601f01602080910402602001604051908101604052809291908181526020018280546120a290613549565b80156120ef5780601f106120c4576101008083540402835291602001916120ef565b820191906000526020600020905b8154815290600101906020018083116120d257829003601f168201915b5050505050905060006121006123dd565b9050600081511415612116578192505050612159565b60008251111561214b578082604051602001612133929190614244565b60405160208183030381529060405292505050612159565b612154846123f4565b925050505b919050565b60007f80ac58cd000000000000000000000000000000000000000000000000000000007bffffffffffffffffffffffffffffffffffffffffffffffffffffffff1916827bffffffffffffffffffffffffffffffffffffffffffffffffffffffff1916148061222957507f5b5e139f000000000000000000000000000000000000000000000000000000007bffffffffffffffffffffffffffffffffffffffffffffffffffffffff1916827bffffffffffffffffffffffffffffffffffffffffffffffffffffffff1916145b8061223957506122388261249b565b5b9050919050565b61224b838383612505565b505050565b505050565b60006122768473ffffffffffffffffffffffffffffffffffffffff16612619565b156123d0578373ffffffffffffffffffffffffffffffffffffffff1663150b7a0261229f61164e565b8786866040518563ffffffff1660e01b81526004016122c194939291906142bd565b6020604051808303816000875af19250505080156122fd57506040513d601f19601f820116820180604052508101906122fa919061431e565b60015b612380573d806000811461232d576040519150601f19603f3d011682016040523d82523d6000602084013e612332565b606091505b50600081511415612378576040517f08c379a000000000000000000000000000000000000000000000000000000000815260040161236f90614156565b60405180910390fd5b805181602001fd5b63150b7a0260e01b7bffffffffffffffffffffffffffffffffffffffffffffffffffffffff1916817bffffffffffffffffffffffffffffffffffffffffffffffffffffffff1916149150506123d5565b600190505b949350505050565b606060405180602001604052806000815250905090565b60606123ff826115e2565b61243e576040517f08c379a0000000000000000000000000000000000000000000000000000000008152600401612435906143bd565b60405180910390fd5b60006124486123dd565b905060008151116124685760405180602001604052806000815250612493565b806124728461263c565b604051602001612483929190614244565b6040516020818303038152906040525b915050919050565b60007f01ffc9a7000000000000000000000000000000000000000000000000000000007bffffffffffffffffffffffffffffffffffffffffffffffffffffffff1916827bffffffffffffffffffffffffffffffffffffffffffffffffffffffff1916149050919050565b61251083838361279d565b600073ffffffffffffffffffffffffffffffffffffffff168373ffffffffffffffffffffffffffffffffffffffff1614156125535761254e816127a2565b612592565b8173ffffffffffffffffffffffffffffffffffffffff168373ffffffffffffffffffffffffffffffffffffffff16146125915761259083826127eb565b5b5b600073ffffffffffffffffffffffffffffffffffffffff168273ffffffffffffffffffffffffffffffffffffffff1614156125d5576125d081612958565b612614565b8273ffffffffffffffffffffffffffffffffffffffff168273ffffffffffffffffffffffffffffffffffffffff1614612613576126128282612a29565b5b5b505050565b6000808273ffffffffffffffffffffffffffffffffffffffff163b119050919050565b60606000821415612684576040518060400160405280600181526020017f30000000000000000000000000000000000000000000000000000000000000008152509050612798565b600082905060005b600082146126b657808061269f90613cb9565b915050600a826126af919061440c565b915061268c565b60008167ffffffffffffffff8111156126d2576126d1612e94565b5b6040519080825280601f01601f1916602001820160405280156127045781602001600182028036833780820191505090505b5090505b600085146127915760018261271d9190613812565b9150600a8561272c919061443d565b60306127389190613eb8565b60f81b81838151811061274e5761274d6139fc565b5b60200101907effffffffffffffffffffffffffffffffffffffffffffffffffffffffffffff1916908160001a905350600a8561278a919061440c565b9450612708565b8093505050505b919050565b505050565b6008805490506009600083815260200190815260200160002081905550600881908060018154018082558091505060019003906000526020600020016000909190919091505550565b600060016127f884610f6e565b6128029190613812565b90506000600760008481526020019081526020016000205490508181146128e7576000600660008673ffffffffffffffffffffffffffffffffffffffff1673ffffffffffffffffffffffffffffffffffffffff168152602001908152602001600020600084815260200190815260200160002054905080600660008773ffffffffffffffffffffffffffffffffffffffff1673ffffffffffffffffffffffffffffffffffffffff168152602001908152602001600020600084815260200190815260200160002081905550816007600083815260200190815260200160002081905550505b6007600084815260200190815260200160002060009055600660008573ffffffffffffffffffffffffffffffffffffffff1673ffffffffffffffffffffffffffffffffffffffff16815260200190815260200160002060008381526020019081526020016000206000905550505050565b6000600160088054905061296c9190613812565b905060006009600084815260200190815260200160002054905060006008838154811061299c5761299b6139fc565b5b9060005260206000200154905080600883815481106129be576129bd6139fc565b5b906000526020600020018190555081600960008381526020019081526020016000208190555060096000858152602001908152602001600020600090556008805480612a0d57612a0c61446e565b5b6001900381819060005260206000200160009055905550505050565b6000612a3483610f6e565b905081600660008573ffffffffffffffffffffffffffffffffffffffff1673ffffffffffffffffffffffffffffffffffffffff168152602001908152602001600020600083815260200190815260200160002081905550806007600084815260200190815260200160002081905550505050565b6040518060c00160405280606081526020016060815260200160608152602001600073ffffffffffffffffffffffffffffffffffffffff16815260200160008152602001600081525090565b60405180608001604052806000815260200160008152602001600073ffffffffffffffffffffffffffffffffffffffff168152602001600081525090565b828054612b3e90613549565b90600052602060002090601f016020900481019282612b605760008555612ba7565b82601f10612b7957805160ff1916838001178555612ba7565b82800160010185558215612ba7579182015b82811115612ba6578251825591602001919060010190612b8b565b5b509050612bb49190612bb8565b5090565b5b80821115612bd1576000816000905550600101612bb9565b5090565b6000604051905090565b600080fd5b600080fd5b60007fffffffff0000000000000000000000000000000000000000000000000000000082169050919050565b612c1e81612be9565b8114612c2957600080fd5b50565b600081359050612c3b81612c15565b92915050565b600060208284031215612c5757612c56612bdf565b5b6000612c6584828501612c2c565b91505092915050565b60008115159050919050565b612c8381612c6e565b82525050565b6000602082019050612c9e6000830184612c7a565b92915050565b600081519050919050565b600082825260208201905092915050565b60005b83811015612cde578082015181840152602081019050612cc3565b83811115612ced576000848401525b50505050565b6000601f19601f8301169050919050565b6000612d0f82612ca4565b612d198185612caf565b9350612d29818560208601612cc0565b612d3281612cf3565b840191505092915050565b60006020820190508181036000830152612d578184612d04565b905092915050565b6000819050919050565b612d7281612d5f565b8114612d7d57600080fd5b50565b600081359050612d8f81612d69565b92915050565b600060208284031215612dab57612daa612bdf565b5b6000612db984828501612d80565b91505092915050565b600073ffffffffffffffffffffffffffffffffffffffff82169050919050565b6000612ded82612dc2565b9050919050565b612dfd81612de2565b82525050565b6000602082019050612e186000830184612df4565b92915050565b612e2781612de2565b8114612e3257600080fd5b50565b600081359050612e4481612e1e565b92915050565b60008060408385031215612e6157612e60612bdf565b5b6000612e6f85828601612e35565b9250506020612e8085828601612d80565b9150509250929050565b600080fd5b600080fd5b7f4e487b7100000000000000000000000000000000000000000000000000000000600052604160045260246000fd5b612ecc82612cf3565b810181811067ffffffffffffffff82111715612eeb57612eea612e94565b5b80604052505050565b6000612efe612bd5565b9050612f0a8282612ec3565b919050565b600067ffffffffffffffff821115612f2a57612f29612e94565b5b612f3382612cf3565b9050602081019050919050565b82818337600083830152505050565b6000612f62612f5d84612f0f565b612ef4565b905082815260208101848484011115612f7e57612f7d612e8f565b5b612f89848285612f40565b509392505050565b600082601f830112612fa657612fa5612e8a565b5b8135612fb6848260208601612f4f565b91505092915050565b600080600060608486031215612fd857612fd7612bdf565b5b600084013567ffffffffffffffff811115612ff657612ff5612be4565b5b61300286828701612f91565b935050602061301386828701612d80565b925050604061302486828701612d80565b9150509250925092565b61303781612d5f565b82525050565b6000602082019050613052600083018461302e565b92915050565b60008060006060848603121561307157613070612bdf565b5b600061307f86828701612e35565b935050602061309086828701612e35565b92505060406130a186828701612d80565b9150509250925092565b600082825260208201905092915050565b60006130c782612ca4565b6130d181856130ab565b93506130e1818560208601612cc0565b6130ea81612cf3565b840191505092915050565b600061310082612dc2565b9050919050565b613110816130f5565b82525050565b61311f81612d5f565b82525050565b600060c083016000830151848203600086015261314282826130bc565b9150506020830151848203602086015261315c82826130bc565b9150506040830151848203604086015261317682826130bc565b915050606083015161318b6060860182613107565b50608083015161319e6080860182613116565b5060a08301516131b160a0860182613116565b508091505092915050565b600060208201905081810360008301526131d68184613125565b905092915050565b6000602082840312156131f4576131f3612bdf565b5b600061320284828501612e35565b91505092915050565b6080820160008201516132216000850182613116565b5060208201516132346020850182613116565b5060408201516132476040850182613107565b50606082015161325a6060850182613116565b50505050565b6000608082019050613275600083018461320b565b92915050565b61328481612c6e565b811461328f57600080fd5b50565b6000813590506132a18161327b565b92915050565b600080604083850312156132be576132bd612bdf565b5b60006132cc85828601612e35565b92505060206132dd85828601613292565b9150509250929050565b600067ffffffffffffffff82111561330257613301612e94565b5b61330b82612cf3565b9050602081019050919050565b600061332b613326846132e7565b612ef4565b90508281526020810184848401111561334757613346612e8f565b5b613352848285612f40565b509392505050565b600082601f83011261336f5761336e612e8a565b5b813561337f848260208601613318565b91505092915050565b600080600080608085870312156133a2576133a1612bdf565b5b60006133b087828801612e35565b94505060206133c187828801612e35565b93505060406133d287828801612d80565b925050606085013567ffffffffffffffff8111156133f3576133f2612be4565b5b6133ff8782880161335a565b91505092959194509250565b6000806040838503121561342257613421612bdf565b5b600061343085828601612e35565b925050602061344185828601612e35565b9150509250929050565b600080600080600060a0868803121561346757613466612bdf565b5b600086013567ffffffffffffffff81111561348557613484612be4565b5b61349188828901612f91565b955050602086013567ffffffffffffffff8111156134b2576134b1612be4565b5b6134be88828901612f91565b945050604086013567ffffffffffffffff8111156134df576134de612be4565b5b6134eb88828901612f91565b93505060606134fc88828901612d80565b925050608061350d88828901612d80565b9150509295509295909350565b7f4e487b7100000000000000000000000000000000000000000000000000000000600052602260045260246000fd5b6000600282049050600182168061356157607f821691505b602082108114156135755761357461351a565b5b50919050565b7f4552433732313a20617070726f76656420717565727920666f72206e6f6e657860008201527f697374656e7420746f6b656e0000000000000000000000000000000000000000602082015250565b60006135d7602c83612caf565b91506135e28261357b565b604082019050919050565b60006020820190508181036000830152613606816135ca565b9050919050565b7f4552433732313a20617070726f76616c20746f2063757272656e74206f776e6560008201527f7200000000000000000000000000000000000000000000000000000000000000602082015250565b6000613669602183612caf565b91506136748261360d565b604082019050919050565b600060208201905081810360008301526136988161365c565b9050919050565b7f4552433732313a20617070726f76652063616c6c6572206973206e6f74206f7760008201527f6e6572206e6f7220617070726f76656420666f7220616c6c0000000000000000602082015250565b60006136fb603883612caf565b91506137068261369f565b604082019050919050565b6000602082019050818103600083015261372a816136ee565b9050919050565b600081905092915050565b50565b600061374c600083613731565b91506137578261373c565b600082019050919050565b600061376d8261373f565b9150819050919050565b7f5061796d656e74206661696c6564000000000000000000000000000000000000600082015250565b60006137ad600e83612caf565b91506137b882613777565b602082019050919050565b600060208201905081810360008301526137dc816137a0565b9050919050565b7f4e487b7100000000000000000000000000000000000000000000000000000000600052601160045260246000fd5b600061381d82612d5f565b915061382883612d5f565b92508282101561383b5761383a6137e3565b5b828203905092915050565b7f4552433732313a207472616e736665722063616c6c6572206973206e6f74206f60008201527f776e6572206e6f7220617070726f766564000000000000000000000000000000602082015250565b60006138a2603183612caf565b91506138ad82613846565b604082019050919050565b600060208201905081810360008301526138d181613895565b9050919050565b7f455243373231456e756d657261626c653a206f776e657220696e646578206f7560008201527f74206f6620626f756e6473000000000000000000000000000000000000000000602082015250565b6000613934602b83612caf565b915061393f826138d8565b604082019050919050565b6000602082019050818103600083015261396381613927565b9050919050565b7f455243373231456e756d657261626c653a20676c6f62616c20696e646578206f60008201527f7574206f6620626f756e64730000000000000000000000000000000000000000602082015250565b60006139c6602c83612caf565b91506139d18261396a565b604082019050919050565b600060208201905081810360008301526139f5816139b9565b9050919050565b7f4e487b7100000000000000000000000000000000000000000000000000000000600052603260045260246000fd5b7f4552433732313a206f776e657220717565727920666f72206e6f6e657869737460008201527f656e7420746f6b656e0000000000000000000000000000000000000000000000602082015250565b6000613a87602983612caf565b9150613a9282613a2b565b604082019050919050565b60006020820190508181036000830152613ab681613a7a565b9050919050565b7f456e7465722076616c6964207572690000000000000000000000000000000000600082015250565b6000613af3600f83612caf565b9150613afe82613abd565b602082019050919050565b60006020820190508181036000830152613b2281613ae6565b9050919050565b7f4552433732313a2062616c616e636520717565727920666f7220746865207a6560008201527f726f206164647265737300000000000000000000000000000000000000000000602082015250565b6000613b85602a83612caf565b9150613b9082613b29565b604082019050919050565b60006020820190508181036000830152613bb481613b78565b9050919050565b7f4f776e61626c653a2063616c6c6572206973206e6f7420746865206f776e6572600082015250565b6000613bf1602083612caf565b9150613bfc82613bbb565b602082019050919050565b60006020820190508181036000830152613c2081613be4565b9050919050565b7f4f776e61626c653a206e6577206f776e657220697320746865207a65726f206160008201527f6464726573730000000000000000000000000000000000000000000000000000602082015250565b6000613c83602683612caf565b9150613c8e82613c27565b604082019050919050565b60006020820190508181036000830152613cb281613c76565b9050919050565b6000613cc482612d5f565b91507fffffffffffffffffffffffffffffffffffffffffffffffffffffffffffffffff821415613cf757613cf66137e3565b5b600182019050919050565b7f4552433732313a206f70657261746f7220717565727920666f72206e6f6e657860008201527f697374656e7420746f6b656e0000000000000000000000000000000000000000602082015250565b6000613d5e602c83612caf565b9150613d6982613d02565b604082019050919050565b60006020820190508181036000830152613d8d81613d51565b9050919050565b7f4552433732313a207472616e736665722066726f6d20696e636f72726563742060008201527f6f776e6572000000000000000000000000000000000000000000000000000000602082015250565b6000613df0602583612caf565b9150613dfb82613d94565b604082019050919050565b60006020820190508181036000830152613e1f81613de3565b9050919050565b7f4552433732313a207472616e7366657220746f20746865207a65726f2061646460008201527f7265737300000000000000000000000000000000000000000000000000000000602082015250565b6000613e82602483612caf565b9150613e8d82613e26565b604082019050919050565b60006020820190508181036000830152613eb181613e75565b9050919050565b6000613ec382612d5f565b9150613ece83612d5f565b9250827fffffffffffffffffffffffffffffffffffffffffffffffffffffffffffffffff03821115613f0357613f026137e3565b5b828201905092915050565b7f4552433732313a206d696e7420746f20746865207a65726f2061646472657373600082015250565b6000613f44602083612caf565b9150613f4f82613f0e565b602082019050919050565b60006020820190508181036000830152613f7381613f37565b9050919050565b7f4552433732313a20746f6b656e20616c7265616479206d696e74656400000000600082015250565b6000613fb0601c83612caf565b9150613fbb82613f7a565b602082019050919050565b60006020820190508181036000830152613fdf81613fa3565b9050919050565b7f45524337323155524953746f726167653a2055524920736574206f66206e6f6e60008201527f6578697374656e7420746f6b656e000000000000000000000000000000000000602082015250565b6000614042602e83612caf565b915061404d82613fe6565b604082019050919050565b6000602082019050818103600083015261407181614035565b9050919050565b7f4552433732313a20617070726f766520746f2063616c6c657200000000000000600082015250565b60006140ae601983612caf565b91506140b982614078565b602082019050919050565b600060208201905081810360008301526140dd816140a1565b9050919050565b7f4552433732313a207472616e7366657220746f206e6f6e20455243373231526560008201527f63656976657220696d706c656d656e7465720000000000000000000000000000602082015250565b6000614140603283612caf565b915061414b826140e4565b604082019050919050565b6000602082019050818103600083015261416f81614133565b9050919050565b7f45524337323155524953746f726167653a2055524920717565727920666f722060008201527f6e6f6e6578697374656e7420746f6b656e000000000000000000000000000000602082015250565b60006141d2603183612caf565b91506141dd82614176565b604082019050919050565b60006020820190508181036000830152614201816141c5565b9050919050565b600081905092915050565b600061421e82612ca4565b6142288185614208565b9350614238818560208601612cc0565b80840191505092915050565b60006142508285614213565b915061425c8284614213565b91508190509392505050565b600081519050919050565b600082825260208201905092915050565b600061428f82614268565b6142998185614273565b93506142a9818560208601612cc0565b6142b281612cf3565b840191505092915050565b60006080820190506142d26000830187612df4565b6142df6020830186612df4565b6142ec604083018561302e565b81810360608301526142fe8184614284565b905095945050505050565b60008151905061431881612c15565b92915050565b60006020828403121561433457614333612bdf565b5b600061434284828501614309565b91505092915050565b7f4552433732314d657461646174613a2055524920717565727920666f72206e6f60008201527f6e6578697374656e7420746f6b656e0000000000000000000000000000000000602082015250565b60006143a7602f83612caf565b91506143b28261434b565b604082019050919050565b600060208201905081810360008301526143d68161439a565b9050919050565b7f4e487b7100000000000000000000000000000000000000000000000000000000600052601260045260246000fd5b600061441782612d5f565b915061442283612d5f565b925082614432576144316143dd565b5b828204905092915050565b600061444882612d5f565b915061445383612d5f565b925082614463576144626143dd565b5b828206905092915050565b7f4e487b7100000000000000000000000000000000000000000000000000000000600052603160045260246000fdfea264697066735822122050fad02d7c263f2ddbe35966f406592ff4aefbde2cbc433dc828a6bf555fa01b64736f6c634300080a0033",
  "linkReferences": {},
  "deployedLinkReferences": {}
}