{
  "_format": "hh-sol-artifact-1",
  "contractName": "NexoStudio",
  "sourceName": "contracts/NexoStudio.sol",
  "abi": [
    {
      "inputs": [],
      "stateMutability": "nonpayable",
      "type": "constructor"
    },
    {
      "anonymous": false,
      "inputs": [
        {
          "indexed": true,
          "internalType": "address",
          "name": "owner",
          "type": "address"
        },
        {
          "indexed": true,
          "internalType": "address",
          "name": "approved",
          "type": "address"
        },
        {
          "indexed": true,
          "internalType": "uint256",
          "name": "tokenId",
          "type": "uint256"
        }
      ],
      "name": "Approval",
      "type": "event"
    },
    {
      "anonymous": false,
      "inputs": [
        {
          "indexed": true,
          "internalType": "address",
          "name": "owner",
          "type": "address"
        },
        {
          "indexed": true,
          "internalType": "address",
          "name": "operator",
          "type": "address"
        },
        {
          "indexed": false,
          "internalType": "bool",
          "name": "approved",
          "type": "bool"
        }
      ],
      "name": "ApprovalForAll",
      "type": "event"
    },
    {
      "anonymous": false,
      "inputs": [
        {
          "indexed": true,
          "internalType": "address",
          "name": "previousOwner",
          "type": "address"
        },
        {
          "indexed": true,
          "internalType": "address",
          "name": "newOwner",
          "type": "address"
        }
      ],
      "name": "OwnershipTransferred",
      "type": "event"
    },
    {
      "anonymous": false,
      "inputs": [
        {
          "indexed": true,
          "internalType": "address",
          "name": "from",
          "type": "address"
        },
        {
          "indexed": true,
          "internalType": "address",
          "name": "to",
          "type": "address"
        },
        {
          "indexed": true,
          "internalType": "uint256",
          "name": "tokenId",
          "type": "uint256"
        }
      ],
      "name": "Transfer",
      "type": "event"
    },
    {
      "inputs": [
        {
          "internalType": "address",
          "name": "to",
          "type": "address"
        },
        {
          "internalType": "uint256",
          "name": "tokenId",
          "type": "uint256"
        }
      ],
      "name": "approve",
      "outputs": [],
      "stateMutability": "nonpayable",
      "type": "function"
    },
    {
      "inputs": [
        {
          "internalType": "address",
          "name": "owner",
          "type": "address"
        }
      ],
      "name": "balanceOf",
      "outputs": [
        {
          "internalType": "uint256",
          "name": "",
          "type": "uint256"
        }
      ],
      "stateMutability": "view",
      "type": "function"
    },
    {
      "inputs": [
        {
          "internalType": "string",
          "name": "uri",
          "type": "string"
        },
        {
          "internalType": "uint256",
          "name": "eventIndex",
          "type": "uint256"
        },
        {
          "internalType": "uint256",
          "name": "quantity",
          "type": "uint256"
        }
      ],
      "name": "buyTicket",
      "outputs": [],
      "stateMutability": "payable",
      "type": "function"
    },
    {
      "inputs": [
        {
          "internalType": "string",
          "name": "title",
          "type": "string"
        },
        {
          "internalType": "string",
          "name": "image",
          "type": "string"
        },
        {
          "internalType": "string",
          "name": "description",
          "type": "string"
        },
        {
          "internalType": "uint256",
          "name": "price",
          "type": "uint256"
        },
        {
          "internalType": "uint256",
          "name": "quantity",
          "type": "uint256"
        }
      ],
      "name": "createEvent",
      "outputs": [],
      "stateMutability": "nonpayable",
      "type": "function"
    },
    {
      "inputs": [
        {
          "internalType": "uint256",
          "name": "tokenId",
          "type": "uint256"
        }
      ],
      "name": "getApproved",
      "outputs": [
        {
          "internalType": "address",
          "name": "",
          "type": "address"
        }
      ],
      "stateMutability": "view",
      "type": "function"
    },
    {
      "inputs": [
        {
          "internalType": "uint256",
          "name": "index",
          "type": "uint256"
        }
      ],
      "name": "getEvent",
      "outputs": [
        {
          "components": [
            {
              "internalType": "string",
              "name": "title",
              "type": "string"
            },
            {
              "internalType": "string",
              "name": "image",
              "type": "string"
            },
            {
              "internalType": "string",
              "name": "description",
              "type": "string"
            },
            {
              "internalType": "address payable",
              "name": "owner",
              "type": "address"
            },
            {
              "internalType": "uint256",
              "name": "price",
              "type": "uint256"
            },
            {
              "internalType": "uint256",
              "name": "quantity",
              "type": "uint256"
            }
          ],
          "internalType": "struct NexoStudio.EventStudio",
          "name": "",
          "type": "tuple"
        }
      ],
      "stateMutability": "view",
      "type": "function"
    },
    {
      "inputs": [],
      "name": "getEventLength",
      "outputs": [
        {
          "internalType": "uint256",
          "name": "",
          "type": "uint256"
        }
      ],
      "stateMutability": "view",
      "type": "function"
    },
    {
      "inputs": [],
      "name": "getOwners",
      "outputs": [
        {
          "internalType": "uint256",
          "name": "",
          "type": "uint256"
        }
      ],
      "stateMutability": "view",
      "type": "function"
    },
    {
      "inputs": [
        {
          "internalType": "uint256",
          "name": "tokenId",
          "type": "uint256"
        }
      ],
      "name": "getTicket",
      "outputs": [
        {
          "components": [
            {
              "internalType": "uint256",
              "name": "tokenId",
              "type": "uint256"
            },
            {
              "internalType": "uint256",
              "name": "eventIndex",
              "type": "uint256"
            },
            {
              "internalType": "address payable",
              "name": "owner",
              "type": "address"
            },
            {
              "internalType": "uint256",
              "name": "quantity",
              "type": "uint256"
            }
          ],
          "internalType": "struct NexoStudio.Ticket",
          "name": "",
          "type": "tuple"
        }
      ],
      "stateMutability": "view",
      "type": "function"
    },
    {
      "inputs": [],
      "name": "getTicketLength",
      "outputs": [
        {
          "internalType": "uint256",
          "name": "",
          "type": "uint256"
        }
      ],
      "stateMutability": "view",
      "type": "function"
    },
    {
      "inputs": [
        {
          "internalType": "address",
          "name": "owner",
          "type": "address"
        },
        {
          "internalType": "address",
          "name": "operator",
          "type": "address"
        }
      ],
      "name": "isApprovedForAll",
      "outputs": [
        {
          "internalType": "bool",
          "name": "",
          "type": "bool"
        }
      ],
      "stateMutability": "view",
      "type": "function"
    },
    {
      "inputs": [],
      "name": "name",
      "outputs": [
        {
          "internalType": "string",
          "name": "",
          "type": "string"
        }
      ],
      "stateMutability": "view",
      "type": "function"
    },
    {
      "inputs": [],
      "name": "owner",
      "outputs": [
        {
          "internalType": "address",
          "name": "",
          "type": "address"
        }
      ],
      "stateMutability": "view",
      "type": "function"
    },
    {
      "inputs": [
        {
          "internalType": "uint256",
          "name": "tokenId",
          "type": "uint256"
        }
      ],
      "name": "ownerOf",
      "outputs": [
        {
          "internalType": "address",
          "name": "",
          "type": "address"
        }
      ],
      "stateMutability": "view",
      "type": "function"
    },
    {
      "inputs": [],
      "name": "renounceOwnership",
      "outputs": [],
      "stateMutability": "nonpayable",
      "type": "function"
    },
    {
      "inputs": [
        {
          "internalType": "string",
          "name": "uri",
          "type": "string"
        },
        {
          "internalType": "uint256",
          "name": "eventIndex",
          "type": "uint256"
        },
        {
          "internalType": "uint256",
          "name": "quantity",
          "type": "uint256"
        }
      ],
      "name": "safeMint",
      "outputs": [
        {
          "internalType": "uint256",
          "name": "",
          "type": "uint256"
        }
      ],
      "stateMutability": "payable",
      "type": "function"
    },
    {
      "inputs": [
        {
          "internalType": "address",
          "name": "from",
          "type": "address"
        },
        {
          "internalType": "address",
          "name": "to",
          "type": "address"
        },
        {
          "internalType": "uint256",
          "name": "tokenId",
          "type": "uint256"
        }
      ],
      "name": "safeTransferFrom",
      "outputs": [],
      "stateMutability": "nonpayable",
      "type": "function"
    },
    {
      "inputs": [
        {
          "internalType": "address",
          "name": "from",
          "type": "address"
        },
        {
          "internalType": "address",
          "name": "to",
          "type": "address"
        },
        {
          "internalType": "uint256",
          "name": "tokenId",
          "type": "uint256"
        },
        {
          "internalType": "bytes",
          "name": "_data",
          "type": "bytes"
        }
      ],
      "name": "safeTransferFrom",
      "outputs": [],
      "stateMutability": "nonpayable",
      "type": "function"
    },
    {
      "inputs": [
        {
          "internalType": "address",
          "name": "operator",
          "type": "address"
        },
        {
          "internalType": "bool",
          "name": "approved",
          "type": "bool"
        }
      ],
      "name": "setApprovalForAll",
      "outputs": [],
      "stateMutability": "nonpayable",
      "type": "function"
    },
    {
      "inputs": [
        {
          "internalType": "bytes4",
          "name": "interfaceId",
          "type": "bytes4"
        }
      ],
      "name": "supportsInterface",
      "outputs": [
        {
          "internalType": "bool",
          "name": "",
          "type": "bool"
        }
      ],
      "stateMutability": "view",
      "type": "function"
    },
    {
      "inputs": [],
      "name": "symbol",
      "outputs": [
        {
          "internalType": "string",
          "name": "",
          "type": "string"
        }
      ],
      "stateMutability": "view",
      "type": "function"
    },
    {
      "inputs": [
        {
          "internalType": "uint256",
          "name": "index",
          "type": "uint256"
        }
      ],
      "name": "tokenByIndex",
      "outputs": [
        {
          "internalType": "uint256",
          "name": "",
          "type": "uint256"
        }
      ],
      "stateMutability": "view",
      "type": "function"
    },
    {
      "inputs": [
        {
          "internalType": "address",
          "name": "owner",
          "type": "address"
        },
        {
          "internalType": "uint256",
          "name": "index",
          "type": "uint256"
        }
      ],
      "name": "tokenOfOwnerByIndex",
      "outputs": [
        {
          "internalType": "uint256",
          "name": "",
          "type": "uint256"
        }
      ],
      "stateMutability": "view",
      "type": "function"
    },
    {
      "inputs": [
        {
          "internalType": "uint256",
          "name": "tokenId",
          "type": "uint256"
        }
      ],
      "name": "tokenURI",
      "outputs": [
        {
          "internalType": "string",
          "name": "",
          "type": "string"
        }
      ],
      "stateMutability": "view",
      "type": "function"
    },
    {
      "inputs": [],
      "name": "totalSupply",
      "outputs": [
        {
          "internalType": "uint256",
          "name": "",
          "type": "uint256"
        }
      ],
      "stateMutability": "view",
      "type": "function"
    },
    {
      "inputs": [
        {
          "internalType": "address",
          "name": "from",
          "type": "address"
        },
        {
          "internalType": "address",
          "name": "to",
          "type": "address"
        },
        {
          "internalType": "uint256",
          "name": "tokenId",
          "type": "uint256"
        }
      ],
      "name": "transferFrom",
      "outputs": [],
      "stateMutability": "nonpayable",
      "type": "function"
    },
    {
      "inputs": [
        {
          "internalType": "address",
          "name": "newOwner",
          "type": "address"
        }
      ],
      "name": "transferOwnership",
      "outputs": [],
      "stateMutability": "nonpayable",
      "type": "function"
    }
  ],
  "bytecode": "0x60806040526000600d556000600e553480156200001b57600080fd5b506040518060400160405280600a81526020017f4e65786f53747564696f000000000000000000000000000000000000000000008152506040518060400160405280600481526020017f4e585354000000000000000000000000000000000000000000000000000000008152508160009080519060200190620000a0929190620001b0565b508060019080519060200190620000b9929190620001b0565b505050620000dc620000d0620000e260201b60201c565b620000ea60201b60201c565b620002c5565b600033905090565b6000600b60009054906101000a900473ffffffffffffffffffffffffffffffffffffffff16905081600b60006101000a81548173ffffffffffffffffffffffffffffffffffffffff021916908373ffffffffffffffffffffffffffffffffffffffff1602179055508173ffffffffffffffffffffffffffffffffffffffff168173ffffffffffffffffffffffffffffffffffffffff167f8be0079c531659141344cd1fd0a4f28419497f9722a3daafe3b4186f6b6457e060405160405180910390a35050565b828054620001be906200028f565b90600052602060002090601f016020900481019282620001e257600085556200022e565b82601f10620001fd57805160ff19168380011785556200022e565b828001600101855582156200022e579182015b828111156200022d57825182559160200191906001019062000210565b5b5090506200023d919062000241565b5090565b5b808211156200025c57600081600090555060010162000242565b5090565b7f4e487b7100000000000000000000000000000000000000000000000000000000600052602260045260246000fd5b60006002820490506001821680620002a857607f821691505b60208210811415620002bf57620002be62000260565b5b50919050565b6145b780620002d56000396000f3fe60806040526004361061019c5760003560e01c80636e1f94e1116100ec578063a22cb4651161008a578063e985e9c511610064578063e985e9c5146105f8578063f2fde38b14610635578063f5f00d841461065e578063f918c781146106875761019c565b8063a22cb46514610569578063b88d4fde14610592578063c87b56dd146105bb5761019c565b80637dc379fa116100c65780637dc379fa146104ab5780638da5cb5b146104e857806395d89b4114610513578063a0e67e2b1461053e5761019c565b80636e1f94e11461042757806370a0823114610457578063715018a6146104945761019c565b806323b872dd116101595780634f6ccce7116101335780634f6ccce7146103455780635c98dfa1146103825780636352211e146103ad5780636d1884e0146103ea5761019c565b806323b872dd146102b65780632f745c59146102df57806342842e0e1461031c5761019c565b806301ffc9a7146101a157806306fdde03146101de578063081812fc14610209578063095ea7b3146102465780631443d3ec1461026f57806318160ddd1461028b575b600080fd5b3480156101ad57600080fd5b506101c860048036038101906101c39190612c93565b6106b2565b6040516101d59190612cdb565b60405180910390f35b3480156101ea57600080fd5b506101f36106c4565b6040516102009190612d8f565b60405180910390f35b34801561021557600080fd5b50610230600480360381019061022b9190612de7565b610756565b60405161023d9190612e55565b60405180910390f35b34801561025257600080fd5b5061026d60048036038101906102689190612e9c565b6107db565b005b61028960048036038101906102849190613011565b6108f3565b005b34801561029757600080fd5b506102a0610a8d565b6040516102ad919061308f565b60405180910390f35b3480156102c257600080fd5b506102dd60048036038101906102d891906130aa565b610a9a565b005b3480156102eb57600080fd5b5061030660048036038101906103019190612e9c565b610afa565b604051610313919061308f565b60405180910390f35b34801561032857600080fd5b50610343600480360381019061033e91906130aa565b610b9f565b005b34801561035157600080fd5b5061036c60048036038101906103679190612de7565b610bbf565b604051610379919061308f565b60405180910390f35b34801561038e57600080fd5b50610397610c30565b6040516103a4919061308f565b60405180910390f35b3480156103b957600080fd5b506103d460048036038101906103cf9190612de7565b610c3a565b6040516103e19190612e55565b60405180910390f35b3480156103f657600080fd5b50610411600480360381019061040c9190612de7565b610cec565b60405161041e919061320e565b60405180910390f35b610441600480360381019061043c9190613011565b610f39565b60405161044e919061308f565b60405180910390f35b34801561046357600080fd5b5061047e60048036038101906104799190613230565b610fc0565b60405161048b919061308f565b60405180910390f35b3480156104a057600080fd5b506104a9611078565b005b3480156104b757600080fd5b506104d260048036038101906104cd9190612de7565b611100565b6040516104df91906132b2565b60405180910390f35b3480156104f457600080fd5b506104fd6111a1565b60405161050a9190612e55565b60405180910390f35b34801561051f57600080fd5b506105286111cb565b6040516105359190612d8f565b60405180910390f35b34801561054a57600080fd5b5061055361125d565b604051610560919061308f565b60405180910390f35b34801561057557600080fd5b50610590600480360381019061058b91906132f9565b611267565b005b34801561059e57600080fd5b506105b960048036038101906105b491906133da565b61127d565b005b3480156105c757600080fd5b506105e260048036038101906105dd9190612de7565b6112df565b6040516105ef9190612d8f565b60405180910390f35b34801561060457600080fd5b5061061f600480360381019061061a919061345d565b6112f1565b60405161062c9190612cdb565b60405180910390f35b34801561064157600080fd5b5061065c60048036038101906106579190613230565b611385565b005b34801561066a57600080fd5b506106856004803603810190610680919061349d565b61147d565b005b34801561069357600080fd5b5061069c6115a9565b6040516106a9919061308f565b60405180910390f35b60006106bd826115ba565b9050919050565b6060600080546106d39061359b565b80601f01602080910402602001604051908101604052809291908181526020018280546106ff9061359b565b801561074c5780601f106107215761010080835404028352916020019161074c565b820191906000526020600020905b81548152906001019060200180831161072f57829003601f168201915b5050505050905090565b600061076182611634565b6107a0576040517f08c379a00000000000000000000000000000000000000000000000000000000081526004016107979061363f565b60405180910390fd5b6004600083815260200190815260200160002060009054906101000a900473ffffffffffffffffffffffffffffffffffffffff169050919050565b60006107e682610c3a565b90508073ffffffffffffffffffffffffffffffffffffffff168373ffffffffffffffffffffffffffffffffffffffff161415610857576040517f08c379a000000000000000000000000000000000000000000000000000000000815260040161084e906136d1565b60405180910390fd5b8073ffffffffffffffffffffffffffffffffffffffff166108766116a0565b73ffffffffffffffffffffffffffffffffffffffff1614806108a557506108a48161089f6116a0565b6112f1565b5b6108e4576040517f08c379a00000000000000000000000000000000000000000000000000000000081526004016108db90613763565b60405180910390fd5b6108ee83836116a8565b505050565b6000600f600084815260200190815260200160002060030160009054906101000a900473ffffffffffffffffffffffffffffffffffffffff169050600f6000848152602001908152602001600020600501548211610986576040517f08c379a000000000000000000000000000000000000000000000000000000000815260040161097d906137f5565b60405180910390fd5b600034905060008273ffffffffffffffffffffffffffffffffffffffff16826040516109b190613846565b60006040518083038185875af1925050503d80600081146109ee576040519150601f19603f3d011682016040523d82523d6000602084013e6109f3565b606091505b5050905080610a37576040517f08c379a0000000000000000000000000000000000000000000000000000000008152600401610a2e906138a7565b60405180910390fd5b600084600f600088815260200190815260200160002060050154610a5b91906138f6565b905080600f600088815260200190815260200160002060050181905550610a83878787610f39565b5050505050505050565b6000600880549050905090565b610aab610aa56116a0565b82611761565b610aea576040517f08c379a0000000000000000000000000000000000000000000000000000000008152600401610ae19061399c565b60405180910390fd5b610af583838361183f565b505050565b6000610b0583610fc0565b8210610b46576040517f08c379a0000000000000000000000000000000000000000000000000000000008152600401610b3d90613a2e565b60405180910390fd5b600660008473ffffffffffffffffffffffffffffffffffffffff1673ffffffffffffffffffffffffffffffffffffffff168152602001908152602001600020600083815260200190815260200160002054905092915050565b610bba8383836040518060200160405280600081525061127d565b505050565b6000610bc9610a8d565b8210610c0a576040517f08c379a0000000000000000000000000000000000000000000000000000000008152600401610c0190613ac0565b60405180910390fd5b60088281548110610c1e57610c1d613ae0565b5b90600052602060002001549050919050565b6000600d54905090565b6000806002600084815260200190815260200160002060009054906101000a900473ffffffffffffffffffffffffffffffffffffffff169050600073ffffffffffffffffffffffffffffffffffffffff168173ffffffffffffffffffffffffffffffffffffffff161415610ce3576040517f08c379a0000000000000000000000000000000000000000000000000000000008152600401610cda90613b81565b60405180910390fd5b80915050919050565b610cf4612afa565b600f60008381526020019081526020016000206040518060c0016040529081600082018054610d229061359b565b80601f0160208091040260200160405190810160405280929190818152602001828054610d4e9061359b565b8015610d9b5780601f10610d7057610100808354040283529160200191610d9b565b820191906000526020600020905b815481529060010190602001808311610d7e57829003601f168201915b50505050508152602001600182018054610db49061359b565b80601f0160208091040260200160405190810160405280929190818152602001828054610de09061359b565b8015610e2d5780601f10610e0257610100808354040283529160200191610e2d565b820191906000526020600020905b815481529060010190602001808311610e1057829003601f168201915b50505050508152602001600282018054610e469061359b565b80601f0160208091040260200160405190810160405280929190818152602001828054610e729061359b565b8015610ebf5780601f10610e9457610100808354040283529160200191610ebf565b820191906000526020600020905b815481529060010190602001808311610ea257829003601f168201915b505050505081526020016003820160009054906101000a900473ffffffffffffffffffffffffffffffffffffffff1673ffffffffffffffffffffffffffffffffffffffff1673ffffffffffffffffffffffffffffffffffffffff168152602001600482015481526020016005820154815250509050919050565b600080845111610f7e576040517f08c379a0000000000000000000000000000000000000000000000000000000008152600401610f7590613bed565b60405180910390fd5b6000610f8a600c611aa6565b9050610f96600c611ab4565b610fa03382611aca565b610faa8186611ca4565b610fb5818585611d18565b809150509392505050565b60008073ffffffffffffffffffffffffffffffffffffffff168273ffffffffffffffffffffffffffffffffffffffff161415611031576040517f08c379a000000000000000000000000000000000000000000000000000000000815260040161102890613c7f565b60405180910390fd5b600360008373ffffffffffffffffffffffffffffffffffffffff1673ffffffffffffffffffffffffffffffffffffffff168152602001908152602001600020549050919050565b6110806116a0565b73ffffffffffffffffffffffffffffffffffffffff1661109e6111a1565b73ffffffffffffffffffffffffffffffffffffffff16146110f4576040517f08c379a00000000000000000000000000000000000000000000000000000000081526004016110eb90613ceb565b60405180910390fd5b6110fe6000611dcf565b565b611108612b46565b6010600083815260200190815260200160002060405180608001604052908160008201548152602001600182015481526020016002820160009054906101000a900473ffffffffffffffffffffffffffffffffffffffff1673ffffffffffffffffffffffffffffffffffffffff1673ffffffffffffffffffffffffffffffffffffffff1681526020016003820154815250509050919050565b6000600b60009054906101000a900473ffffffffffffffffffffffffffffffffffffffff16905090565b6060600180546111da9061359b565b80601f01602080910402602001604051908101604052809291908181526020018280546112069061359b565b80156112535780601f1061122857610100808354040283529160200191611253565b820191906000526020600020905b81548152906001019060200180831161123657829003601f168201915b5050505050905090565b6000600e54905090565b6112796112726116a0565b8383611e95565b5050565b61128e6112886116a0565b83611761565b6112cd576040517f08c379a00000000000000000000000000000000000000000000000000000000081526004016112c49061399c565b60405180910390fd5b6112d984848484612002565b50505050565b60606112ea8261205e565b9050919050565b6000600560008473ffffffffffffffffffffffffffffffffffffffff1673ffffffffffffffffffffffffffffffffffffffff16815260200190815260200160002060008373ffffffffffffffffffffffffffffffffffffffff1673ffffffffffffffffffffffffffffffffffffffff16815260200190815260200160002060009054906101000a900460ff16905092915050565b61138d6116a0565b73ffffffffffffffffffffffffffffffffffffffff166113ab6111a1565b73ffffffffffffffffffffffffffffffffffffffff1614611401576040517f08c379a00000000000000000000000000000000000000000000000000000000081526004016113f890613ceb565b60405180910390fd5b600073ffffffffffffffffffffffffffffffffffffffff168173ffffffffffffffffffffffffffffffffffffffff161415611471576040517f08c379a000000000000000000000000000000000000000000000000000000000815260040161146890613d7d565b60405180910390fd5b61147a81611dcf565b50565b6040518060c001604052808681526020018581526020018481526020013373ffffffffffffffffffffffffffffffffffffffff16815260200183815260200182815250600f6000600d54815260200190815260200160002060008201518160000190805190602001906114f1929190612b84565b50602082015181600101908051906020019061150e929190612b84565b50604082015181600201908051906020019061152b929190612b84565b5060608201518160030160006101000a81548173ffffffffffffffffffffffffffffffffffffffff021916908373ffffffffffffffffffffffffffffffffffffffff1602179055506080820151816004015560a08201518160050155905050600d600081548092919061159d90613d9d565b91905055505050505050565b60006115b5600c611aa6565b905090565b60007f780e9d63000000000000000000000000000000000000000000000000000000007bffffffffffffffffffffffffffffffffffffffffffffffffffffffff1916827bffffffffffffffffffffffffffffffffffffffffffffffffffffffff1916148061162d575061162c826121b0565b5b9050919050565b60008073ffffffffffffffffffffffffffffffffffffffff166002600084815260200190815260200160002060009054906101000a900473ffffffffffffffffffffffffffffffffffffffff1673ffffffffffffffffffffffffffffffffffffffff1614159050919050565b600033905090565b816004600083815260200190815260200160002060006101000a81548173ffffffffffffffffffffffffffffffffffffffff021916908373ffffffffffffffffffffffffffffffffffffffff160217905550808273ffffffffffffffffffffffffffffffffffffffff1661171b83610c3a565b73ffffffffffffffffffffffffffffffffffffffff167f8c5be1e5ebec7d5bd14f71427d1e84f3dd0314c0f7b2291e5b200ac8c7c3b92560405160405180910390a45050565b600061176c82611634565b6117ab576040517f08c379a00000000000000000000000000000000000000000000000000000000081526004016117a290613e58565b60405180910390fd5b60006117b683610c3a565b90508073ffffffffffffffffffffffffffffffffffffffff168473ffffffffffffffffffffffffffffffffffffffff1614806117f857506117f781856112f1565b5b8061183657508373ffffffffffffffffffffffffffffffffffffffff1661181e84610756565b73ffffffffffffffffffffffffffffffffffffffff16145b91505092915050565b8273ffffffffffffffffffffffffffffffffffffffff1661185f82610c3a565b73ffffffffffffffffffffffffffffffffffffffff16146118b5576040517f08c379a00000000000000000000000000000000000000000000000000000000081526004016118ac90613eea565b60405180910390fd5b600073ffffffffffffffffffffffffffffffffffffffff168273ffffffffffffffffffffffffffffffffffffffff161415611925576040517f08c379a000000000000000000000000000000000000000000000000000000000815260040161191c90613f7c565b60405180910390fd5b611930838383612292565b61193b6000826116a8565b6001600360008573ffffffffffffffffffffffffffffffffffffffff1673ffffffffffffffffffffffffffffffffffffffff168152602001908152602001600020600082825461198b91906138f6565b925050819055506001600360008473ffffffffffffffffffffffffffffffffffffffff1673ffffffffffffffffffffffffffffffffffffffff16815260200190815260200160002060008282546119e29190613f9c565b92505081905550816002600083815260200190815260200160002060006101000a81548173ffffffffffffffffffffffffffffffffffffffff021916908373ffffffffffffffffffffffffffffffffffffffff160217905550808273ffffffffffffffffffffffffffffffffffffffff168473ffffffffffffffffffffffffffffffffffffffff167fddf252ad1be2c89b69c2b068fc378daa952ba7f163c4a11628f55a4df523b3ef60405160405180910390a4611aa18383836122a2565b505050565b600081600001549050919050565b6001816000016000828254019250508190555050565b600073ffffffffffffffffffffffffffffffffffffffff168273ffffffffffffffffffffffffffffffffffffffff161415611b3a576040517f08c379a0000000000000000000000000000000000000000000000000000000008152600401611b319061403e565b60405180910390fd5b611b4381611634565b15611b83576040517f08c379a0000000000000000000000000000000000000000000000000000000008152600401611b7a906140aa565b60405180910390fd5b611b8f60008383612292565b6001600360008473ffffffffffffffffffffffffffffffffffffffff1673ffffffffffffffffffffffffffffffffffffffff1681526020019081526020016000206000828254611bdf9190613f9c565b92505081905550816002600083815260200190815260200160002060006101000a81548173ffffffffffffffffffffffffffffffffffffffff021916908373ffffffffffffffffffffffffffffffffffffffff160217905550808273ffffffffffffffffffffffffffffffffffffffff16600073ffffffffffffffffffffffffffffffffffffffff167fddf252ad1be2c89b69c2b068fc378daa952ba7f163c4a11628f55a4df523b3ef60405160405180910390a4611ca0600083836122a2565b5050565b611cad82611634565b611cec576040517f08c379a0000000000000000000000000000000000000000000000000000000008152600401611ce39061413c565b60405180910390fd5b80600a60008481526020019081526020016000209080519060200190611d13929190612b84565b505050565b60405180608001604052808481526020018381526020013373ffffffffffffffffffffffffffffffffffffffff1681526020018281525060106000858152602001908152602001600020600082015181600001556020820151816001015560408201518160020160006101000a81548173ffffffffffffffffffffffffffffffffffffffff021916908373ffffffffffffffffffffffffffffffffffffffff16021790555060608201518160030155905050505050565b6000600b60009054906101000a900473ffffffffffffffffffffffffffffffffffffffff16905081600b60006101000a81548173ffffffffffffffffffffffffffffffffffffffff021916908373ffffffffffffffffffffffffffffffffffffffff1602179055508173ffffffffffffffffffffffffffffffffffffffff168173ffffffffffffffffffffffffffffffffffffffff167f8be0079c531659141344cd1fd0a4f28419497f9722a3daafe3b4186f6b6457e060405160405180910390a35050565b8173ffffffffffffffffffffffffffffffffffffffff168373ffffffffffffffffffffffffffffffffffffffff161415611f04576040517f08c379a0000000000000000000000000000000000000000000000000000000008152600401611efb906141a8565b60405180910390fd5b80600560008573ffffffffffffffffffffffffffffffffffffffff1673ffffffffffffffffffffffffffffffffffffffff16815260200190815260200160002060008473ffffffffffffffffffffffffffffffffffffffff1673ffffffffffffffffffffffffffffffffffffffff16815260200190815260200160002060006101000a81548160ff0219169083151502179055508173ffffffffffffffffffffffffffffffffffffffff168373ffffffffffffffffffffffffffffffffffffffff167f17307eab39ab6107e8899845ad3d59bd9653f200f220920489ca2b5937696c3183604051611ff59190612cdb565b60405180910390a3505050565b61200d84848461183f565b612019848484846122a7565b612058576040517f08c379a000000000000000000000000000000000000000000000000000000000815260040161204f9061423a565b60405180910390fd5b50505050565b606061206982611634565b6120a8576040517f08c379a000000000000000000000000000000000000000000000000000000000815260040161209f906142cc565b60405180910390fd5b6000600a600084815260200190815260200160002080546120c89061359b565b80601f01602080910402602001604051908101604052809291908181526020018280546120f49061359b565b80156121415780601f1061211657610100808354040283529160200191612141565b820191906000526020600020905b81548152906001019060200180831161212457829003601f168201915b50505050509050600061215261242f565b90506000815114156121685781925050506121ab565b60008251111561219d578082604051602001612185929190614328565b604051602081830303815290604052925050506121ab565b6121a684612446565b925050505b919050565b60007f80ac58cd000000000000000000000000000000000000000000000000000000007bffffffffffffffffffffffffffffffffffffffffffffffffffffffff1916827bffffffffffffffffffffffffffffffffffffffffffffffffffffffff1916148061227b57507f5b5e139f000000000000000000000000000000000000000000000000000000007bffffffffffffffffffffffffffffffffffffffffffffffffffffffff1916827bffffffffffffffffffffffffffffffffffffffffffffffffffffffff1916145b8061228b575061228a826124ed565b5b9050919050565b61229d838383612557565b505050565b505050565b60006122c88473ffffffffffffffffffffffffffffffffffffffff1661266b565b15612422578373ffffffffffffffffffffffffffffffffffffffff1663150b7a026122f16116a0565b8786866040518563ffffffff1660e01b815260040161231394939291906143a1565b6020604051808303816000875af192505050801561234f57506040513d601f19601f8201168201806040525081019061234c9190614402565b60015b6123d2573d806000811461237f576040519150601f19603f3d011682016040523d82523d6000602084013e612384565b606091505b506000815114156123ca576040517f08c379a00000000000000000000000000000000000000000000000000000000081526004016123c19061423a565b60405180910390fd5b805181602001fd5b63150b7a0260e01b7bffffffffffffffffffffffffffffffffffffffffffffffffffffffff1916817bffffffffffffffffffffffffffffffffffffffffffffffffffffffff191614915050612427565b600190505b949350505050565b606060405180602001604052806000815250905090565b606061245182611634565b612490576040517f08c379a0000000000000000000000000000000000000000000000000000000008152600401612487906144a1565b60405180910390fd5b600061249a61242f565b905060008151116124ba57604051806020016040528060008152506124e5565b806124c48461268e565b6040516020016124d5929190614328565b6040516020818303038152906040525b915050919050565b60007f01ffc9a7000000000000000000000000000000000000000000000000000000007bffffffffffffffffffffffffffffffffffffffffffffffffffffffff1916827bffffffffffffffffffffffffffffffffffffffffffffffffffffffff1916149050919050565b6125628383836127ef565b600073ffffffffffffffffffffffffffffffffffffffff168373ffffffffffffffffffffffffffffffffffffffff1614156125a5576125a0816127f4565b6125e4565b8173ffffffffffffffffffffffffffffffffffffffff168373ffffffffffffffffffffffffffffffffffffffff16146125e3576125e2838261283d565b5b5b600073ffffffffffffffffffffffffffffffffffffffff168273ffffffffffffffffffffffffffffffffffffffff16141561262757612622816129aa565b612666565b8273ffffffffffffffffffffffffffffffffffffffff168273ffffffffffffffffffffffffffffffffffffffff1614612665576126648282612a7b565b5b5b505050565b6000808273ffffffffffffffffffffffffffffffffffffffff163b119050919050565b606060008214156126d6576040518060400160405280600181526020017f300000000000000000000000000000000000000000000000000000000000000081525090506127ea565b600082905060005b600082146127085780806126f190613d9d565b915050600a8261270191906144f0565b91506126de565b60008167ffffffffffffffff81111561272457612723612ee6565b5b6040519080825280601f01601f1916602001820160405280156127565781602001600182028036833780820191505090505b5090505b600085146127e35760018261276f91906138f6565b9150600a8561277e9190614521565b603061278a9190613f9c565b60f81b8183815181106127a05761279f613ae0565b5b60200101907effffffffffffffffffffffffffffffffffffffffffffffffffffffffffffff1916908160001a905350600a856127dc91906144f0565b945061275a565b8093505050505b919050565b505050565b6008805490506009600083815260200190815260200160002081905550600881908060018154018082558091505060019003906000526020600020016000909190919091505550565b6000600161284a84610fc0565b61285491906138f6565b9050600060076000848152602001908152602001600020549050818114612939576000600660008673ffffffffffffffffffffffffffffffffffffffff1673ffffffffffffffffffffffffffffffffffffffff168152602001908152602001600020600084815260200190815260200160002054905080600660008773ffffffffffffffffffffffffffffffffffffffff1673ffffffffffffffffffffffffffffffffffffffff168152602001908152602001600020600084815260200190815260200160002081905550816007600083815260200190815260200160002081905550505b6007600084815260200190815260200160002060009055600660008573ffffffffffffffffffffffffffffffffffffffff1673ffffffffffffffffffffffffffffffffffffffff16815260200190815260200160002060008381526020019081526020016000206000905550505050565b600060016008805490506129be91906138f6565b90506000600960008481526020019081526020016000205490506000600883815481106129ee576129ed613ae0565b5b906000526020600020015490508060088381548110612a1057612a0f613ae0565b5b906000526020600020018190555081600960008381526020019081526020016000208190555060096000858152602001908152602001600020600090556008805480612a5f57612a5e614552565b5b6001900381819060005260206000200160009055905550505050565b6000612a8683610fc0565b905081600660008573ffffffffffffffffffffffffffffffffffffffff1673ffffffffffffffffffffffffffffffffffffffff168152602001908152602001600020600083815260200190815260200160002081905550806007600084815260200190815260200160002081905550505050565b6040518060c00160405280606081526020016060815260200160608152602001600073ffffffffffffffffffffffffffffffffffffffff16815260200160008152602001600081525090565b60405180608001604052806000815260200160008152602001600073ffffffffffffffffffffffffffffffffffffffff168152602001600081525090565b828054612b909061359b565b90600052602060002090601f016020900481019282612bb25760008555612bf9565b82601f10612bcb57805160ff1916838001178555612bf9565b82800160010185558215612bf9579182015b82811115612bf8578251825591602001919060010190612bdd565b5b509050612c069190612c0a565b5090565b5b80821115612c23576000816000905550600101612c0b565b5090565b6000604051905090565b600080fd5b600080fd5b60007fffffffff0000000000000000000000000000000000000000000000000000000082169050919050565b612c7081612c3b565b8114612c7b57600080fd5b50565b600081359050612c8d81612c67565b92915050565b600060208284031215612ca957612ca8612c31565b5b6000612cb784828501612c7e565b91505092915050565b60008115159050919050565b612cd581612cc0565b82525050565b6000602082019050612cf06000830184612ccc565b92915050565b600081519050919050565b600082825260208201905092915050565b60005b83811015612d30578082015181840152602081019050612d15565b83811115612d3f576000848401525b50505050565b6000601f19601f8301169050919050565b6000612d6182612cf6565b612d6b8185612d01565b9350612d7b818560208601612d12565b612d8481612d45565b840191505092915050565b60006020820190508181036000830152612da98184612d56565b905092915050565b6000819050919050565b612dc481612db1565b8114612dcf57600080fd5b50565b600081359050612de181612dbb565b92915050565b600060208284031215612dfd57612dfc612c31565b5b6000612e0b84828501612dd2565b91505092915050565b600073ffffffffffffffffffffffffffffffffffffffff82169050919050565b6000612e3f82612e14565b9050919050565b612e4f81612e34565b82525050565b6000602082019050612e6a6000830184612e46565b92915050565b612e7981612e34565b8114612e8457600080fd5b50565b600081359050612e9681612e70565b92915050565b60008060408385031215612eb357612eb2612c31565b5b6000612ec185828601612e87565b9250506020612ed285828601612dd2565b9150509250929050565b600080fd5b600080fd5b7f4e487b7100000000000000000000000000000000000000000000000000000000600052604160045260246000fd5b612f1e82612d45565b810181811067ffffffffffffffff82111715612f3d57612f3c612ee6565b5b80604052505050565b6000612f50612c27565b9050612f5c8282612f15565b919050565b600067ffffffffffffffff821115612f7c57612f7b612ee6565b5b612f8582612d45565b9050602081019050919050565b82818337600083830152505050565b6000612fb4612faf84612f61565b612f46565b905082815260208101848484011115612fd057612fcf612ee1565b5b612fdb848285612f92565b509392505050565b600082601f830112612ff857612ff7612edc565b5b8135613008848260208601612fa1565b91505092915050565b60008060006060848603121561302a57613029612c31565b5b600084013567ffffffffffffffff81111561304857613047612c36565b5b61305486828701612fe3565b935050602061306586828701612dd2565b925050604061307686828701612dd2565b9150509250925092565b61308981612db1565b82525050565b60006020820190506130a46000830184613080565b92915050565b6000806000606084860312156130c3576130c2612c31565b5b60006130d186828701612e87565b93505060206130e286828701612e87565b92505060406130f386828701612dd2565b9150509250925092565b600082825260208201905092915050565b600061311982612cf6565b61312381856130fd565b9350613133818560208601612d12565b61313c81612d45565b840191505092915050565b600061315282612e14565b9050919050565b61316281613147565b82525050565b61317181612db1565b82525050565b600060c0830160008301518482036000860152613194828261310e565b915050602083015184820360208601526131ae828261310e565b915050604083015184820360408601526131c8828261310e565b91505060608301516131dd6060860182613159565b5060808301516131f06080860182613168565b5060a083015161320360a0860182613168565b508091505092915050565b600060208201905081810360008301526132288184613177565b905092915050565b60006020828403121561324657613245612c31565b5b600061325484828501612e87565b91505092915050565b6080820160008201516132736000850182613168565b5060208201516132866020850182613168565b5060408201516132996040850182613159565b5060608201516132ac6060850182613168565b50505050565b60006080820190506132c7600083018461325d565b92915050565b6132d681612cc0565b81146132e157600080fd5b50565b6000813590506132f3816132cd565b92915050565b600080604083850312156133105761330f612c31565b5b600061331e85828601612e87565b925050602061332f858286016132e4565b9150509250929050565b600067ffffffffffffffff82111561335457613353612ee6565b5b61335d82612d45565b9050602081019050919050565b600061337d61337884613339565b612f46565b90508281526020810184848401111561339957613398612ee1565b5b6133a4848285612f92565b509392505050565b600082601f8301126133c1576133c0612edc565b5b81356133d184826020860161336a565b91505092915050565b600080600080608085870312156133f4576133f3612c31565b5b600061340287828801612e87565b945050602061341387828801612e87565b935050604061342487828801612dd2565b925050606085013567ffffffffffffffff81111561344557613444612c36565b5b613451878288016133ac565b91505092959194509250565b6000806040838503121561347457613473612c31565b5b600061348285828601612e87565b925050602061349385828601612e87565b9150509250929050565b600080600080600060a086880312156134b9576134b8612c31565b5b600086013567ffffffffffffffff8111156134d7576134d6612c36565b5b6134e388828901612fe3565b955050602086013567ffffffffffffffff81111561350457613503612c36565b5b61351088828901612fe3565b945050604086013567ffffffffffffffff81111561353157613530612c36565b5b61353d88828901612fe3565b935050606061354e88828901612dd2565b925050608061355f88828901612dd2565b9150509295509295909350565b7f4e487b7100000000000000000000000000000000000000000000000000000000600052602260045260246000fd5b600060028204905060018216806135b357607f821691505b602082108114156135c7576135c661356c565b5b50919050565b7f4552433732313a20617070726f76656420717565727920666f72206e6f6e657860008201527f697374656e7420746f6b656e0000000000000000000000000000000000000000602082015250565b6000613629602c83612d01565b9150613634826135cd565b604082019050919050565b600060208201905081810360008301526136588161361c565b9050919050565b7f4552433732313a20617070726f76616c20746f2063757272656e74206f776e6560008201527f7200000000000000000000000000000000000000000000000000000000000000602082015250565b60006136bb602183612d01565b91506136c68261365f565b604082019050919050565b600060208201905081810360008301526136ea816136ae565b9050919050565b7f4552433732313a20617070726f76652063616c6c6572206973206e6f74206f7760008201527f6e6572206e6f7220617070726f76656420666f7220616c6c0000000000000000602082015250565b600061374d603883612d01565b9150613758826136f1565b604082019050919050565b6000602082019050818103600083015261377c81613740565b9050919050565b7f506c6561736520656e746572207175616e74697479206c657373207468616e2060008201527f72656d61696e696e67207175616e746974790000000000000000000000000000602082015250565b60006137df603283612d01565b91506137ea82613783565b604082019050919050565b6000602082019050818103600083015261380e816137d2565b9050919050565b600081905092915050565b50565b6000613830600083613815565b915061383b82613820565b600082019050919050565b600061385182613823565b9150819050919050565b7f5061796d656e74206661696c6564000000000000000000000000000000000000600082015250565b6000613891600e83612d01565b915061389c8261385b565b602082019050919050565b600060208201905081810360008301526138c081613884565b9050919050565b7f4e487b7100000000000000000000000000000000000000000000000000000000600052601160045260246000fd5b600061390182612db1565b915061390c83612db1565b92508282101561391f5761391e6138c7565b5b828203905092915050565b7f4552433732313a207472616e736665722063616c6c6572206973206e6f74206f60008201527f776e6572206e6f7220617070726f766564000000000000000000000000000000602082015250565b6000613986603183612d01565b91506139918261392a565b604082019050919050565b600060208201905081810360008301526139b581613979565b9050919050565b7f455243373231456e756d657261626c653a206f776e657220696e646578206f7560008201527f74206f6620626f756e6473000000000000000000000000000000000000000000602082015250565b6000613a18602b83612d01565b9150613a23826139bc565b604082019050919050565b60006020820190508181036000830152613a4781613a0b565b9050919050565b7f455243373231456e756d657261626c653a20676c6f62616c20696e646578206f60008201527f7574206f6620626f756e64730000000000000000000000000000000000000000602082015250565b6000613aaa602c83612d01565b9150613ab582613a4e565b604082019050919050565b60006020820190508181036000830152613ad981613a9d565b9050919050565b7f4e487b7100000000000000000000000000000000000000000000000000000000600052603260045260246000fd5b7f4552433732313a206f776e657220717565727920666f72206e6f6e657869737460008201527f656e7420746f6b656e0000000000000000000000000000000000000000000000602082015250565b6000613b6b602983612d01565b9150613b7682613b0f565b604082019050919050565b60006020820190508181036000830152613b9a81613b5e565b9050919050565b7f456e7465722076616c6964207572690000000000000000000000000000000000600082015250565b6000613bd7600f83612d01565b9150613be282613ba1565b602082019050919050565b60006020820190508181036000830152613c0681613bca565b9050919050565b7f4552433732313a2062616c616e636520717565727920666f7220746865207a6560008201527f726f206164647265737300000000000000000000000000000000000000000000602082015250565b6000613c69602a83612d01565b9150613c7482613c0d565b604082019050919050565b60006020820190508181036000830152613c9881613c5c565b9050919050565b7f4f776e61626c653a2063616c6c6572206973206e6f7420746865206f776e6572600082015250565b6000613cd5602083612d01565b9150613ce082613c9f565b602082019050919050565b60006020820190508181036000830152613d0481613cc8565b9050919050565b7f4f776e61626c653a206e6577206f776e657220697320746865207a65726f206160008201527f6464726573730000000000000000000000000000000000000000000000000000602082015250565b6000613d67602683612d01565b9150613d7282613d0b565b604082019050919050565b60006020820190508181036000830152613d9681613d5a565b9050919050565b6000613da882612db1565b91507fffffffffffffffffffffffffffffffffffffffffffffffffffffffffffffffff821415613ddb57613dda6138c7565b5b600182019050919050565b7f4552433732313a206f70657261746f7220717565727920666f72206e6f6e657860008201527f697374656e7420746f6b656e0000000000000000000000000000000000000000602082015250565b6000613e42602c83612d01565b9150613e4d82613de6565b604082019050919050565b60006020820190508181036000830152613e7181613e35565b9050919050565b7f4552433732313a207472616e736665722066726f6d20696e636f72726563742060008201527f6f776e6572000000000000000000000000000000000000000000000000000000602082015250565b6000613ed4602583612d01565b9150613edf82613e78565b604082019050919050565b60006020820190508181036000830152613f0381613ec7565b9050919050565b7f4552433732313a207472616e7366657220746f20746865207a65726f2061646460008201527f7265737300000000000000000000000000000000000000000000000000000000602082015250565b6000613f66602483612d01565b9150613f7182613f0a565b604082019050919050565b60006020820190508181036000830152613f9581613f59565b9050919050565b6000613fa782612db1565b9150613fb283612db1565b9250827fffffffffffffffffffffffffffffffffffffffffffffffffffffffffffffffff03821115613fe757613fe66138c7565b5b828201905092915050565b7f4552433732313a206d696e7420746f20746865207a65726f2061646472657373600082015250565b6000614028602083612d01565b915061403382613ff2565b602082019050919050565b600060208201905081810360008301526140578161401b565b9050919050565b7f4552433732313a20746f6b656e20616c7265616479206d696e74656400000000600082015250565b6000614094601c83612d01565b915061409f8261405e565b602082019050919050565b600060208201905081810360008301526140c381614087565b9050919050565b7f45524337323155524953746f726167653a2055524920736574206f66206e6f6e60008201527f6578697374656e7420746f6b656e000000000000000000000000000000000000602082015250565b6000614126602e83612d01565b9150614131826140ca565b604082019050919050565b6000602082019050818103600083015261415581614119565b9050919050565b7f4552433732313a20617070726f766520746f2063616c6c657200000000000000600082015250565b6000614192601983612d01565b915061419d8261415c565b602082019050919050565b600060208201905081810360008301526141c181614185565b9050919050565b7f4552433732313a207472616e7366657220746f206e6f6e20455243373231526560008201527f63656976657220696d706c656d656e7465720000000000000000000000000000602082015250565b6000614224603283612d01565b915061422f826141c8565b604082019050919050565b6000602082019050818103600083015261425381614217565b9050919050565b7f45524337323155524953746f726167653a2055524920717565727920666f722060008201527f6e6f6e6578697374656e7420746f6b656e000000000000000000000000000000602082015250565b60006142b6603183612d01565b91506142c18261425a565b604082019050919050565b600060208201905081810360008301526142e5816142a9565b9050919050565b600081905092915050565b600061430282612cf6565b61430c81856142ec565b935061431c818560208601612d12565b80840191505092915050565b600061433482856142f7565b915061434082846142f7565b91508190509392505050565b600081519050919050565b600082825260208201905092915050565b60006143738261434c565b61437d8185614357565b935061438d818560208601612d12565b61439681612d45565b840191505092915050565b60006080820190506143b66000830187612e46565b6143c36020830186612e46565b6143d06040830185613080565b81810360608301526143e28184614368565b905095945050505050565b6000815190506143fc81612c67565b92915050565b60006020828403121561441857614417612c31565b5b6000614426848285016143ed565b91505092915050565b7f4552433732314d657461646174613a2055524920717565727920666f72206e6f60008201527f6e6578697374656e7420746f6b656e0000000000000000000000000000000000602082015250565b600061448b602f83612d01565b91506144968261442f565b604082019050919050565b600060208201905081810360008301526144ba8161447e565b9050919050565b7f4e487b7100000000000000000000000000000000000000000000000000000000600052601260045260246000fd5b60006144fb82612db1565b915061450683612db1565b925082614516576145156144c1565b5b828204905092915050565b600061452c82612db1565b915061453783612db1565b925082614547576145466144c1565b5b828206905092915050565b7f4e487b7100000000000000000000000000000000000000000000000000000000600052603160045260246000fdfea2646970667358221220088d29433e0b6423a188f064f0d6da6c90df80373277411b3c69b6b72ac90dda64736f6c634300080a0033",
  "linkReferences": {},
  "deployedLinkReferences": {}
}