{
    "_format": "hh-sol-artifact-1",
    "contractName": "NexoStudio",
    "sourceName": "contracts/NexoStudio.sol",
    "abi": [
        {
            "inputs": [],
            "stateMutability": "nonpayable",
            "type": "constructor"
        },
        {
            "anonymous": false,
            "inputs": [
                {
                    "indexed": true,
                    "internalType": "address",
                    "name": "owner",
                    "type": "address"
                },
                {
                    "indexed": true,
                    "internalType": "address",
                    "name": "approved",
                    "type": "address"
                },
                {
                    "indexed": true,
                    "internalType": "uint256",
                    "name": "tokenId",
                    "type": "uint256"
                }
            ],
            "name": "Approval",
            "type": "event"
        },
        {
            "anonymous": false,
            "inputs": [
                {
                    "indexed": true,
                    "internalType": "address",
                    "name": "owner",
                    "type": "address"
                },
                {
                    "indexed": true,
                    "internalType": "address",
                    "name": "operator",
                    "type": "address"
                },
                {
                    "indexed": false,
                    "internalType": "bool",
                    "name": "approved",
                    "type": "bool"
                }
            ],
            "name": "ApprovalForAll",
            "type": "event"
        },
        {
            "anonymous": false,
            "inputs": [
                {
                    "indexed": true,
                    "internalType": "address",
                    "name": "previousOwner",
                    "type": "address"
                },
                {
                    "indexed": true,
                    "internalType": "address",
                    "name": "newOwner",
                    "type": "address"
                }
            ],
            "name": "OwnershipTransferred",
            "type": "event"
        },
        {
            "anonymous": false,
            "inputs": [
                {
                    "indexed": true,
                    "internalType": "address",
                    "name": "from",
                    "type": "address"
                },
                {
                    "indexed": true,
                    "internalType": "address",
                    "name": "to",
                    "type": "address"
                },
                {
                    "indexed": true,
                    "internalType": "uint256",
                    "name": "tokenId",
                    "type": "uint256"
                }
            ],
            "name": "Transfer",
            "type": "event"
        },
        {
            "inputs": [
                {
                    "internalType": "address",
                    "name": "to",
                    "type": "address"
                },
                {
                    "internalType": "uint256",
                    "name": "tokenId",
                    "type": "uint256"
                }
            ],
            "name": "approve",
            "outputs": [],
            "stateMutability": "nonpayable",
            "type": "function"
        },
        {
            "inputs": [
                {
                    "internalType": "address",
                    "name": "owner",
                    "type": "address"
                }
            ],
            "name": "balanceOf",
            "outputs": [
                {
                    "internalType": "uint256",
                    "name": "",
                    "type": "uint256"
                }
            ],
            "stateMutability": "view",
            "type": "function"
        },
        {
            "inputs": [
                {
                    "internalType": "string",
                    "name": "uri",
                    "type": "string"
                },
                {
                    "internalType": "uint256",
                    "name": "eventIndex",
                    "type": "uint256"
                },
                {
                    "internalType": "uint256",
                    "name": "quantity",
                    "type": "uint256"
                }
            ],
            "name": "buyTicket",
            "outputs": [],
            "stateMutability": "payable",
            "type": "function"
        },
        {
            "inputs": [
                {
                    "internalType": "uint256",
                    "name": "tokenId",
                    "type": "uint256"
                }
            ],
            "name": "getApproved",
            "outputs": [
                {
                    "internalType": "address",
                    "name": "",
                    "type": "address"
                }
            ],
            "stateMutability": "view",
            "type": "function"
        },
        {
            "inputs": [
                {
                    "internalType": "uint256",
                    "name": "index",
                    "type": "uint256"
                }
            ],
            "name": "getEvent",
            "outputs": [
                {
                    "components": [
                        {
                            "internalType": "string",
                            "name": "title",
                            "type": "string"
                        },
                        {
                            "internalType": "string",
                            "name": "image",
                            "type": "string"
                        },
                        {
                            "internalType": "string",
                            "name": "description",
                            "type": "string"
                        },
                        {
                            "internalType": "address payable",
                            "name": "owner",
                            "type": "address"
                        },
                        {
                            "internalType": "uint256",
                            "name": "price",
                            "type": "uint256"
                        },
                        {
                            "internalType": "uint256",
                            "name": "quantity",
                            "type": "uint256"
                        }
                    ],
                    "internalType": "struct NexoStudio.EventStudio",
                    "name": "",
                    "type": "tuple"
                }
            ],
            "stateMutability": "view",
            "type": "function"
        },
        {
            "inputs": [],
            "name": "getEventLength",
            "outputs": [
                {
                    "internalType": "uint256",
                    "name": "",
                    "type": "uint256"
                }
            ],
            "stateMutability": "view",
            "type": "function"
        },
        {
            "inputs": [],
            "name": "getOwners",
            "outputs": [
                {
                    "internalType": "uint256",
                    "name": "",
                    "type": "uint256"
                }
            ],
            "stateMutability": "view",
            "type": "function"
        },
        {
            "inputs": [
                {
                    "internalType": "uint256",
                    "name": "tokenId",
                    "type": "uint256"
                }
            ],
            "name": "getTicket",
            "outputs": [
                {
                    "components": [
                        {
                            "internalType": "uint256",
                            "name": "tokenId",
                            "type": "uint256"
                        },
                        {
                            "internalType": "uint256",
                            "name": "eventIndex",
                            "type": "uint256"
                        },
                        {
                            "internalType": "address payable",
                            "name": "owner",
                            "type": "address"
                        },
                        {
                            "internalType": "uint256",
                            "name": "quantity",
                            "type": "uint256"
                        }
                    ],
                    "internalType": "struct NexoStudio.Ticket",
                    "name": "",
                    "type": "tuple"
                }
            ],
            "stateMutability": "view",
            "type": "function"
        },
        {
            "inputs": [],
            "name": "getTicketLength",
            "outputs": [
                {
                    "internalType": "uint256",
                    "name": "",
                    "type": "uint256"
                }
            ],
            "stateMutability": "view",
            "type": "function"
        },
        {
            "inputs": [
                {
                    "internalType": "address",
                    "name": "owner",
                    "type": "address"
                },
                {
                    "internalType": "address",
                    "name": "operator",
                    "type": "address"
                }
            ],
            "name": "isApprovedForAll",
            "outputs": [
                {
                    "internalType": "bool",
                    "name": "",
                    "type": "bool"
                }
            ],
            "stateMutability": "view",
            "type": "function"
        },
        {
            "inputs": [],
            "name": "name",
            "outputs": [
                {
                    "internalType": "string",
                    "name": "",
                    "type": "string"
                }
            ],
            "stateMutability": "view",
            "type": "function"
        },
        {
            "inputs": [],
            "name": "owner",
            "outputs": [
                {
                    "internalType": "address",
                    "name": "",
                    "type": "address"
                }
            ],
            "stateMutability": "view",
            "type": "function"
        },
        {
            "inputs": [
                {
                    "internalType": "uint256",
                    "name": "tokenId",
                    "type": "uint256"
                }
            ],
            "name": "ownerOf",
            "outputs": [
                {
                    "internalType": "address",
                    "name": "",
                    "type": "address"
                }
            ],
            "stateMutability": "view",
            "type": "function"
        },
        {
            "inputs": [],
            "name": "renounceOwnership",
            "outputs": [],
            "stateMutability": "nonpayable",
            "type": "function"
        },
        {
            "inputs": [
                {
                    "internalType": "string",
                    "name": "uri",
                    "type": "string"
                },
                {
                    "internalType": "uint256",
                    "name": "eventIndex",
                    "type": "uint256"
                },
                {
                    "internalType": "uint256",
                    "name": "quantity",
                    "type": "uint256"
                }
            ],
            "name": "safeMint",
            "outputs": [
                {
                    "internalType": "uint256",
                    "name": "",
                    "type": "uint256"
                }
            ],
            "stateMutability": "payable",
            "type": "function"
        },
        {
            "inputs": [
                {
                    "internalType": "address",
                    "name": "from",
                    "type": "address"
                },
                {
                    "internalType": "address",
                    "name": "to",
                    "type": "address"
                },
                {
                    "internalType": "uint256",
                    "name": "tokenId",
                    "type": "uint256"
                }
            ],
            "name": "safeTransferFrom",
            "outputs": [],
            "stateMutability": "nonpayable",
            "type": "function"
        },
        {
            "inputs": [
                {
                    "internalType": "address",
                    "name": "from",
                    "type": "address"
                },
                {
                    "internalType": "address",
                    "name": "to",
                    "type": "address"
                },
                {
                    "internalType": "uint256",
                    "name": "tokenId",
                    "type": "uint256"
                },
                {
                    "internalType": "bytes",
                    "name": "_data",
                    "type": "bytes"
                }
            ],
            "name": "safeTransferFrom",
            "outputs": [],
            "stateMutability": "nonpayable",
            "type": "function"
        },
        {
            "inputs": [
                {
                    "internalType": "address",
                    "name": "operator",
                    "type": "address"
                },
                {
                    "internalType": "bool",
                    "name": "approved",
                    "type": "bool"
                }
            ],
            "name": "setApprovalForAll",
            "outputs": [],
            "stateMutability": "nonpayable",
            "type": "function"
        },
        {
            "inputs": [
                {
                    "internalType": "bytes4",
                    "name": "interfaceId",
                    "type": "bytes4"
                }
            ],
            "name": "supportsInterface",
            "outputs": [
                {
                    "internalType": "bool",
                    "name": "",
                    "type": "bool"
                }
            ],
            "stateMutability": "view",
            "type": "function"
        },
        {
            "inputs": [],
            "name": "symbol",
            "outputs": [
                {
                    "internalType": "string",
                    "name": "",
                    "type": "string"
                }
            ],
            "stateMutability": "view",
            "type": "function"
        },
        {
            "inputs": [
                {
                    "internalType": "uint256",
                    "name": "index",
                    "type": "uint256"
                }
            ],
            "name": "tokenByIndex",
            "outputs": [
                {
                    "internalType": "uint256",
                    "name": "",
                    "type": "uint256"
                }
            ],
            "stateMutability": "view",
            "type": "function"
        },
        {
            "inputs": [
                {
                    "internalType": "address",
                    "name": "owner",
                    "type": "address"
                },
                {
                    "internalType": "uint256",
                    "name": "index",
                    "type": "uint256"
                }
            ],
            "name": "tokenOfOwnerByIndex",
            "outputs": [
                {
                    "internalType": "uint256",
                    "name": "",
                    "type": "uint256"
                }
            ],
            "stateMutability": "view",
            "type": "function"
        },
        {
            "inputs": [
                {
                    "internalType": "uint256",
                    "name": "tokenId",
                    "type": "uint256"
                }
            ],
            "name": "tokenURI",
            "outputs": [
                {
                    "internalType": "string",
                    "name": "",
                    "type": "string"
                }
            ],
            "stateMutability": "view",
            "type": "function"
        },
        {
            "inputs": [],
            "name": "totalSupply",
            "outputs": [
                {
                    "internalType": "uint256",
                    "name": "",
                    "type": "uint256"
                }
            ],
            "stateMutability": "view",
            "type": "function"
        },
        {
            "inputs": [
                {
                    "internalType": "address",
                    "name": "from",
                    "type": "address"
                },
                {
                    "internalType": "address",
                    "name": "to",
                    "type": "address"
                },
                {
                    "internalType": "uint256",
                    "name": "tokenId",
                    "type": "uint256"
                }
            ],
            "name": "transferFrom",
            "outputs": [],
            "stateMutability": "nonpayable",
            "type": "function"
        },
        {
            "inputs": [
                {
                    "internalType": "address",
                    "name": "newOwner",
                    "type": "address"
                }
            ],
            "name": "transferOwnership",
            "outputs": [],
            "stateMutability": "nonpayable",
            "type": "function"
        }
    ],
    "bytecode": "0x60806040526000600d556000600e553480156200001b57600080fd5b506040518060400160405280600a81526020017f4e65786f53747564696f000000000000000000000000000000000000000000008152506040518060400160405280600481526020017f4e585354000000000000000000000000000000000000000000000000000000008152508160009080519060200190620000a0929190620001b0565b508060019080519060200190620000b9929190620001b0565b505050620000dc620000d0620000e260201b60201c565b620000ea60201b60201c565b620002c5565b600033905090565b6000600b60009054906101000a900473ffffffffffffffffffffffffffffffffffffffff16905081600b60006101000a81548173ffffffffffffffffffffffffffffffffffffffff021916908373ffffffffffffffffffffffffffffffffffffffff1602179055508173ffffffffffffffffffffffffffffffffffffffff168173ffffffffffffffffffffffffffffffffffffffff167f8be0079c531659141344cd1fd0a4f28419497f9722a3daafe3b4186f6b6457e060405160405180910390a35050565b828054620001be906200028f565b90600052602060002090601f016020900481019282620001e257600085556200022e565b82601f10620001fd57805160ff19168380011785556200022e565b828001600101855582156200022e579182015b828111156200022d57825182559160200191906001019062000210565b5b5090506200023d919062000241565b5090565b5b808211156200025c57600081600090555060010162000242565b5090565b7f4e487b7100000000000000000000000000000000000000000000000000000000600052602260045260246000fd5b60006002820490506001821680620002a857607f821691505b60208210811415620002bf57620002be62000260565b5b50919050565b61437880620002d56000396000f3fe6080604052600436106101815760003560e01c80636e1f94e1116100d1578063a0e67e2b1161008a578063c87b56dd11610064578063c87b56dd146105a0578063e985e9c5146105dd578063f2fde38b1461061a578063f918c7811461064357610181565b8063a0e67e2b14610523578063a22cb4651461054e578063b88d4fde1461057757610181565b80636e1f94e11461040c57806370a082311461043c578063715018a6146104795780637dc379fa146104905780638da5cb5b146104cd57806395d89b41146104f857610181565b806323b872dd1161013e5780634f6ccce7116101185780634f6ccce71461032a5780635c98dfa1146103675780636352211e146103925780636d1884e0146103cf57610181565b806323b872dd1461029b5780632f745c59146102c457806342842e0e1461030157610181565b806301ffc9a71461018657806306fdde03146101c3578063081812fc146101ee578063095ea7b31461022b5780631443d3ec1461025457806318160ddd14610270575b600080fd5b34801561019257600080fd5b506101ad60048036038101906101a89190612b23565b61066e565b6040516101ba9190612b6b565b60405180910390f35b3480156101cf57600080fd5b506101d8610680565b6040516101e59190612c1f565b60405180910390f35b3480156101fa57600080fd5b5061021560048036038101906102109190612c77565b610712565b6040516102229190612ce5565b60405180910390f35b34801561023757600080fd5b50610252600480360381019061024d9190612d2c565b610797565b005b61026e60048036038101906102699190612ea1565b6108af565b005b34801561027c57600080fd5b50610285610a49565b6040516102929190612f1f565b60405180910390f35b3480156102a757600080fd5b506102c260048036038101906102bd9190612f3a565b610a56565b005b3480156102d057600080fd5b506102eb60048036038101906102e69190612d2c565b610ab6565b6040516102f89190612f1f565b60405180910390f35b34801561030d57600080fd5b5061032860048036038101906103239190612f3a565b610b5b565b005b34801561033657600080fd5b50610351600480360381019061034c9190612c77565b610b7b565b60405161035e9190612f1f565b60405180910390f35b34801561037357600080fd5b5061037c610bec565b6040516103899190612f1f565b60405180910390f35b34801561039e57600080fd5b506103b960048036038101906103b49190612c77565b610bf6565b6040516103c69190612ce5565b60405180910390f35b3480156103db57600080fd5b506103f660048036038101906103f19190612c77565b610ca8565b604051610403919061309e565b60405180910390f35b61042660048036038101906104219190612ea1565b610ef5565b6040516104339190612f1f565b60405180910390f35b34801561044857600080fd5b50610463600480360381019061045e91906130c0565b610f7c565b6040516104709190612f1f565b60405180910390f35b34801561048557600080fd5b5061048e611034565b005b34801561049c57600080fd5b506104b760048036038101906104b29190612c77565b6110bc565b6040516104c49190613142565b60405180910390f35b3480156104d957600080fd5b506104e261115d565b6040516104ef9190612ce5565b60405180910390f35b34801561050457600080fd5b5061050d611187565b60405161051a9190612c1f565b60405180910390f35b34801561052f57600080fd5b50610538611219565b6040516105459190612f1f565b60405180910390f35b34801561055a57600080fd5b5061057560048036038101906105709190613189565b611223565b005b34801561058357600080fd5b5061059e6004803603810190610599919061326a565b611239565b005b3480156105ac57600080fd5b506105c760048036038101906105c29190612c77565b61129b565b6040516105d49190612c1f565b60405180910390f35b3480156105e957600080fd5b5061060460048036038101906105ff91906132ed565b6112ad565b6040516106119190612b6b565b60405180910390f35b34801561062657600080fd5b50610641600480360381019061063c91906130c0565b611341565b005b34801561064f57600080fd5b50610658611439565b6040516106659190612f1f565b60405180910390f35b60006106798261144a565b9050919050565b60606000805461068f9061335c565b80601f01602080910402602001604051908101604052809291908181526020018280546106bb9061335c565b80156107085780601f106106dd57610100808354040283529160200191610708565b820191906000526020600020905b8154815290600101906020018083116106eb57829003601f168201915b5050505050905090565b600061071d826114c4565b61075c576040517f08c379a000000000000000000000000000000000000000000000000000000000815260040161075390613400565b60405180910390fd5b6004600083815260200190815260200160002060009054906101000a900473ffffffffffffffffffffffffffffffffffffffff169050919050565b60006107a282610bf6565b90508073ffffffffffffffffffffffffffffffffffffffff168373ffffffffffffffffffffffffffffffffffffffff161415610813576040517f08c379a000000000000000000000000000000000000000000000000000000000815260040161080a90613492565b60405180910390fd5b8073ffffffffffffffffffffffffffffffffffffffff16610832611530565b73ffffffffffffffffffffffffffffffffffffffff16148061086157506108608161085b611530565b6112ad565b5b6108a0576040517f08c379a000000000000000000000000000000000000000000000000000000000815260040161089790613524565b60405180910390fd5b6108aa8383611538565b505050565b6000600f600084815260200190815260200160002060030160009054906101000a900473ffffffffffffffffffffffffffffffffffffffff169050600f6000848152602001908152602001600020600501548211610942576040517f08c379a0000000000000000000000000000000000000000000000000000000008152600401610939906135b6565b60405180910390fd5b600034905060008273ffffffffffffffffffffffffffffffffffffffff168260405161096d90613607565b60006040518083038185875af1925050503d80600081146109aa576040519150601f19603f3d011682016040523d82523d6000602084013e6109af565b606091505b50509050806109f3576040517f08c379a00000000000000000000000000000000000000000000000000000000081526004016109ea90613668565b60405180910390fd5b600084600f600088815260200190815260200160002060050154610a1791906136b7565b905080600f600088815260200190815260200160002060050181905550610a3f878787610ef5565b5050505050505050565b6000600880549050905090565b610a67610a61611530565b826115f1565b610aa6576040517f08c379a0000000000000000000000000000000000000000000000000000000008152600401610a9d9061375d565b60405180910390fd5b610ab18383836116cf565b505050565b6000610ac183610f7c565b8210610b02576040517f08c379a0000000000000000000000000000000000000000000000000000000008152600401610af9906137ef565b60405180910390fd5b600660008473ffffffffffffffffffffffffffffffffffffffff1673ffffffffffffffffffffffffffffffffffffffff168152602001908152602001600020600083815260200190815260200160002054905092915050565b610b7683838360405180602001604052806000815250611239565b505050565b6000610b85610a49565b8210610bc6576040517f08c379a0000000000000000000000000000000000000000000000000000000008152600401610bbd90613881565b60405180910390fd5b60088281548110610bda57610bd96138a1565b5b90600052602060002001549050919050565b6000600d54905090565b6000806002600084815260200190815260200160002060009054906101000a900473ffffffffffffffffffffffffffffffffffffffff169050600073ffffffffffffffffffffffffffffffffffffffff168173ffffffffffffffffffffffffffffffffffffffff161415610c9f576040517f08c379a0000000000000000000000000000000000000000000000000000000008152600401610c9690613942565b60405180910390fd5b80915050919050565b610cb061298a565b600f60008381526020019081526020016000206040518060c0016040529081600082018054610cde9061335c565b80601f0160208091040260200160405190810160405280929190818152602001828054610d0a9061335c565b8015610d575780601f10610d2c57610100808354040283529160200191610d57565b820191906000526020600020905b815481529060010190602001808311610d3a57829003601f168201915b50505050508152602001600182018054610d709061335c565b80601f0160208091040260200160405190810160405280929190818152602001828054610d9c9061335c565b8015610de95780601f10610dbe57610100808354040283529160200191610de9565b820191906000526020600020905b815481529060010190602001808311610dcc57829003601f168201915b50505050508152602001600282018054610e029061335c565b80601f0160208091040260200160405190810160405280929190818152602001828054610e2e9061335c565b8015610e7b5780601f10610e5057610100808354040283529160200191610e7b565b820191906000526020600020905b815481529060010190602001808311610e5e57829003601f168201915b505050505081526020016003820160009054906101000a900473ffffffffffffffffffffffffffffffffffffffff1673ffffffffffffffffffffffffffffffffffffffff1673ffffffffffffffffffffffffffffffffffffffff168152602001600482015481526020016005820154815250509050919050565b600080845111610f3a576040517f08c379a0000000000000000000000000000000000000000000000000000000008152600401610f31906139ae565b60405180910390fd5b6000610f46600c611936565b9050610f52600c611944565b610f5c338261195a565b610f668186611b34565b610f71818585611ba8565b809150509392505050565b60008073ffffffffffffffffffffffffffffffffffffffff168273ffffffffffffffffffffffffffffffffffffffff161415610fed576040517f08c379a0000000000000000000000000000000000000000000000000000000008152600401610fe490613a40565b60405180910390fd5b600360008373ffffffffffffffffffffffffffffffffffffffff1673ffffffffffffffffffffffffffffffffffffffff168152602001908152602001600020549050919050565b61103c611530565b73ffffffffffffffffffffffffffffffffffffffff1661105a61115d565b73ffffffffffffffffffffffffffffffffffffffff16146110b0576040517f08c379a00000000000000000000000000000000000000000000000000000000081526004016110a790613aac565b60405180910390fd5b6110ba6000611c5f565b565b6110c46129d6565b6010600083815260200190815260200160002060405180608001604052908160008201548152602001600182015481526020016002820160009054906101000a900473ffffffffffffffffffffffffffffffffffffffff1673ffffffffffffffffffffffffffffffffffffffff1673ffffffffffffffffffffffffffffffffffffffff1681526020016003820154815250509050919050565b6000600b60009054906101000a900473ffffffffffffffffffffffffffffffffffffffff16905090565b6060600180546111969061335c565b80601f01602080910402602001604051908101604052809291908181526020018280546111c29061335c565b801561120f5780601f106111e45761010080835404028352916020019161120f565b820191906000526020600020905b8154815290600101906020018083116111f257829003601f168201915b5050505050905090565b6000600e54905090565b61123561122e611530565b8383611d25565b5050565b61124a611244611530565b836115f1565b611289576040517f08c379a00000000000000000000000000000000000000000000000000000000081526004016112809061375d565b60405180910390fd5b61129584848484611e92565b50505050565b60606112a682611eee565b9050919050565b6000600560008473ffffffffffffffffffffffffffffffffffffffff1673ffffffffffffffffffffffffffffffffffffffff16815260200190815260200160002060008373ffffffffffffffffffffffffffffffffffffffff1673ffffffffffffffffffffffffffffffffffffffff16815260200190815260200160002060009054906101000a900460ff16905092915050565b611349611530565b73ffffffffffffffffffffffffffffffffffffffff1661136761115d565b73ffffffffffffffffffffffffffffffffffffffff16146113bd576040517f08c379a00000000000000000000000000000000000000000000000000000000081526004016113b490613aac565b60405180910390fd5b600073ffffffffffffffffffffffffffffffffffffffff168173ffffffffffffffffffffffffffffffffffffffff16141561142d576040517f08c379a000000000000000000000000000000000000000000000000000000000815260040161142490613b3e565b60405180910390fd5b61143681611c5f565b50565b6000611445600c611936565b905090565b60007f780e9d63000000000000000000000000000000000000000000000000000000007bffffffffffffffffffffffffffffffffffffffffffffffffffffffff1916827bffffffffffffffffffffffffffffffffffffffffffffffffffffffff191614806114bd57506114bc82612040565b5b9050919050565b60008073ffffffffffffffffffffffffffffffffffffffff166002600084815260200190815260200160002060009054906101000a900473ffffffffffffffffffffffffffffffffffffffff1673ffffffffffffffffffffffffffffffffffffffff1614159050919050565b600033905090565b816004600083815260200190815260200160002060006101000a81548173ffffffffffffffffffffffffffffffffffffffff021916908373ffffffffffffffffffffffffffffffffffffffff160217905550808273ffffffffffffffffffffffffffffffffffffffff166115ab83610bf6565b73ffffffffffffffffffffffffffffffffffffffff167f8c5be1e5ebec7d5bd14f71427d1e84f3dd0314c0f7b2291e5b200ac8c7c3b92560405160405180910390a45050565b60006115fc826114c4565b61163b576040517f08c379a000000000000000000000000000000000000000000000000000000000815260040161163290613bd0565b60405180910390fd5b600061164683610bf6565b90508073ffffffffffffffffffffffffffffffffffffffff168473ffffffffffffffffffffffffffffffffffffffff161480611688575061168781856112ad565b5b806116c657508373ffffffffffffffffffffffffffffffffffffffff166116ae84610712565b73ffffffffffffffffffffffffffffffffffffffff16145b91505092915050565b8273ffffffffffffffffffffffffffffffffffffffff166116ef82610bf6565b73ffffffffffffffffffffffffffffffffffffffff1614611745576040517f08c379a000000000000000000000000000000000000000000000000000000000815260040161173c90613c62565b60405180910390fd5b600073ffffffffffffffffffffffffffffffffffffffff168273ffffffffffffffffffffffffffffffffffffffff1614156117b5576040517f08c379a00000000000000000000000000000000000000000000000000000000081526004016117ac90613cf4565b60405180910390fd5b6117c0838383612122565b6117cb600082611538565b6001600360008573ffffffffffffffffffffffffffffffffffffffff1673ffffffffffffffffffffffffffffffffffffffff168152602001908152602001600020600082825461181b91906136b7565b925050819055506001600360008473ffffffffffffffffffffffffffffffffffffffff1673ffffffffffffffffffffffffffffffffffffffff16815260200190815260200160002060008282546118729190613d14565b92505081905550816002600083815260200190815260200160002060006101000a81548173ffffffffffffffffffffffffffffffffffffffff021916908373ffffffffffffffffffffffffffffffffffffffff160217905550808273ffffffffffffffffffffffffffffffffffffffff168473ffffffffffffffffffffffffffffffffffffffff167fddf252ad1be2c89b69c2b068fc378daa952ba7f163c4a11628f55a4df523b3ef60405160405180910390a4611931838383612132565b505050565b600081600001549050919050565b6001816000016000828254019250508190555050565b600073ffffffffffffffffffffffffffffffffffffffff168273ffffffffffffffffffffffffffffffffffffffff1614156119ca576040517f08c379a00000000000000000000000000000000000000000000000000000000081526004016119c190613db6565b60405180910390fd5b6119d3816114c4565b15611a13576040517f08c379a0000000000000000000000000000000000000000000000000000000008152600401611a0a90613e22565b60405180910390fd5b611a1f60008383612122565b6001600360008473ffffffffffffffffffffffffffffffffffffffff1673ffffffffffffffffffffffffffffffffffffffff1681526020019081526020016000206000828254611a6f9190613d14565b92505081905550816002600083815260200190815260200160002060006101000a81548173ffffffffffffffffffffffffffffffffffffffff021916908373ffffffffffffffffffffffffffffffffffffffff160217905550808273ffffffffffffffffffffffffffffffffffffffff16600073ffffffffffffffffffffffffffffffffffffffff167fddf252ad1be2c89b69c2b068fc378daa952ba7f163c4a11628f55a4df523b3ef60405160405180910390a4611b3060008383612132565b5050565b611b3d826114c4565b611b7c576040517f08c379a0000000000000000000000000000000000000000000000000000000008152600401611b7390613eb4565b60405180910390fd5b80600a60008481526020019081526020016000209080519060200190611ba3929190612a14565b505050565b60405180608001604052808481526020018381526020013373ffffffffffffffffffffffffffffffffffffffff1681526020018281525060106000858152602001908152602001600020600082015181600001556020820151816001015560408201518160020160006101000a81548173ffffffffffffffffffffffffffffffffffffffff021916908373ffffffffffffffffffffffffffffffffffffffff16021790555060608201518160030155905050505050565b6000600b60009054906101000a900473ffffffffffffffffffffffffffffffffffffffff16905081600b60006101000a81548173ffffffffffffffffffffffffffffffffffffffff021916908373ffffffffffffffffffffffffffffffffffffffff1602179055508173ffffffffffffffffffffffffffffffffffffffff168173ffffffffffffffffffffffffffffffffffffffff167f8be0079c531659141344cd1fd0a4f28419497f9722a3daafe3b4186f6b6457e060405160405180910390a35050565b8173ffffffffffffffffffffffffffffffffffffffff168373ffffffffffffffffffffffffffffffffffffffff161415611d94576040517f08c379a0000000000000000000000000000000000000000000000000000000008152600401611d8b90613f20565b60405180910390fd5b80600560008573ffffffffffffffffffffffffffffffffffffffff1673ffffffffffffffffffffffffffffffffffffffff16815260200190815260200160002060008473ffffffffffffffffffffffffffffffffffffffff1673ffffffffffffffffffffffffffffffffffffffff16815260200190815260200160002060006101000a81548160ff0219169083151502179055508173ffffffffffffffffffffffffffffffffffffffff168373ffffffffffffffffffffffffffffffffffffffff167f17307eab39ab6107e8899845ad3d59bd9653f200f220920489ca2b5937696c3183604051611e859190612b6b565b60405180910390a3505050565b611e9d8484846116cf565b611ea984848484612137565b611ee8576040517f08c379a0000000000000000000000000000000000000000000000000000000008152600401611edf90613fb2565b60405180910390fd5b50505050565b6060611ef9826114c4565b611f38576040517f08c379a0000000000000000000000000000000000000000000000000000000008152600401611f2f90614044565b60405180910390fd5b6000600a60008481526020019081526020016000208054611f589061335c565b80601f0160208091040260200160405190810160405280929190818152602001828054611f849061335c565b8015611fd15780601f10611fa657610100808354040283529160200191611fd1565b820191906000526020600020905b815481529060010190602001808311611fb457829003601f168201915b505050505090506000611fe26122bf565b9050600081511415611ff857819250505061203b565b60008251111561202d5780826040516020016120159291906140a0565b6040516020818303038152906040529250505061203b565b612036846122d6565b925050505b919050565b60007f80ac58cd000000000000000000000000000000000000000000000000000000007bffffffffffffffffffffffffffffffffffffffffffffffffffffffff1916827bffffffffffffffffffffffffffffffffffffffffffffffffffffffff1916148061210b57507f5b5e139f000000000000000000000000000000000000000000000000000000007bffffffffffffffffffffffffffffffffffffffffffffffffffffffff1916827bffffffffffffffffffffffffffffffffffffffffffffffffffffffff1916145b8061211b575061211a8261237d565b5b9050919050565b61212d8383836123e7565b505050565b505050565b60006121588473ffffffffffffffffffffffffffffffffffffffff166124fb565b156122b2578373ffffffffffffffffffffffffffffffffffffffff1663150b7a02612181611530565b8786866040518563ffffffff1660e01b81526004016121a39493929190614119565b6020604051808303816000875af19250505080156121df57506040513d601f19601f820116820180604052508101906121dc919061417a565b60015b612262573d806000811461220f576040519150601f19603f3d011682016040523d82523d6000602084013e612214565b606091505b5060008151141561225a576040517f08c379a000000000000000000000000000000000000000000000000000000000815260040161225190613fb2565b60405180910390fd5b805181602001fd5b63150b7a0260e01b7bffffffffffffffffffffffffffffffffffffffffffffffffffffffff1916817bffffffffffffffffffffffffffffffffffffffffffffffffffffffff1916149150506122b7565b600190505b949350505050565b606060405180602001604052806000815250905090565b60606122e1826114c4565b612320576040517f08c379a000000000000000000000000000000000000000000000000000000000815260040161231790614219565b60405180910390fd5b600061232a6122bf565b9050600081511161234a5760405180602001604052806000815250612375565b806123548461251e565b6040516020016123659291906140a0565b6040516020818303038152906040525b915050919050565b60007f01ffc9a7000000000000000000000000000000000000000000000000000000007bffffffffffffffffffffffffffffffffffffffffffffffffffffffff1916827bffffffffffffffffffffffffffffffffffffffffffffffffffffffff1916149050919050565b6123f283838361267f565b600073ffffffffffffffffffffffffffffffffffffffff168373ffffffffffffffffffffffffffffffffffffffff1614156124355761243081612684565b612474565b8173ffffffffffffffffffffffffffffffffffffffff168373ffffffffffffffffffffffffffffffffffffffff16146124735761247283826126cd565b5b5b600073ffffffffffffffffffffffffffffffffffffffff168273ffffffffffffffffffffffffffffffffffffffff1614156124b7576124b28161283a565b6124f6565b8273ffffffffffffffffffffffffffffffffffffffff168273ffffffffffffffffffffffffffffffffffffffff16146124f5576124f4828261290b565b5b5b505050565b6000808273ffffffffffffffffffffffffffffffffffffffff163b119050919050565b60606000821415612566576040518060400160405280600181526020017f3000000000000000000000000000000000000000000000000000000000000000815250905061267a565b600082905060005b6000821461259857808061258190614239565b915050600a8261259191906142b1565b915061256e565b60008167ffffffffffffffff8111156125b4576125b3612d76565b5b6040519080825280601f01601f1916602001820160405280156125e65781602001600182028036833780820191505090505b5090505b60008514612673576001826125ff91906136b7565b9150600a8561260e91906142e2565b603061261a9190613d14565b60f81b8183815181106126305761262f6138a1565b5b60200101907effffffffffffffffffffffffffffffffffffffffffffffffffffffffffffff1916908160001a905350600a8561266c91906142b1565b94506125ea565b8093505050505b919050565b505050565b6008805490506009600083815260200190815260200160002081905550600881908060018154018082558091505060019003906000526020600020016000909190919091505550565b600060016126da84610f7c565b6126e491906136b7565b90506000600760008481526020019081526020016000205490508181146127c9576000600660008673ffffffffffffffffffffffffffffffffffffffff1673ffffffffffffffffffffffffffffffffffffffff168152602001908152602001600020600084815260200190815260200160002054905080600660008773ffffffffffffffffffffffffffffffffffffffff1673ffffffffffffffffffffffffffffffffffffffff168152602001908152602001600020600084815260200190815260200160002081905550816007600083815260200190815260200160002081905550505b6007600084815260200190815260200160002060009055600660008573ffffffffffffffffffffffffffffffffffffffff1673ffffffffffffffffffffffffffffffffffffffff16815260200190815260200160002060008381526020019081526020016000206000905550505050565b6000600160088054905061284e91906136b7565b905060006009600084815260200190815260200160002054905060006008838154811061287e5761287d6138a1565b5b9060005260206000200154905080600883815481106128a05761289f6138a1565b5b9060005260206000200181905550816009600083815260200190815260200160002081905550600960008581526020019081526020016000206000905560088054806128ef576128ee614313565b5b6001900381819060005260206000200160009055905550505050565b600061291683610f7c565b905081600660008573ffffffffffffffffffffffffffffffffffffffff1673ffffffffffffffffffffffffffffffffffffffff168152602001908152602001600020600083815260200190815260200160002081905550806007600084815260200190815260200160002081905550505050565b6040518060c00160405280606081526020016060815260200160608152602001600073ffffffffffffffffffffffffffffffffffffffff16815260200160008152602001600081525090565b60405180608001604052806000815260200160008152602001600073ffffffffffffffffffffffffffffffffffffffff168152602001600081525090565b828054612a209061335c565b90600052602060002090601f016020900481019282612a425760008555612a89565b82601f10612a5b57805160ff1916838001178555612a89565b82800160010185558215612a89579182015b82811115612a88578251825591602001919060010190612a6d565b5b509050612a969190612a9a565b5090565b5b80821115612ab3576000816000905550600101612a9b565b5090565b6000604051905090565b600080fd5b600080fd5b60007fffffffff0000000000000000000000000000000000000000000000000000000082169050919050565b612b0081612acb565b8114612b0b57600080fd5b50565b600081359050612b1d81612af7565b92915050565b600060208284031215612b3957612b38612ac1565b5b6000612b4784828501612b0e565b91505092915050565b60008115159050919050565b612b6581612b50565b82525050565b6000602082019050612b806000830184612b5c565b92915050565b600081519050919050565b600082825260208201905092915050565b60005b83811015612bc0578082015181840152602081019050612ba5565b83811115612bcf576000848401525b50505050565b6000601f19601f8301169050919050565b6000612bf182612b86565b612bfb8185612b91565b9350612c0b818560208601612ba2565b612c1481612bd5565b840191505092915050565b60006020820190508181036000830152612c398184612be6565b905092915050565b6000819050919050565b612c5481612c41565b8114612c5f57600080fd5b50565b600081359050612c7181612c4b565b92915050565b600060208284031215612c8d57612c8c612ac1565b5b6000612c9b84828501612c62565b91505092915050565b600073ffffffffffffffffffffffffffffffffffffffff82169050919050565b6000612ccf82612ca4565b9050919050565b612cdf81612cc4565b82525050565b6000602082019050612cfa6000830184612cd6565b92915050565b612d0981612cc4565b8114612d1457600080fd5b50565b600081359050612d2681612d00565b92915050565b60008060408385031215612d4357612d42612ac1565b5b6000612d5185828601612d17565b9250506020612d6285828601612c62565b9150509250929050565b600080fd5b600080fd5b7f4e487b7100000000000000000000000000000000000000000000000000000000600052604160045260246000fd5b612dae82612bd5565b810181811067ffffffffffffffff82111715612dcd57612dcc612d76565b5b80604052505050565b6000612de0612ab7565b9050612dec8282612da5565b919050565b600067ffffffffffffffff821115612e0c57612e0b612d76565b5b612e1582612bd5565b9050602081019050919050565b82818337600083830152505050565b6000612e44612e3f84612df1565b612dd6565b905082815260208101848484011115612e6057612e5f612d71565b5b612e6b848285612e22565b509392505050565b600082601f830112612e8857612e87612d6c565b5b8135612e98848260208601612e31565b91505092915050565b600080600060608486031215612eba57612eb9612ac1565b5b600084013567ffffffffffffffff811115612ed857612ed7612ac6565b5b612ee486828701612e73565b9350506020612ef586828701612c62565b9250506040612f0686828701612c62565b9150509250925092565b612f1981612c41565b82525050565b6000602082019050612f346000830184612f10565b92915050565b600080600060608486031215612f5357612f52612ac1565b5b6000612f6186828701612d17565b9350506020612f7286828701612d17565b9250506040612f8386828701612c62565b9150509250925092565b600082825260208201905092915050565b6000612fa982612b86565b612fb38185612f8d565b9350612fc3818560208601612ba2565b612fcc81612bd5565b840191505092915050565b6000612fe282612ca4565b9050919050565b612ff281612fd7565b82525050565b61300181612c41565b82525050565b600060c08301600083015184820360008601526130248282612f9e565b9150506020830151848203602086015261303e8282612f9e565b915050604083015184820360408601526130588282612f9e565b915050606083015161306d6060860182612fe9565b5060808301516130806080860182612ff8565b5060a083015161309360a0860182612ff8565b508091505092915050565b600060208201905081810360008301526130b88184613007565b905092915050565b6000602082840312156130d6576130d5612ac1565b5b60006130e484828501612d17565b91505092915050565b6080820160008201516131036000850182612ff8565b5060208201516131166020850182612ff8565b5060408201516131296040850182612fe9565b50606082015161313c6060850182612ff8565b50505050565b600060808201905061315760008301846130ed565b92915050565b61316681612b50565b811461317157600080fd5b50565b6000813590506131838161315d565b92915050565b600080604083850312156131a05761319f612ac1565b5b60006131ae85828601612d17565b92505060206131bf85828601613174565b9150509250929050565b600067ffffffffffffffff8211156131e4576131e3612d76565b5b6131ed82612bd5565b9050602081019050919050565b600061320d613208846131c9565b612dd6565b90508281526020810184848401111561322957613228612d71565b5b613234848285612e22565b509392505050565b600082601f83011261325157613250612d6c565b5b81356132618482602086016131fa565b91505092915050565b6000806000806080858703121561328457613283612ac1565b5b600061329287828801612d17565b94505060206132a387828801612d17565b93505060406132b487828801612c62565b925050606085013567ffffffffffffffff8111156132d5576132d4612ac6565b5b6132e18782880161323c565b91505092959194509250565b6000806040838503121561330457613303612ac1565b5b600061331285828601612d17565b925050602061332385828601612d17565b9150509250929050565b7f4e487b7100000000000000000000000000000000000000000000000000000000600052602260045260246000fd5b6000600282049050600182168061337457607f821691505b602082108114156133885761338761332d565b5b50919050565b7f4552433732313a20617070726f76656420717565727920666f72206e6f6e657860008201527f697374656e7420746f6b656e0000000000000000000000000000000000000000602082015250565b60006133ea602c83612b91565b91506133f58261338e565b604082019050919050565b60006020820190508181036000830152613419816133dd565b9050919050565b7f4552433732313a20617070726f76616c20746f2063757272656e74206f776e6560008201527f7200000000000000000000000000000000000000000000000000000000000000602082015250565b600061347c602183612b91565b915061348782613420565b604082019050919050565b600060208201905081810360008301526134ab8161346f565b9050919050565b7f4552433732313a20617070726f76652063616c6c6572206973206e6f74206f7760008201527f6e6572206e6f7220617070726f76656420666f7220616c6c0000000000000000602082015250565b600061350e603883612b91565b9150613519826134b2565b604082019050919050565b6000602082019050818103600083015261353d81613501565b9050919050565b7f506c6561736520656e746572207175616e74697479206c657373207468616e2060008201527f72656d61696e696e67207175616e746974790000000000000000000000000000602082015250565b60006135a0603283612b91565b91506135ab82613544565b604082019050919050565b600060208201905081810360008301526135cf81613593565b9050919050565b600081905092915050565b50565b60006135f16000836135d6565b91506135fc826135e1565b600082019050919050565b6000613612826135e4565b9150819050919050565b7f5061796d656e74206661696c6564000000000000000000000000000000000000600082015250565b6000613652600e83612b91565b915061365d8261361c565b602082019050919050565b6000602082019050818103600083015261368181613645565b9050919050565b7f4e487b7100000000000000000000000000000000000000000000000000000000600052601160045260246000fd5b60006136c282612c41565b91506136cd83612c41565b9250828210156136e0576136df613688565b5b828203905092915050565b7f4552433732313a207472616e736665722063616c6c6572206973206e6f74206f60008201527f776e6572206e6f7220617070726f766564000000000000000000000000000000602082015250565b6000613747603183612b91565b9150613752826136eb565b604082019050919050565b600060208201905081810360008301526137768161373a565b9050919050565b7f455243373231456e756d657261626c653a206f776e657220696e646578206f7560008201527f74206f6620626f756e6473000000000000000000000000000000000000000000602082015250565b60006137d9602b83612b91565b91506137e48261377d565b604082019050919050565b60006020820190508181036000830152613808816137cc565b9050919050565b7f455243373231456e756d657261626c653a20676c6f62616c20696e646578206f60008201527f7574206f6620626f756e64730000000000000000000000000000000000000000602082015250565b600061386b602c83612b91565b91506138768261380f565b604082019050919050565b6000602082019050818103600083015261389a8161385e565b9050919050565b7f4e487b7100000000000000000000000000000000000000000000000000000000600052603260045260246000fd5b7f4552433732313a206f776e657220717565727920666f72206e6f6e657869737460008201527f656e7420746f6b656e0000000000000000000000000000000000000000000000602082015250565b600061392c602983612b91565b9150613937826138d0565b604082019050919050565b6000602082019050818103600083015261395b8161391f565b9050919050565b7f456e7465722076616c6964207572690000000000000000000000000000000000600082015250565b6000613998600f83612b91565b91506139a382613962565b602082019050919050565b600060208201905081810360008301526139c78161398b565b9050919050565b7f4552433732313a2062616c616e636520717565727920666f7220746865207a6560008201527f726f206164647265737300000000000000000000000000000000000000000000602082015250565b6000613a2a602a83612b91565b9150613a35826139ce565b604082019050919050565b60006020820190508181036000830152613a5981613a1d565b9050919050565b7f4f776e61626c653a2063616c6c6572206973206e6f7420746865206f776e6572600082015250565b6000613a96602083612b91565b9150613aa182613a60565b602082019050919050565b60006020820190508181036000830152613ac581613a89565b9050919050565b7f4f776e61626c653a206e6577206f776e657220697320746865207a65726f206160008201527f6464726573730000000000000000000000000000000000000000000000000000602082015250565b6000613b28602683612b91565b9150613b3382613acc565b604082019050919050565b60006020820190508181036000830152613b5781613b1b565b9050919050565b7f4552433732313a206f70657261746f7220717565727920666f72206e6f6e657860008201527f697374656e7420746f6b656e0000000000000000000000000000000000000000602082015250565b6000613bba602c83612b91565b9150613bc582613b5e565b604082019050919050565b60006020820190508181036000830152613be981613bad565b9050919050565b7f4552433732313a207472616e736665722066726f6d20696e636f72726563742060008201527f6f776e6572000000000000000000000000000000000000000000000000000000602082015250565b6000613c4c602583612b91565b9150613c5782613bf0565b604082019050919050565b60006020820190508181036000830152613c7b81613c3f565b9050919050565b7f4552433732313a207472616e7366657220746f20746865207a65726f2061646460008201527f7265737300000000000000000000000000000000000000000000000000000000602082015250565b6000613cde602483612b91565b9150613ce982613c82565b604082019050919050565b60006020820190508181036000830152613d0d81613cd1565b9050919050565b6000613d1f82612c41565b9150613d2a83612c41565b9250827fffffffffffffffffffffffffffffffffffffffffffffffffffffffffffffffff03821115613d5f57613d5e613688565b5b828201905092915050565b7f4552433732313a206d696e7420746f20746865207a65726f2061646472657373600082015250565b6000613da0602083612b91565b9150613dab82613d6a565b602082019050919050565b60006020820190508181036000830152613dcf81613d93565b9050919050565b7f4552433732313a20746f6b656e20616c7265616479206d696e74656400000000600082015250565b6000613e0c601c83612b91565b9150613e1782613dd6565b602082019050919050565b60006020820190508181036000830152613e3b81613dff565b9050919050565b7f45524337323155524953746f726167653a2055524920736574206f66206e6f6e60008201527f6578697374656e7420746f6b656e000000000000000000000000000000000000602082015250565b6000613e9e602e83612b91565b9150613ea982613e42565b604082019050919050565b60006020820190508181036000830152613ecd81613e91565b9050919050565b7f4552433732313a20617070726f766520746f2063616c6c657200000000000000600082015250565b6000613f0a601983612b91565b9150613f1582613ed4565b602082019050919050565b60006020820190508181036000830152613f3981613efd565b9050919050565b7f4552433732313a207472616e7366657220746f206e6f6e20455243373231526560008201527f63656976657220696d706c656d656e7465720000000000000000000000000000602082015250565b6000613f9c603283612b91565b9150613fa782613f40565b604082019050919050565b60006020820190508181036000830152613fcb81613f8f565b9050919050565b7f45524337323155524953746f726167653a2055524920717565727920666f722060008201527f6e6f6e6578697374656e7420746f6b656e000000000000000000000000000000602082015250565b600061402e603183612b91565b915061403982613fd2565b604082019050919050565b6000602082019050818103600083015261405d81614021565b9050919050565b600081905092915050565b600061407a82612b86565b6140848185614064565b9350614094818560208601612ba2565b80840191505092915050565b60006140ac828561406f565b91506140b8828461406f565b91508190509392505050565b600081519050919050565b600082825260208201905092915050565b60006140eb826140c4565b6140f581856140cf565b9350614105818560208601612ba2565b61410e81612bd5565b840191505092915050565b600060808201905061412e6000830187612cd6565b61413b6020830186612cd6565b6141486040830185612f10565b818103606083015261415a81846140e0565b905095945050505050565b60008151905061417481612af7565b92915050565b6000602082840312156141905761418f612ac1565b5b600061419e84828501614165565b91505092915050565b7f4552433732314d657461646174613a2055524920717565727920666f72206e6f60008201527f6e6578697374656e7420746f6b656e0000000000000000000000000000000000602082015250565b6000614203602f83612b91565b915061420e826141a7565b604082019050919050565b60006020820190508181036000830152614232816141f6565b9050919050565b600061424482612c41565b91507fffffffffffffffffffffffffffffffffffffffffffffffffffffffffffffffff82141561427757614276613688565b5b600182019050919050565b7f4e487b7100000000000000000000000000000000000000000000000000000000600052601260045260246000fd5b60006142bc82612c41565b91506142c783612c41565b9250826142d7576142d6614282565b5b828204905092915050565b60006142ed82612c41565b91506142f883612c41565b92508261430857614307614282565b5b828206905092915050565b7f4e487b7100000000000000000000000000000000000000000000000000000000600052603160045260246000fdfea2646970667358221220c7190a60b915b5dc90957fcfd6b144d6f7f3a5d32f56c10449698b9a12664de464736f6c634300080a0033",
    "linkReferences": {},
    "deployedLinkReferences": {}
}